{
  "contractName": "Election",
  "abi": [
    {
      "inputs": [],
      "stateMutability": "nonpayable",
      "type": "constructor"
    },
    {
      "anonymous": false,
      "inputs": [
        {
          "indexed": true,
          "internalType": "bytes32",
          "name": "role",
          "type": "bytes32"
        },
        {
          "indexed": true,
          "internalType": "bytes32",
          "name": "previousAdminRole",
          "type": "bytes32"
        },
        {
          "indexed": true,
          "internalType": "bytes32",
          "name": "newAdminRole",
          "type": "bytes32"
        }
      ],
      "name": "RoleAdminChanged",
      "type": "event"
    },
    {
      "anonymous": false,
      "inputs": [
        {
          "indexed": true,
          "internalType": "bytes32",
          "name": "role",
          "type": "bytes32"
        },
        {
          "indexed": true,
          "internalType": "address",
          "name": "account",
          "type": "address"
        },
        {
          "indexed": true,
          "internalType": "address",
          "name": "sender",
          "type": "address"
        }
      ],
      "name": "RoleGranted",
      "type": "event"
    },
    {
      "anonymous": false,
      "inputs": [
        {
          "indexed": true,
          "internalType": "bytes32",
          "name": "role",
          "type": "bytes32"
        },
        {
          "indexed": true,
          "internalType": "address",
          "name": "account",
          "type": "address"
        },
        {
          "indexed": true,
          "internalType": "address",
          "name": "sender",
          "type": "address"
        }
      ],
      "name": "RoleRevoked",
      "type": "event"
    },
    {
      "anonymous": false,
      "inputs": [
        {
          "indexed": false,
          "internalType": "address",
          "name": "user",
          "type": "address"
        }
      ],
      "name": "checksoloOwner",
      "type": "event"
    },
    {
      "anonymous": false,
      "inputs": [
        {
          "indexed": true,
          "internalType": "uint256",
          "name": "_candidateId",
          "type": "uint256"
        },
        {
          "indexed": false,
          "internalType": "string",
          "name": "candidateName",
          "type": "string"
        }
      ],
      "name": "votedEvent",
      "type": "event"
    },
    {
      "inputs": [],
      "name": "DEFAULT_ADMIN_ROLE",
      "outputs": [
        {
          "internalType": "bytes32",
          "name": "",
          "type": "bytes32"
        }
      ],
      "stateMutability": "view",
      "type": "function",
      "constant": true
    },
    {
      "inputs": [
        {
          "internalType": "address",
          "name": "",
          "type": "address"
        }
      ],
      "name": "candidateVoted",
      "outputs": [
        {
          "internalType": "string",
          "name": "",
          "type": "string"
        }
      ],
      "stateMutability": "view",
      "type": "function",
      "constant": true
    },
    {
      "inputs": [
        {
          "internalType": "uint256",
          "name": "",
          "type": "uint256"
        }
      ],
      "name": "candidates",
      "outputs": [
        {
          "internalType": "uint256",
          "name": "id",
          "type": "uint256"
        },
        {
          "internalType": "string",
          "name": "name",
          "type": "string"
        },
        {
          "internalType": "uint256",
          "name": "voteCount",
          "type": "uint256"
        },
        {
          "internalType": "string",
          "name": "partyShortcut",
          "type": "string"
        },
        {
          "internalType": "string",
          "name": "partyFlag",
          "type": "string"
        }
      ],
      "stateMutability": "view",
      "type": "function",
      "constant": true
    },
    {
      "inputs": [],
      "name": "candidatesCount",
      "outputs": [
        {
          "internalType": "uint256",
          "name": "",
          "type": "uint256"
        }
      ],
      "stateMutability": "view",
      "type": "function",
      "constant": true
    },
    {
      "inputs": [
        {
          "internalType": "bytes32",
          "name": "role",
          "type": "bytes32"
        }
      ],
      "name": "getRoleAdmin",
      "outputs": [
        {
          "internalType": "bytes32",
          "name": "",
          "type": "bytes32"
        }
      ],
      "stateMutability": "view",
      "type": "function",
      "constant": true
    },
    {
      "inputs": [
        {
          "internalType": "bytes32",
          "name": "role",
          "type": "bytes32"
        },
        {
          "internalType": "address",
          "name": "account",
          "type": "address"
        }
      ],
      "name": "grantRole",
      "outputs": [],
      "stateMutability": "nonpayable",
      "type": "function"
    },
    {
      "inputs": [
        {
          "internalType": "bytes32",
          "name": "role",
          "type": "bytes32"
        },
        {
          "internalType": "address",
          "name": "account",
          "type": "address"
        }
      ],
      "name": "hasRole",
      "outputs": [
        {
          "internalType": "bool",
          "name": "",
          "type": "bool"
        }
      ],
      "stateMutability": "view",
      "type": "function",
      "constant": true
    },
    {
      "inputs": [],
      "name": "open",
      "outputs": [
        {
          "internalType": "bool",
          "name": "",
          "type": "bool"
        }
      ],
      "stateMutability": "view",
      "type": "function",
      "constant": true
    },
    {
      "inputs": [
        {
          "internalType": "bytes32",
          "name": "role",
          "type": "bytes32"
        },
        {
          "internalType": "address",
          "name": "account",
          "type": "address"
        }
      ],
      "name": "renounceRole",
      "outputs": [],
      "stateMutability": "nonpayable",
      "type": "function"
    },
    {
      "inputs": [
        {
          "internalType": "bytes32",
          "name": "role",
          "type": "bytes32"
        },
        {
          "internalType": "address",
          "name": "account",
          "type": "address"
        }
      ],
      "name": "revokeRole",
      "outputs": [],
      "stateMutability": "nonpayable",
      "type": "function"
    },
    {
      "inputs": [
        {
          "internalType": "bytes4",
          "name": "interfaceId",
          "type": "bytes4"
        }
      ],
      "name": "supportsInterface",
      "outputs": [
        {
          "internalType": "bool",
          "name": "",
          "type": "bool"
        }
      ],
      "stateMutability": "view",
      "type": "function",
      "constant": true
    },
    {
      "inputs": [
        {
          "internalType": "address",
          "name": "",
          "type": "address"
        }
      ],
      "name": "voters",
      "outputs": [
        {
          "internalType": "bool",
          "name": "",
          "type": "bool"
        }
      ],
      "stateMutability": "view",
      "type": "function",
      "constant": true
    },
    {
      "inputs": [],
      "name": "openElection",
      "outputs": [
        {
          "internalType": "bool",
          "name": "",
          "type": "bool"
        }
      ],
      "stateMutability": "nonpayable",
      "type": "function"
    },
    {
      "inputs": [],
      "name": "closeElection",
      "outputs": [
        {
          "internalType": "bool",
          "name": "",
          "type": "bool"
        }
      ],
      "stateMutability": "nonpayable",
      "type": "function"
    },
    {
      "inputs": [],
      "name": "isElectionOpen",
      "outputs": [
        {
          "internalType": "bool",
          "name": "",
          "type": "bool"
        }
      ],
      "stateMutability": "nonpayable",
      "type": "function"
    },
    {
      "inputs": [
        {
          "internalType": "address",
          "name": "account",
          "type": "address"
        }
      ],
      "name": "isOwner",
      "outputs": [
        {
          "internalType": "bool",
          "name": "",
          "type": "bool"
        }
      ],
      "stateMutability": "view",
      "type": "function",
      "constant": true
    },
    {
      "inputs": [
        {
          "internalType": "uint256",
          "name": "_candidateId",
          "type": "uint256"
        },
        {
          "internalType": "uint256",
          "name": "_balance",
          "type": "uint256"
        }
      ],
      "name": "vote",
      "outputs": [],
      "stateMutability": "nonpayable",
      "type": "function"
    }
  ],
  "bytecode": "0x60806040523480156200001157600080fd5b50620000226200005860201b60201c565b620000376000801b336200036260201b60201c565b6001600560006101000a81548160ff0219169083151502179055506200097f565b60006040518060a00160405280600181526020016040518060400160405280600e81526020017f47696f72676961204d656c6f6e690000000000000000000000000000000000008152508152602001600081526020016040518060400160405280600381526020017f464449000000000000000000000000000000000000000000000000000000000081525081526020016040518060800160405280604d8152602001620029dc604d9139815250905060006040518060a00160405280600281526020016040518060400160405280600c81526020017f4d617474656f2052656e7a6900000000000000000000000000000000000000008152508152602001600081526020016040518060400160405280600281526020017f4956000000000000000000000000000000000000000000000000000000000000815250815260200160405180608001604052806045815260200162002a2960459139815250905060006040518060a00160405280600381526020016040518060400160405280600c81526020017f446f6e616c64205472756d7000000000000000000000000000000000000000008152508152602001600081526020016040518060400160405280600381526020017f525042000000000000000000000000000000000000000000000000000000000081525081526020016040518060600160405280603a815260200162002a6e603a9139815250905060006040518060a00160405280600481526020016040518060400160405280601581526020017f4d617474656f204d657373696e612044656e61726f00000000000000000000008152508152602001600081526020016040518060400160405280600581526020017f4d4146494100000000000000000000000000000000000000000000000000000081525081526020016040518060800160405280605f81526020016200297d605f9139815250905062000329846200037860201b60201c565b6200033a836200037860201b60201c565b6200034b826200037860201b60201c565b6200035c816200037860201b60201c565b50505050565b6200037482826200043f60201b60201c565b5050565b600460008154809291906200038d90620005db565b91905055506040518060a0016040528060045481526020018260200151815260200160008152602001826060015181526020018260800151815250600260006004548152602001908152602001600020600082015181600001556020820151816001019081620003fe919062000898565b5060408201518160020155606082015181600301908162000420919062000898565b50608082015181600401908162000438919062000898565b5090505050565b6200045182826200053060201b60201c565b6200052c57600160008084815260200190815260200160002060000160008373ffffffffffffffffffffffffffffffffffffffff1673ffffffffffffffffffffffffffffffffffffffff16815260200190815260200160002060006101000a81548160ff021916908315150217905550620004d16200059a60201b60201c565b73ffffffffffffffffffffffffffffffffffffffff168173ffffffffffffffffffffffffffffffffffffffff16837f2f8788117e7eff1d82e926ec794901d17c78024a50270940304540a733656f0d60405160405180910390a45b5050565b600080600084815260200190815260200160002060000160008373ffffffffffffffffffffffffffffffffffffffff1673ffffffffffffffffffffffffffffffffffffffff16815260200190815260200160002060009054906101000a900460ff16905092915050565b600033905090565b7f4e487b7100000000000000000000000000000000000000000000000000000000600052601160045260246000fd5b6000819050919050565b6000620005e882620005d1565b91507fffffffffffffffffffffffffffffffffffffffffffffffffffffffffffffffff82036200061d576200061c620005a2565b5b600182019050919050565b600081519050919050565b7f4e487b7100000000000000000000000000000000000000000000000000000000600052604160045260246000fd5b7f4e487b7100000000000000000000000000000000000000000000000000000000600052602260045260246000fd5b60006002820490506001821680620006aa57607f821691505b602082108103620006c057620006bf62000662565b5b50919050565b60008190508160005260206000209050919050565b60006020601f8301049050919050565b600082821b905092915050565b6000600883026200072a7fffffffffffffffffffffffffffffffffffffffffffffffffffffffffffffffff82620006eb565b620007368683620006eb565b95508019841693508086168417925050509392505050565b6000819050919050565b600062000779620007736200076d84620005d1565b6200074e565b620005d1565b9050919050565b6000819050919050565b620007958362000758565b620007ad620007a48262000780565b848454620006f8565b825550505050565b600090565b620007c4620007b5565b620007d18184846200078a565b505050565b5b81811015620007f957620007ed600082620007ba565b600181019050620007d7565b5050565b601f82111562000848576200081281620006c6565b6200081d84620006db565b810160208510156200082d578190505b620008456200083c85620006db565b830182620007d6565b50505b505050565b600082821c905092915050565b60006200086d600019846008026200084d565b1980831691505092915050565b60006200088883836200085a565b9150826002028217905092915050565b620008a38262000628565b67ffffffffffffffff811115620008bf57620008be62000633565b5b620008cb825462000691565b620008d8828285620007fd565b600060209050601f831160018114620009105760008415620008fb578287015190505b6200090785826200087a565b86555062000977565b601f1984166200092086620006c6565b60005b828110156200094a5784890151825560018201915060208501945060208101905062000923565b868310156200096a578489015162000966601f8916826200085a565b8355505b6001600288020188555050505b505050505050565b611fee806200098f6000396000f3fe608060405234801561001057600080fd5b506004361061010b5760003560e01c80636f2cd40d116100a2578063b33c8dfa11610071578063b33c8dfa146102e4578063b384abef14610314578063c5d00f5d14610330578063d547741f1461034e578063fcfff16f1461036a5761010b565b80636f2cd40d1461024857806391d1485414610266578063a217fddf14610296578063a3ec138d146102b45761010b565b80632f54bf6e116100de5780632f54bf6e146101aa5780633477ee2e146101da57806336568abe1461020e5780636c6c32d01461022a5761010b565b806301ffc9a714610110578063248a9ca3146101405780632d35a8a2146101705780632f2ff15d1461018e575b600080fd5b61012a6004803603810190610125919061121f565b610388565b6040516101379190611267565b60405180910390f35b61015a600480360381019061015591906112b8565b610402565b60405161016791906112f4565b60405180910390f35b610178610421565b6040516101859190611328565b60405180910390f35b6101a860048036038101906101a391906113a1565b610427565b005b6101c460048036038101906101bf91906113e1565b610448565b6040516101d19190611267565b60405180910390f35b6101f460048036038101906101ef919061143a565b61045e565b6040516102059594939291906114f7565b60405180910390f35b610228600480360381019061022391906113a1565b61062c565b005b6102326106af565b60405161023f9190611267565b60405180910390f35b6102506107a8565b60405161025d9190611267565b60405180910390f35b610280600480360381019061027b91906113a1565b6107bf565b60405161028d9190611267565b60405180910390f35b61029e610829565b6040516102ab91906112f4565b60405180910390f35b6102ce60048036038101906102c991906113e1565b610830565b6040516102db9190611267565b60405180910390f35b6102fe60048036038101906102f991906113e1565b610850565b60405161030b919061155f565b60405180910390f35b61032e60048036038101906103299190611581565b6108f0565b005b610338610b60565b6040516103459190611267565b60405180910390f35b610368600480360381019061036391906113a1565b610c59565b005b610372610c7a565b60405161037f9190611267565b60405180910390f35b60007f7965db0b000000000000000000000000000000000000000000000000000000007bffffffffffffffffffffffffffffffffffffffffffffffffffffffff1916827bffffffffffffffffffffffffffffffffffffffffffffffffffffffff191614806103fb57506103fa82610c8d565b5b9050919050565b6000806000838152602001908152602001600020600101549050919050565b60045481565b61043082610402565b61043981610cf7565b6104438383610d0b565b505050565b60006104576000801b836107bf565b9050919050565b6002602052806000526040600020600091509050806000015490806001018054610487906115f0565b80601f01602080910402602001604051908101604052809291908181526020018280546104b3906115f0565b80156105005780601f106104d557610100808354040283529160200191610500565b820191906000526020600020905b8154815290600101906020018083116104e357829003601f168201915b50505050509080600201549080600301805461051b906115f0565b80601f0160208091040260200160405190810160405280929190818152602001828054610547906115f0565b80156105945780601f1061056957610100808354040283529160200191610594565b820191906000526020600020905b81548152906001019060200180831161057757829003601f168201915b5050505050908060040180546105a9906115f0565b80601f01602080910402602001604051908101604052809291908181526020018280546105d5906115f0565b80156106225780601f106105f757610100808354040283529160200191610622565b820191906000526020600020905b81548152906001019060200180831161060557829003601f168201915b5050505050905085565b610634610deb565b73ffffffffffffffffffffffffffffffffffffffff168173ffffffffffffffffffffffffffffffffffffffff16146106a1576040517f08c379a000000000000000000000000000000000000000000000000000000000815260040161069890611693565b60405180910390fd5b6106ab8282610df3565b5050565b60007f97cb40d38f4c4db2fe8d633d82729d64ea9d66937b525f8be969cc8b9c0c5d38336040516106e091906116c2565b60405180910390a16106f133610448565b610730576040517f08c379a000000000000000000000000000000000000000000000000000000000815260040161072790611729565b60405180910390fd5b60011515600560009054906101000a900460ff16151514610786576040517f08c379a000000000000000000000000000000000000000000000000000000000815260040161077d90611795565b60405180910390fd5b6000600560006101000a81548160ff0219169083151502179055506001905090565b6000600560009054906101000a900460ff16905090565b600080600084815260200190815260200160002060000160008373ffffffffffffffffffffffffffffffffffffffff1673ffffffffffffffffffffffffffffffffffffffff16815260200190815260200160002060009054906101000a900460ff16905092915050565b6000801b81565b60016020528060005260406000206000915054906101000a900460ff1681565b6003602052806000526040600020600091509050805461086f906115f0565b80601f016020809104026020016040519081016040528092919081815260200182805461089b906115f0565b80156108e85780601f106108bd576101008083540402835291602001916108e8565b820191906000526020600020905b8154815290600101906020018083116108cb57829003601f168201915b505050505081565b600560009054906101000a900460ff1661093f576040517f08c379a000000000000000000000000000000000000000000000000000000000815260040161093690611801565b60405180910390fd5b600160003373ffffffffffffffffffffffffffffffffffffffff1673ffffffffffffffffffffffffffffffffffffffff16815260200190815260200160002060009054906101000a900460ff16156109cc576040517f08c379a00000000000000000000000000000000000000000000000000000000081526004016109c39061186d565b60405180910390fd5b60008111610a0f576040517f08c379a0000000000000000000000000000000000000000000000000000000008152600401610a06906118d9565b60405180910390fd5b600082118015610a2157506004548211155b610a2a57600080fd5b60018060003373ffffffffffffffffffffffffffffffffffffffff1673ffffffffffffffffffffffffffffffffffffffff16815260200190815260200160002060006101000a81548160ff021916908315150217905550600260008381526020019081526020016000206002016000815480929190610aa890611928565b919050555060026000838152602001908152602001600020600101600360003373ffffffffffffffffffffffffffffffffffffffff1673ffffffffffffffffffffffffffffffffffffffff1681526020019081526020016000209081610b0e9190611b76565b50817f979840814b99e27d10388b0f146721af580825d27335aaf4e683f78f56be49c260026000858152602001908152602001600020600101604051610b549190611ce2565b60405180910390a25050565b60007f97cb40d38f4c4db2fe8d633d82729d64ea9d66937b525f8be969cc8b9c0c5d3833604051610b9191906116c2565b60405180910390a1610ba233610448565b610be1576040517f08c379a0000000000000000000000000000000000000000000000000000000008152600401610bd890611729565b60405180910390fd5b60001515600560009054906101000a900460ff16151514610c37576040517f08c379a0000000000000000000000000000000000000000000000000000000008152600401610c2e90611d50565b60405180910390fd5b6001600560006101000a81548160ff0219169083151502179055506001905090565b610c6282610402565b610c6b81610cf7565b610c758383610df3565b505050565b600560009054906101000a900460ff1681565b60007f01ffc9a7000000000000000000000000000000000000000000000000000000007bffffffffffffffffffffffffffffffffffffffffffffffffffffffff1916827bffffffffffffffffffffffffffffffffffffffffffffffffffffffff1916149050919050565b610d0881610d03610deb565b610ed4565b50565b610d1582826107bf565b610de757600160008084815260200190815260200160002060000160008373ffffffffffffffffffffffffffffffffffffffff1673ffffffffffffffffffffffffffffffffffffffff16815260200190815260200160002060006101000a81548160ff021916908315150217905550610d8c610deb565b73ffffffffffffffffffffffffffffffffffffffff168173ffffffffffffffffffffffffffffffffffffffff16837f2f8788117e7eff1d82e926ec794901d17c78024a50270940304540a733656f0d60405160405180910390a45b5050565b600033905090565b610dfd82826107bf565b15610ed057600080600084815260200190815260200160002060000160008373ffffffffffffffffffffffffffffffffffffffff1673ffffffffffffffffffffffffffffffffffffffff16815260200190815260200160002060006101000a81548160ff021916908315150217905550610e75610deb565b73ffffffffffffffffffffffffffffffffffffffff168173ffffffffffffffffffffffffffffffffffffffff16837ff6391f5c32d9c69d2a47ea670b442974b53935d1edc7fd64eb21e047a839171b60405160405180910390a45b5050565b610ede82826107bf565b610f5557610eeb81610f59565b610ef98360001c6020610f86565b604051602001610f0a929190611e44565b6040516020818303038152906040526040517f08c379a0000000000000000000000000000000000000000000000000000000008152600401610f4c919061155f565b60405180910390fd5b5050565b6060610f7f8273ffffffffffffffffffffffffffffffffffffffff16601460ff16610f86565b9050919050565b606060006002836002610f999190611e7e565b610fa39190611ec0565b67ffffffffffffffff811115610fbc57610fbb611986565b5b6040519080825280601f01601f191660200182016040528015610fee5781602001600182028036833780820191505090505b5090507f30000000000000000000000000000000000000000000000000000000000000008160008151811061102657611025611ef4565b5b60200101907effffffffffffffffffffffffffffffffffffffffffffffffffffffffffffff1916908160001a9053507f78000000000000000000000000000000000000000000000000000000000000008160018151811061108a57611089611ef4565b5b60200101907effffffffffffffffffffffffffffffffffffffffffffffffffffffffffffff1916908160001a905350600060018460026110ca9190611e7e565b6110d49190611ec0565b90505b6001811115611174577f3031323334353637383961626364656600000000000000000000000000000000600f86166010811061111657611115611ef4565b5b1a60f81b82828151811061112d5761112c611ef4565b5b60200101907effffffffffffffffffffffffffffffffffffffffffffffffffffffffffffff1916908160001a905350600485901c94508061116d90611f23565b90506110d7565b50600084146111b8576040517f08c379a00000000000000000000000000000000000000000000000000000000081526004016111af90611f98565b60405180910390fd5b8091505092915050565b600080fd5b60007fffffffff0000000000000000000000000000000000000000000000000000000082169050919050565b6111fc816111c7565b811461120757600080fd5b50565b600081359050611219816111f3565b92915050565b600060208284031215611235576112346111c2565b5b60006112438482850161120a565b91505092915050565b60008115159050919050565b6112618161124c565b82525050565b600060208201905061127c6000830184611258565b92915050565b6000819050919050565b61129581611282565b81146112a057600080fd5b50565b6000813590506112b28161128c565b92915050565b6000602082840312156112ce576112cd6111c2565b5b60006112dc848285016112a3565b91505092915050565b6112ee81611282565b82525050565b600060208201905061130960008301846112e5565b92915050565b6000819050919050565b6113228161130f565b82525050565b600060208201905061133d6000830184611319565b92915050565b600073ffffffffffffffffffffffffffffffffffffffff82169050919050565b600061136e82611343565b9050919050565b61137e81611363565b811461138957600080fd5b50565b60008135905061139b81611375565b92915050565b600080604083850312156113b8576113b76111c2565b5b60006113c6858286016112a3565b92505060206113d78582860161138c565b9150509250929050565b6000602082840312156113f7576113f66111c2565b5b60006114058482850161138c565b91505092915050565b6114178161130f565b811461142257600080fd5b50565b6000813590506114348161140e565b92915050565b6000602082840312156114505761144f6111c2565b5b600061145e84828501611425565b91505092915050565b600081519050919050565b600082825260208201905092915050565b60005b838110156114a1578082015181840152602081019050611486565b60008484015250505050565b6000601f19601f8301169050919050565b60006114c982611467565b6114d38185611472565b93506114e3818560208601611483565b6114ec816114ad565b840191505092915050565b600060a08201905061150c6000830188611319565b818103602083015261151e81876114be565b905061152d6040830186611319565b818103606083015261153f81856114be565b9050818103608083015261155381846114be565b90509695505050505050565b6000602082019050818103600083015261157981846114be565b905092915050565b60008060408385031215611598576115976111c2565b5b60006115a685828601611425565b92505060206115b785828601611425565b9150509250929050565b7f4e487b7100000000000000000000000000000000000000000000000000000000600052602260045260246000fd5b6000600282049050600182168061160857607f821691505b60208210810361161b5761161a6115c1565b5b50919050565b7f416363657373436f6e74726f6c3a2063616e206f6e6c792072656e6f756e636560008201527f20726f6c657320666f722073656c660000000000000000000000000000000000602082015250565b600061167d602f83611472565b915061168882611621565b604082019050919050565b600060208201905081810360008301526116ac81611670565b9050919050565b6116bc81611363565b82525050565b60006020820190506116d760008301846116b3565b92915050565b7f46756e7a696f6e6520736f6c6f2070657220696c2070726f706965746172696f600082015250565b6000611713602083611472565b915061171e826116dd565b602082019050919050565b6000602082019050818103600083015261174281611706565b9050919050565b7f456c657a696f6e65206769612063686975736521000000000000000000000000600082015250565b600061177f601483611472565b915061178a82611749565b602082019050919050565b600060208201905081810360008301526117ae81611772565b9050919050565b7f456c657a696f6e69207465726d696e6174650000000000000000000000000000600082015250565b60006117eb601283611472565b91506117f6826117b5565b602082019050919050565b6000602082019050818103600083015261181a816117de565b9050919050565b7f4861692067696120766f7461746f000000000000000000000000000000000000600082015250565b6000611857600e83611472565b915061186282611821565b602082019050919050565b600060208201905081810360008301526118868161184a565b9050919050565b7f466f6e646920696e73756666696369656e746900000000000000000000000000600082015250565b60006118c3601383611472565b91506118ce8261188d565b602082019050919050565b600060208201905081810360008301526118f2816118b6565b9050919050565b7f4e487b7100000000000000000000000000000000000000000000000000000000600052601160045260246000fd5b60006119338261130f565b91507fffffffffffffffffffffffffffffffffffffffffffffffffffffffffffffffff8203611965576119646118f9565b5b600182019050919050565b60008154905061197f816115f0565b9050919050565b7f4e487b7100000000000000000000000000000000000000000000000000000000600052604160045260246000fd5b60008190508160005260206000209050919050565b60008190508160005260206000209050919050565b60006020601f8301049050919050565b600082821b905092915050565b600060088302611a2c7fffffffffffffffffffffffffffffffffffffffffffffffffffffffffffffffff826119ef565b611a3686836119ef565b95508019841693508086168417925050509392505050565b6000819050919050565b6000611a73611a6e611a698461130f565b611a4e565b61130f565b9050919050565b6000819050919050565b611a8d83611a58565b611aa1611a9982611a7a565b8484546119fc565b825550505050565b600090565b611ab6611aa9565b611ac1818484611a84565b505050565b5b81811015611ae557611ada600082611aae565b600181019050611ac7565b5050565b601f821115611b2a57611afb816119b5565b611b04846119df565b81016020851015611b13578190505b611b27611b1f856119df565b830182611ac6565b50505b505050565b600082821c905092915050565b6000611b4d60001984600802611b2f565b1980831691505092915050565b6000611b668383611b3c565b9150826002028217905092915050565b818103611b84575050611c5c565b611b8d82611970565b67ffffffffffffffff811115611ba657611ba5611986565b5b611bb082546115f0565b611bbb828285611ae9565b6000601f831160018114611bea5760008415611bd8578287015490505b611be28582611b5a565b865550611c55565b601f198416611bf8876119ca565b9650611c03866119b5565b60005b82811015611c2b57848901548255600182019150600185019450602081019050611c06565b86831015611c485784890154611c44601f891682611b3c565b8355505b6001600288020188555050505b5050505050505b565b60008154611c6b816115f0565b611c758186611472565b94506001821660008114611c905760018114611ca657611cd9565b60ff198316865281151560200286019350611cd9565b611caf856119b5565b60005b83811015611cd157815481890152600182019150602081019050611cb2565b808801955050505b50505092915050565b60006020820190508181036000830152611cfc8184611c5e565b905092915050565b7f456c657a696f6e65206769612061706572746121000000000000000000000000600082015250565b6000611d3a601483611472565b9150611d4582611d04565b602082019050919050565b60006020820190508181036000830152611d6981611d2d565b9050919050565b600081905092915050565b7f416363657373436f6e74726f6c3a206163636f756e7420000000000000000000600082015250565b6000611db1601783611d70565b9150611dbc82611d7b565b601782019050919050565b6000611dd282611467565b611ddc8185611d70565b9350611dec818560208601611483565b80840191505092915050565b7f206973206d697373696e6720726f6c6520000000000000000000000000000000600082015250565b6000611e2e601183611d70565b9150611e3982611df8565b601182019050919050565b6000611e4f82611da4565b9150611e5b8285611dc7565b9150611e6682611e21565b9150611e728284611dc7565b91508190509392505050565b6000611e898261130f565b9150611e948361130f565b9250828202611ea28161130f565b91508282048414831517611eb957611eb86118f9565b5b5092915050565b6000611ecb8261130f565b9150611ed68361130f565b9250828201905080821115611eee57611eed6118f9565b5b92915050565b7f4e487b7100000000000000000000000000000000000000000000000000000000600052603260045260246000fd5b6000611f2e8261130f565b915060008203611f4157611f406118f9565b5b600182039050919050565b7f537472696e67733a20686578206c656e67746820696e73756666696369656e74600082015250565b6000611f82602083611472565b9150611f8d82611f4c565b602082019050919050565b60006020820190508181036000830152611fb181611f75565b905091905056fea264697066735822122074d82fe4aa75af23d5a6a3b118bdc00f3e121f56f8e2c54d3c4445af98a36e4864736f6c6343000811003368747470733a2f2f7777772e6d6574726f706f6c69737765622e69742f6d6574726f706f6c69737765622f6e6577732f77702d636f6e74656e742f75706c6f6164732f73697465732f322f323032332f30312f6d657373696e612d2e6a706768747470733a2f2f692e706f7374696d672e63632f6a354e38763634512f7669676e657474652d646976657274656e74692d656c657a696f6e692d67696f726769612d6d656c6f6e692e6a706768747470733a2f2f7777772e766973746f73756c7765622e636f6d2f77702d636f6e74656e742f75706c6f6164732f323032312f30322f736166655f696d6167652e6a706768747470733a2f2f7777772e706e676d6172742e636f6d2f66696c65732f31362f446f6e616c642d5472756d702d504e472d46696c652e706e67",
  "immutableReferences": {},
  "source": "pragma solidity ^0.8.0;\r\n\r\nimport \"@openzeppelin/contracts/access/AccessControl.sol\";\r\n\r\n\r\ncontract Election is AccessControl {\r\n    // Model a Candidate\r\n    struct Candidate {\r\n        uint id;\r\n        string name;\r\n        uint voteCount;\r\n        string partyShortcut;\r\n        string partyFlag;\r\n        \r\n    }\r\n\r\n\r\n    event votedEvent (\r\n        uint indexed _candidateId,  string candidateName\r\n    );\r\n    event checksoloOwner(address user);\r\n\r\n\r\n    // Store accounts that have voted\r\n    mapping(address => bool) public voters;\r\n    // Read/write candidates\r\n    mapping(uint => Candidate) public candidates;\r\n    mapping(address => string) public candidateVoted;\r\n    // Store Candidates Count\r\n\r\n    uint public candidatesCount;\r\n    bool public open;\r\n    \r\n    constructor () public {\r\n         inizializzaDatabaseCandidati();\r\n        _setupRole(DEFAULT_ADMIN_ROLE, msg.sender);\r\n         open = true; //Elezioni aperte\r\n    }\r\n\r\n\r\n    function addCandidate (Candidate memory candidate) private {\r\n        candidatesCount ++;\r\n        candidates[candidatesCount] = Candidate(candidatesCount, candidate.name, 0, candidate.partyShortcut, candidate.partyFlag);\r\n    }\r\n\r\n    function openElection() public soloOwner returns (bool){\r\n        require(open == false, \"Elezione gia aperta!\"); //Se l'elezione  chiusa..\r\n        open = true;\r\n\r\n        return true; //Operazione riuscita!\r\n    }\r\n\r\n    function closeElection() public soloOwner returns (bool){\r\n        require(open == true, \"Elezione gia chiuse!\"); //Se l'elezione  aperta..\r\n        open = false;\r\n        \r\n        return true; //Operazione riuscita! \r\n    }\r\n\r\n    function isElectionOpen() public returns (bool){\r\n        return open;\r\n    }\r\n\r\n    modifier soloOwner() {\r\n      emit checksoloOwner(msg.sender);\r\n      require(isOwner(msg.sender), \"Funzione solo per il propietario\");\r\n      _;\r\n    }\r\n\r\n    function isOwner(address account) public virtual view returns (bool) {\r\n      return hasRole(DEFAULT_ADMIN_ROLE, account);\r\n    }\r\n\r\n    function vote (uint _candidateId, uint _balance) public {\r\n\r\n        require(open, \"Elezioni terminate\");\r\n        // Requisiti per il votante\r\n        require(!voters[msg.sender], \"Hai gia votato\");\r\n        \r\n        require(_balance > 0, \"Fondi insufficienti\");\r\n\r\n        // Requisiti per un candidato\r\n        require(_candidateId > 0 && _candidateId <= candidatesCount);\r\n\r\n        // Ricordo che chi vota non pu pi votare\r\n        voters[msg.sender] = true;\r\n\r\n        // Aggiorno il voto del candidato\r\n        candidates[_candidateId].voteCount++;\r\n\r\n        // Aggiornamente del candidato votato!\r\n        candidateVoted[msg.sender] = candidates[_candidateId].name;\r\n        \r\n        // trigger voted event\r\n        emit votedEvent(_candidateId,  candidates[_candidateId].name);\r\n    }\r\n\r\n    /**\r\n     * Inizializza i candidati\r\n     */\r\n    function inizializzaDatabaseCandidati() internal {\r\n        Candidate memory candidate_1= Candidate({\r\n            id: 1,\r\n            name: \"Giorgia Meloni\",\r\n            voteCount: 0,\r\n            partyShortcut: \"FDI\",\r\n            partyFlag: \"https://i.postimg.cc/j5N8v64Q/vignette-divertenti-elezioni-giorgia-meloni.jpg\"\r\n            \r\n        });\r\n        Candidate memory candidate_2 = Candidate({\r\n            id: 2,\r\n            name: \"Matteo Renzi\",\r\n            voteCount: 0,\r\n            partyShortcut: \"IV\",\r\n            partyFlag: \"https://www.vistosulweb.com/wp-content/uploads/2021/02/safe_image.jpg\"\r\n            \r\n        });\r\n        Candidate memory candidate_3 = Candidate({\r\n            id: 3,\r\n            name: \"Donald Trump\",\r\n            voteCount: 0,\r\n            partyShortcut: \"RPB\",\r\n            partyFlag: \"https://www.pngmart.com/files/16/Donald-Trump-PNG-File.png\"\r\n        });\r\n        Candidate memory candidate_4 = Candidate({\r\n            id: 4,\r\n            name: \"Matteo Messina Denaro\",\r\n            voteCount: 0,\r\n            partyShortcut: \"MAFIA\",\r\n            partyFlag: \"https://www.metropolisweb.it/metropolisweb/news/wp-content/uploads/sites/2/2023/01/messina-.jpg\"\r\n        });\r\n\r\n        addCandidate(candidate_1);\r\n        addCandidate(candidate_2);\r\n        addCandidate(candidate_3);\r\n        addCandidate(candidate_4);\r\n\r\n   \r\n    }\r\n}\r\n\r\n    ",
  "sourcePath": "C:\\Users\\della\\OneDrive\\Desktop\\SimpleE-VotingSystem\\SimpleE-VotingSystem\\contracts\\Election.sol",
  "compiler": {
    "name": "solc",
    "version": "0.8.17+commit.8df45f5f.Emscripten.clang"
  },
  "schemaVersion": "3.4.11",
  "updatedAt": "2023-01-18T17:30:23.319Z",
  "networkType": "ethereum",
  "devdoc": {
    "kind": "dev",
    "methods": {
      "getRoleAdmin(bytes32)": {
        "details": "Returns the admin role that controls `role`. See {grantRole} and {revokeRole}. To change a role's admin, use {_setRoleAdmin}."
      },
      "grantRole(bytes32,address)": {
        "details": "Grants `role` to `account`. If `account` had not been already granted `role`, emits a {RoleGranted} event. Requirements: - the caller must have ``role``'s admin role. May emit a {RoleGranted} event."
      },
      "hasRole(bytes32,address)": {
        "details": "Returns `true` if `account` has been granted `role`."
      },
      "renounceRole(bytes32,address)": {
        "details": "Revokes `role` from the calling account. Roles are often managed via {grantRole} and {revokeRole}: this function's purpose is to provide a mechanism for accounts to lose their privileges if they are compromised (such as when a trusted device is misplaced). If the calling account had been revoked `role`, emits a {RoleRevoked} event. Requirements: - the caller must be `account`. May emit a {RoleRevoked} event."
      },
      "revokeRole(bytes32,address)": {
        "details": "Revokes `role` from `account`. If `account` had been granted `role`, emits a {RoleRevoked} event. Requirements: - the caller must have ``role``'s admin role. May emit a {RoleRevoked} event."
      },
      "supportsInterface(bytes4)": {
        "details": "See {IERC165-supportsInterface}."
      }
    },
    "version": 1
  },
  "userdoc": {
    "kind": "user",
    "methods": {},
    "version": 1
  }
}