{
  "contractName": "Election",
  "abi": [
    {
      "inputs": [],
      "stateMutability": "nonpayable",
      "type": "constructor"
    },
    {
      "anonymous": false,
      "inputs": [
        {
          "components": [
            {
              "internalType": "uint256",
              "name": "id",
              "type": "uint256"
            },
            {
              "internalType": "string",
              "name": "name",
              "type": "string"
            },
            {
              "internalType": "uint256",
              "name": "voteCount",
              "type": "uint256"
            },
            {
              "internalType": "string",
              "name": "partyShortcut",
              "type": "string"
            },
            {
              "internalType": "string",
              "name": "partyFlag",
              "type": "string"
            }
          ],
          "indexed": false,
          "internalType": "struct Election.Candidate",
          "name": "candidato",
          "type": "tuple"
        }
      ],
      "name": "CandidatoAggiunto",
      "type": "event"
    },
    {
      "anonymous": false,
      "inputs": [
        {
          "indexed": false,
          "internalType": "address",
          "name": "user",
          "type": "address"
        }
      ],
      "name": "ChecksoloVoter",
      "type": "event"
    },
    {
      "anonymous": false,
      "inputs": [
        {
          "indexed": true,
          "internalType": "bytes32",
          "name": "role",
          "type": "bytes32"
        },
        {
          "indexed": true,
          "internalType": "bytes32",
          "name": "previousAdminRole",
          "type": "bytes32"
        },
        {
          "indexed": true,
          "internalType": "bytes32",
          "name": "newAdminRole",
          "type": "bytes32"
        }
      ],
      "name": "RoleAdminChanged",
      "type": "event"
    },
    {
      "anonymous": false,
      "inputs": [
        {
          "indexed": true,
          "internalType": "bytes32",
          "name": "role",
          "type": "bytes32"
        },
        {
          "indexed": true,
          "internalType": "address",
          "name": "account",
          "type": "address"
        },
        {
          "indexed": true,
          "internalType": "address",
          "name": "sender",
          "type": "address"
        }
      ],
      "name": "RoleGranted",
      "type": "event"
    },
    {
      "anonymous": false,
      "inputs": [
        {
          "indexed": true,
          "internalType": "bytes32",
          "name": "role",
          "type": "bytes32"
        },
        {
          "indexed": true,
          "internalType": "address",
          "name": "account",
          "type": "address"
        },
        {
          "indexed": true,
          "internalType": "address",
          "name": "sender",
          "type": "address"
        }
      ],
      "name": "RoleRevoked",
      "type": "event"
    },
    {
      "anonymous": false,
      "inputs": [
        {
          "indexed": false,
          "internalType": "address",
          "name": "user",
          "type": "address"
        }
      ],
      "name": "checksoloOwner",
      "type": "event"
    },
    {
      "anonymous": false,
      "inputs": [
        {
          "indexed": true,
          "internalType": "uint256",
          "name": "_candidateId",
          "type": "uint256"
        }
      ],
      "name": "removedCandidateEvent",
      "type": "event"
    },
    {
      "anonymous": false,
      "inputs": [],
      "name": "resetElectionEvent",
      "type": "event"
    },
    {
      "anonymous": false,
      "inputs": [
        {
          "indexed": true,
          "internalType": "uint256",
          "name": "_candidateId",
          "type": "uint256"
        },
        {
          "indexed": false,
          "internalType": "string",
          "name": "candidateName",
          "type": "string"
        }
      ],
      "name": "votedEvent",
      "type": "event"
    },
    {
      "inputs": [],
      "name": "DEFAULT_ADMIN_ROLE",
      "outputs": [
        {
          "internalType": "bytes32",
          "name": "",
          "type": "bytes32"
        }
      ],
      "stateMutability": "view",
      "type": "function",
      "constant": true
    },
    {
      "inputs": [],
      "name": "VOTER_ROLE",
      "outputs": [
        {
          "internalType": "bytes32",
          "name": "",
          "type": "bytes32"
        }
      ],
      "stateMutability": "view",
      "type": "function",
      "constant": true
    },
    {
      "inputs": [
        {
          "internalType": "address",
          "name": "",
          "type": "address"
        }
      ],
      "name": "candidateVoted",
      "outputs": [
        {
          "internalType": "string",
          "name": "",
          "type": "string"
        }
      ],
      "stateMutability": "view",
      "type": "function",
      "constant": true
    },
    {
      "inputs": [
        {
          "internalType": "uint256",
          "name": "",
          "type": "uint256"
        }
      ],
      "name": "candidates",
      "outputs": [
        {
          "internalType": "uint256",
          "name": "id",
          "type": "uint256"
        },
        {
          "internalType": "string",
          "name": "name",
          "type": "string"
        },
        {
          "internalType": "uint256",
          "name": "voteCount",
          "type": "uint256"
        },
        {
          "internalType": "string",
          "name": "partyShortcut",
          "type": "string"
        },
        {
          "internalType": "string",
          "name": "partyFlag",
          "type": "string"
        }
      ],
      "stateMutability": "view",
      "type": "function",
      "constant": true
    },
    {
      "inputs": [],
      "name": "candidatesCount",
      "outputs": [
        {
          "internalType": "uint256",
          "name": "",
          "type": "uint256"
        }
      ],
      "stateMutability": "view",
      "type": "function",
      "constant": true
    },
    {
      "inputs": [
        {
          "internalType": "bytes32",
          "name": "role",
          "type": "bytes32"
        }
      ],
      "name": "getRoleAdmin",
      "outputs": [
        {
          "internalType": "bytes32",
          "name": "",
          "type": "bytes32"
        }
      ],
      "stateMutability": "view",
      "type": "function",
      "constant": true
    },
    {
      "inputs": [
        {
          "internalType": "bytes32",
          "name": "role",
          "type": "bytes32"
        },
        {
          "internalType": "address",
          "name": "account",
          "type": "address"
        }
      ],
      "name": "grantRole",
      "outputs": [],
      "stateMutability": "nonpayable",
      "type": "function"
    },
    {
      "inputs": [
        {
          "internalType": "bytes32",
          "name": "role",
          "type": "bytes32"
        },
        {
          "internalType": "address",
          "name": "account",
          "type": "address"
        }
      ],
      "name": "hasRole",
      "outputs": [
        {
          "internalType": "bool",
          "name": "",
          "type": "bool"
        }
      ],
      "stateMutability": "view",
      "type": "function",
      "constant": true
    },
    {
      "inputs": [
        {
          "internalType": "uint256",
          "name": "",
          "type": "uint256"
        }
      ],
      "name": "listaVotanti",
      "outputs": [
        {
          "internalType": "address",
          "name": "",
          "type": "address"
        }
      ],
      "stateMutability": "view",
      "type": "function",
      "constant": true
    },
    {
      "inputs": [],
      "name": "open",
      "outputs": [
        {
          "internalType": "bool",
          "name": "",
          "type": "bool"
        }
      ],
      "stateMutability": "view",
      "type": "function",
      "constant": true
    },
    {
      "inputs": [
        {
          "internalType": "bytes32",
          "name": "role",
          "type": "bytes32"
        },
        {
          "internalType": "address",
          "name": "account",
          "type": "address"
        }
      ],
      "name": "renounceRole",
      "outputs": [],
      "stateMutability": "nonpayable",
      "type": "function"
    },
    {
      "inputs": [
        {
          "internalType": "bytes32",
          "name": "role",
          "type": "bytes32"
        },
        {
          "internalType": "address",
          "name": "account",
          "type": "address"
        }
      ],
      "name": "revokeRole",
      "outputs": [],
      "stateMutability": "nonpayable",
      "type": "function"
    },
    {
      "inputs": [],
      "name": "risultatoElezione",
      "outputs": [
        {
          "internalType": "string",
          "name": "",
          "type": "string"
        }
      ],
      "stateMutability": "view",
      "type": "function",
      "constant": true
    },
    {
      "inputs": [
        {
          "internalType": "bytes4",
          "name": "interfaceId",
          "type": "bytes4"
        }
      ],
      "name": "supportsInterface",
      "outputs": [
        {
          "internalType": "bool",
          "name": "",
          "type": "bool"
        }
      ],
      "stateMutability": "view",
      "type": "function",
      "constant": true
    },
    {
      "inputs": [
        {
          "internalType": "address",
          "name": "",
          "type": "address"
        }
      ],
      "name": "voters",
      "outputs": [
        {
          "internalType": "bool",
          "name": "",
          "type": "bool"
        }
      ],
      "stateMutability": "view",
      "type": "function",
      "constant": true
    },
    {
      "inputs": [
        {
          "internalType": "string",
          "name": "nome",
          "type": "string"
        },
        {
          "internalType": "string",
          "name": "partito",
          "type": "string"
        },
        {
          "internalType": "string",
          "name": "logo",
          "type": "string"
        }
      ],
      "name": "addCandidate",
      "outputs": [],
      "stateMutability": "nonpayable",
      "type": "function"
    },
    {
      "inputs": [
        {
          "internalType": "uint256",
          "name": "_candidateId",
          "type": "uint256"
        }
      ],
      "name": "removeCandidate",
      "outputs": [],
      "stateMutability": "nonpayable",
      "type": "function"
    },
    {
      "inputs": [],
      "name": "resetElection",
      "outputs": [],
      "stateMutability": "nonpayable",
      "type": "function"
    },
    {
      "inputs": [],
      "name": "openElection",
      "outputs": [
        {
          "internalType": "bool",
          "name": "",
          "type": "bool"
        }
      ],
      "stateMutability": "nonpayable",
      "type": "function"
    },
    {
      "inputs": [],
      "name": "closeElection",
      "outputs": [
        {
          "internalType": "bool",
          "name": "",
          "type": "bool"
        }
      ],
      "stateMutability": "nonpayable",
      "type": "function"
    },
    {
      "inputs": [],
      "name": "isElectionOpen",
      "outputs": [
        {
          "internalType": "bool",
          "name": "",
          "type": "bool"
        }
      ],
      "stateMutability": "view",
      "type": "function",
      "constant": true
    },
    {
      "inputs": [
        {
          "internalType": "address",
          "name": "account",
          "type": "address"
        }
      ],
      "name": "isOwner",
      "outputs": [
        {
          "internalType": "bool",
          "name": "",
          "type": "bool"
        }
      ],
      "stateMutability": "view",
      "type": "function",
      "constant": true
    },
    {
      "inputs": [
        {
          "internalType": "address",
          "name": "account",
          "type": "address"
        }
      ],
      "name": "isVoter",
      "outputs": [
        {
          "internalType": "bool",
          "name": "",
          "type": "bool"
        }
      ],
      "stateMutability": "view",
      "type": "function",
      "constant": true
    },
    {
      "inputs": [
        {
          "internalType": "uint256",
          "name": "_candidateId",
          "type": "uint256"
        }
      ],
      "name": "vote",
      "outputs": [],
      "stateMutability": "nonpayable",
      "type": "function"
    }
  ],
  "bytecode": "0x60806040523480156200001157600080fd5b50620000276000801b336200009160201b60201c565b600060048190555060405180602001604052806000815250600690816200004f919062000cfa565b5062000060620000a760201b60201c565b62000070620006a560201b60201c565b6001600560006101000a81548160ff02191690831515021790555062000e5d565b620000a382826200091d60201b60201c565b5050565b60006040518060a00160405280600181526020016040518060400160405280600e81526020017f47696f72676961204d656c6f6e690000000000000000000000000000000000008152508152602001600081526020016040518060400160405280600381526020017f464449000000000000000000000000000000000000000000000000000000000081525081526020016040518060800160405280604d815260200162004454604d9139815250905060006040518060a00160405280600281526020016040518060400160405280601281526020017f4d617474656f2044656c6c6120526f63636100000000000000000000000000008152508152602001600081526020016040518060400160405280600781526020017f46726565646f6d0000000000000000000000000000000000000000000000000081525081526020016040518060400160405280601981526020017f2e2f696d616765732f6d64722d636f6c6f7261746f2e6a706700000000000000815250815250905060006040518060a00160405280600381526020016040518060400160405280601081526020017f4361726d696e65204427416e67656c6f000000000000000000000000000000008152508152602001600081526020016040518060400160405280600381526020017f4e434f00000000000000000000000000000000000000000000000000000000008152508152602001604051806080016040528060598152602001620044a160599139815250905060006040518060a00160405280600481526020016040518060400160405280601581526020017f4d617474656f204d657373696e612044656e61726f00000000000000000000008152508152602001600081526020016040518060400160405280600581526020017f4d4146494100000000000000000000000000000000000000000000000000000081525081526020016040518060800160405280605f8152602001620043f5605f9139815250905060046000815480929190620003989062000e10565b91905055506040518060a00160405280600454815260200185602001518152602001856040015181526020018560600151815260200185608001518152506002600060045481526020019081526020016000206000820151816000015560208201518160010190816200040c919062000cfa565b506040820151816002015560608201518160030190816200042e919062000cfa565b50608082015181600401908162000446919062000cfa565b50905050600460008154809291906200045f9062000e10565b91905055506040518060a0016040528060045481526020018460200151815260200184604001518152602001846060015181526020018460800151815250600260006004548152602001908152602001600020600082015181600001556020820151816001019081620004d3919062000cfa565b50604082015181600201556060820151816003019081620004f5919062000cfa565b5060808201518160040190816200050d919062000cfa565b5090505060046000815480929190620005269062000e10565b91905055506040518060a00160405280600454815260200183602001518152602001836040015181526020018360600151815260200183608001518152506002600060045481526020019081526020016000206000820151816000015560208201518160010190816200059a919062000cfa565b50604082015181600201556060820151816003019081620005bc919062000cfa565b506080820151816004019081620005d4919062000cfa565b5090505060046000815480929190620005ed9062000e10565b91905055506040518060a001604052806004548152602001826020015181526020018260400151815260200182606001518152602001826080015181525060026000600454815260200190815260200160002060008201518160000155602082015181600101908162000661919062000cfa565b5060408201518160020155606082015181600301908162000683919062000cfa565b5060808201518160040190816200069b919062000cfa565b5090505050505050565b620006eb7f72c3eec1760bf69946625c2d4fb8e44e2c806345041960b434674fb9ab3976cf731a8f33524ac8642f2a8af58444354cd7de75dcda6200009160201b60201c565b620007317f72c3eec1760bf69946625c2d4fb8e44e2c806345041960b434674fb9ab3976cf73c7e1f5a46f4ea402242a01215c92fa05040aa3c56200009160201b60201c565b620007777f72c3eec1760bf69946625c2d4fb8e44e2c806345041960b434674fb9ab3976cf733ba20119f0f6f4bcf30e570cfdf4fb8082f982b86200009160201b60201c565b620007bd7f72c3eec1760bf69946625c2d4fb8e44e2c806345041960b434674fb9ab3976cf736b543d4b4b411dbe3373f31e002c85ec7285f81c6200009160201b60201c565b620008037f72c3eec1760bf69946625c2d4fb8e44e2c806345041960b434674fb9ab3976cf73b0950983e2972c6ee556414eb9843a002c83f55d6200009160201b60201c565b620008497f72c3eec1760bf69946625c2d4fb8e44e2c806345041960b434674fb9ab3976cf73ed778a60005fe6545b16668271184c3649e7b4056200009160201b60201c565b6200088f7f72c3eec1760bf69946625c2d4fb8e44e2c806345041960b434674fb9ab3976cf738cf71aa476700f12ae3c61e99bf143dcd833a97d6200009160201b60201c565b620008d57f72c3eec1760bf69946625c2d4fb8e44e2c806345041960b434674fb9ab3976cf735083b9406b017ae080229a91978f079a126e875d6200009160201b60201c565b6200091b7f72c3eec1760bf69946625c2d4fb8e44e2c806345041960b434674fb9ab3976cf732f85bd106166d9964f15b0d432f65fd4b373412a6200009160201b60201c565b565b6200092f828262000a0e60201b60201c565b62000a0a57600160008084815260200190815260200160002060000160008373ffffffffffffffffffffffffffffffffffffffff1673ffffffffffffffffffffffffffffffffffffffff16815260200190815260200160002060006101000a81548160ff021916908315150217905550620009af62000a7860201b60201c565b73ffffffffffffffffffffffffffffffffffffffff168173ffffffffffffffffffffffffffffffffffffffff16837f2f8788117e7eff1d82e926ec794901d17c78024a50270940304540a733656f0d60405160405180910390a45b5050565b600080600084815260200190815260200160002060000160008373ffffffffffffffffffffffffffffffffffffffff1673ffffffffffffffffffffffffffffffffffffffff16815260200190815260200160002060009054906101000a900460ff16905092915050565b600033905090565b600081519050919050565b7f4e487b7100000000000000000000000000000000000000000000000000000000600052604160045260246000fd5b7f4e487b7100000000000000000000000000000000000000000000000000000000600052602260045260246000fd5b6000600282049050600182168062000b0257607f821691505b60208210810362000b185762000b1762000aba565b5b50919050565b60008190508160005260206000209050919050565b60006020601f8301049050919050565b600082821b905092915050565b60006008830262000b827fffffffffffffffffffffffffffffffffffffffffffffffffffffffffffffffff8262000b43565b62000b8e868362000b43565b95508019841693508086168417925050509392505050565b6000819050919050565b6000819050919050565b600062000bdb62000bd562000bcf8462000ba6565b62000bb0565b62000ba6565b9050919050565b6000819050919050565b62000bf78362000bba565b62000c0f62000c068262000be2565b84845462000b50565b825550505050565b600090565b62000c2662000c17565b62000c3381848462000bec565b505050565b5b8181101562000c5b5762000c4f60008262000c1c565b60018101905062000c39565b5050565b601f82111562000caa5762000c748162000b1e565b62000c7f8462000b33565b8101602085101562000c8f578190505b62000ca762000c9e8562000b33565b83018262000c38565b50505b505050565b600082821c905092915050565b600062000ccf6000198460080262000caf565b1980831691505092915050565b600062000cea838362000cbc565b9150826002028217905092915050565b62000d058262000a80565b67ffffffffffffffff81111562000d215762000d2062000a8b565b5b62000d2d825462000ae9565b62000d3a82828562000c5f565b600060209050601f83116001811462000d72576000841562000d5d578287015190505b62000d69858262000cdc565b86555062000dd9565b601f19841662000d828662000b1e565b60005b8281101562000dac5784890151825560018201915060208501945060208101905062000d85565b8683101562000dcc578489015162000dc8601f89168262000cbc565b8355505b6001600288020188555050505b505050505050565b7f4e487b7100000000000000000000000000000000000000000000000000000000600052601160045260246000fd5b600062000e1d8262000ba6565b91507fffffffffffffffffffffffffffffffffffffffffffffffffffffffffffffffff820362000e525762000e5162000de1565b5b600182019050919050565b6135888062000e6d6000396000f3fe608060405234801561001057600080fd5b50600436106101585760003560e01c80636f2cd40d116100c3578063ad71f8dc1161007c578063ad71f8dc14610405578063b33c8dfa14610421578063c5d00f5d14610451578063d547741f1461046f578063e8f305231461048b578063fcfff16f1461049557610158565b80636f2cd40d1461031b57806391d1485414610339578063a217fddf14610369578063a3ec138d14610387578063a7771ee3146103b7578063a94015c8146103e757610158565b80632f2ff15d116101155780632f2ff15d146102315780632f54bf6e1461024d5780633477ee2e1461027d57806336568abe146102b15780636c6c32d0146102cd5780636c9d4e8c146102eb57610158565b80630121b93f1461015d57806301ffc9a71461017957806309e9d7e2146101a9578063248a9ca3146101c557806324a897b9146101f55780632d35a8a214610213575b600080fd5b610177600480360381019061017291906120cd565b6104b3565b005b610193600480360381019061018e9190612152565b6107f7565b6040516101a0919061219a565b60405180910390f35b6101c360048036038101906101be91906120cd565b610871565b005b6101df60048036038101906101da91906121eb565b610b3e565b6040516101ec9190612227565b60405180910390f35b6101fd610b5d565b60405161020a91906122d2565b60405180910390f35b61021b610beb565b6040516102289190612303565b60405180910390f35b61024b6004803603810190610246919061237c565b610bf1565b005b610267600480360381019061026291906123bc565b610c12565b604051610274919061219a565b60405180910390f35b610297600480360381019061029291906120cd565b610c28565b6040516102a89594939291906123e9565b60405180910390f35b6102cb60048036038101906102c6919061237c565b610df6565b005b6102d5610e79565b6040516102e2919061219a565b60405180910390f35b610305600480360381019061030091906120cd565b611263565b6040516103129190612460565b60405180910390f35b6103236112a2565b604051610330919061219a565b60405180910390f35b610353600480360381019061034e919061237c565b6112b9565b604051610360919061219a565b60405180910390f35b610371611323565b60405161037e9190612227565b60405180910390f35b6103a1600480360381019061039c91906123bc565b61132a565b6040516103ae919061219a565b60405180910390f35b6103d160048036038101906103cc91906123bc565b61134a565b6040516103de919061219a565b60405180910390f35b6103ef61137d565b6040516103fc9190612227565b60405180910390f35b61041f600480360381019061041a91906125b0565b6113a1565b005b61043b600480360381019061043691906123bc565b611562565b60405161044891906122d2565b60405180910390f35b610459611602565b604051610466919061219a565b60405180910390f35b6104896004803603810190610484919061237c565b6116fb565b005b61049361171c565b005b61049d611a25565b6040516104aa919061219a565b60405180910390f35b7fd1473c1e90f2ba593e90fbee930d3cecf810debaccb8da002a6882520c889207336040516104e29190612460565b60405180910390a16104f33361134a565b610532576040517f08c379a0000000000000000000000000000000000000000000000000000000008152600401610529906126a3565b60405180910390fd5b600560009054906101000a900460ff16610581576040517f08c379a00000000000000000000000000000000000000000000000000000000081526004016105789061270f565b60405180910390fd5b600160003373ffffffffffffffffffffffffffffffffffffffff1673ffffffffffffffffffffffffffffffffffffffff16815260200190815260200160002060009054906101000a900460ff161561060e576040517f08c379a00000000000000000000000000000000000000000000000000000000081526004016106059061277b565b60405180910390fd5b60008111801561062057506004548111155b61065f576040517f08c379a0000000000000000000000000000000000000000000000000000000008152600401610656906127e7565b60405180910390fd5b60018060003373ffffffffffffffffffffffffffffffffffffffff1673ffffffffffffffffffffffffffffffffffffffff16815260200190815260200160002060006101000a81548160ff0219169083151502179055506002600082815260200190815260200160002060020160008154809291906106dd90612836565b919050555060026000828152602001908152602001600020600101600360003373ffffffffffffffffffffffffffffffffffffffff1673ffffffffffffffffffffffffffffffffffffffff16815260200190815260200160002090816107439190612ab5565b506007339080600181540180825580915050600190039060005260206000200160009091909190916101000a81548173ffffffffffffffffffffffffffffffffffffffff021916908373ffffffffffffffffffffffffffffffffffffffff160217905550807f979840814b99e27d10388b0f146721af580825d27335aaf4e683f78f56be49c2600260008481526020019081526020016000206001016040516107ec9190612c21565b60405180910390a250565b60007f7965db0b000000000000000000000000000000000000000000000000000000007bffffffffffffffffffffffffffffffffffffffffffffffffffffffff1916827bffffffffffffffffffffffffffffffffffffffffffffffffffffffff1916148061086a575061086982611a38565b5b9050919050565b7f97cb40d38f4c4db2fe8d633d82729d64ea9d66937b525f8be969cc8b9c0c5d38336040516108a09190612460565b60405180910390a16108b133610c12565b6108f0576040517f08c379a00000000000000000000000000000000000000000000000000000000081526004016108e790612c8f565b60405180910390fd5b600560009054906101000a900460ff1615610940576040517f08c379a000000000000000000000000000000000000000000000000000000000815260040161093790612d21565b60405180910390fd5b60008111801561095257506004548111155b610991576040517f08c379a000000000000000000000000000000000000000000000000000000000815260040161098890612d8d565b60405180910390fd5b600260008281526020019081526020016000206000808201600090556001820160006109bd9190611f6d565b60028201600090556003820160006109d59190611f6d565b6004820160006109e59190611f6d565b5050600460008154809291906109fa90612dad565b919050555060008190505b6004548111610aa95760026000600183610a1f9190612dd6565b8152602001908152602001600020600260008381526020019081526020016000206000820154816000015560018201816001019081610a5e9190612e20565b506002820154816002015560038201816003019081610a7d9190612e20565b5060048201816004019081610a929190612e20565b509050508080610aa190612836565b915050610a05565b50600260006001600454610abd9190612dd6565b8152602001908152602001600020600080820160009055600182016000610ae49190611f6d565b6002820160009055600382016000610afc9190611f6d565b600482016000610b0c9190611f6d565b5050807f20d7243f0784acc9041a7a8e8935b200eb8c016d8f93944acf368b87bee6352460405160405180910390a250565b6000806000838152602001908152602001600020600101549050919050565b60068054610b6a906128ad565b80601f0160208091040260200160405190810160405280929190818152602001828054610b96906128ad565b8015610be35780601f10610bb857610100808354040283529160200191610be3565b820191906000526020600020905b815481529060010190602001808311610bc657829003601f168201915b505050505081565b60045481565b610bfa82610b3e565b610c0381611aa2565b610c0d8383611ab6565b505050565b6000610c216000801b836112b9565b9050919050565b6002602052806000526040600020600091509050806000015490806001018054610c51906128ad565b80601f0160208091040260200160405190810160405280929190818152602001828054610c7d906128ad565b8015610cca5780601f10610c9f57610100808354040283529160200191610cca565b820191906000526020600020905b815481529060010190602001808311610cad57829003601f168201915b505050505090806002015490806003018054610ce5906128ad565b80601f0160208091040260200160405190810160405280929190818152602001828054610d11906128ad565b8015610d5e5780601f10610d3357610100808354040283529160200191610d5e565b820191906000526020600020905b815481529060010190602001808311610d4157829003601f168201915b505050505090806004018054610d73906128ad565b80601f0160208091040260200160405190810160405280929190818152602001828054610d9f906128ad565b8015610dec5780601f10610dc157610100808354040283529160200191610dec565b820191906000526020600020905b815481529060010190602001808311610dcf57829003601f168201915b5050505050905085565b610dfe611b96565b73ffffffffffffffffffffffffffffffffffffffff168173ffffffffffffffffffffffffffffffffffffffff1614610e6b576040517f08c379a0000000000000000000000000000000000000000000000000000000008152600401610e6290612f7a565b60405180910390fd5b610e758282611b9e565b5050565b60007f97cb40d38f4c4db2fe8d633d82729d64ea9d66937b525f8be969cc8b9c0c5d3833604051610eaa9190612460565b60405180910390a1610ebb33610c12565b610efa576040517f08c379a0000000000000000000000000000000000000000000000000000000008152600401610ef190612c8f565b60405180910390fd5b60011515600560009054906101000a900460ff16151514610f50576040517f08c379a0000000000000000000000000000000000000000000000000000000008152600401610f4790612fe6565b60405180910390fd5b6000600560006101000a81548160ff021916908315150217905550600080610f76611fad565b6000600190505b60045481116111f05783600260008381526020019081526020016000206002015411156111b0576002600082815260200190815260200160002060020154935060019250600260008281526020019081526020016000206040518060a001604052908160008201548152602001600182018054610ff9906128ad565b80601f0160208091040260200160405190810160405280929190818152602001828054611025906128ad565b80156110725780601f1061104757610100808354040283529160200191611072565b820191906000526020600020905b81548152906001019060200180831161105557829003601f168201915b5050505050815260200160028201548152602001600382018054611095906128ad565b80601f01602080910402602001604051908101604052809291908181526020018280546110c1906128ad565b801561110e5780601f106110e35761010080835404028352916020019161110e565b820191906000526020600020905b8154815290600101906020018083116110f157829003601f168201915b50505050508152602001600482018054611127906128ad565b80601f0160208091040260200160405190810160405280929190818152602001828054611153906128ad565b80156111a05780601f10611175576101008083540402835291602001916111a0565b820191906000526020600020905b81548152906001019060200180831161118357829003601f168201915b50505050508152505091506111dd565b836002600083815260200190815260200160002060020154036111dc5782806111d890612836565b9350505b5b80806111e890612836565b915050610f7d565b506001821115611244576040518060400160405280600881526020017f506172656767696f0000000000000000000000000000000000000000000000008152506006908161123e9190613006565b50611259565b8060200151600690816112579190613006565b505b6001935050505090565b6007818154811061127357600080fd5b906000526020600020016000915054906101000a900473ffffffffffffffffffffffffffffffffffffffff1681565b6000600560009054906101000a900460ff16905090565b600080600084815260200190815260200160002060000160008373ffffffffffffffffffffffffffffffffffffffff1673ffffffffffffffffffffffffffffffffffffffff16815260200190815260200160002060009054906101000a900460ff16905092915050565b6000801b81565b60016020528060005260406000206000915054906101000a900460ff1681565b60006113767f72c3eec1760bf69946625c2d4fb8e44e2c806345041960b434674fb9ab3976cf836112b9565b9050919050565b7f72c3eec1760bf69946625c2d4fb8e44e2c806345041960b434674fb9ab3976cf81565b7f97cb40d38f4c4db2fe8d633d82729d64ea9d66937b525f8be969cc8b9c0c5d38336040516113d09190612460565b60405180910390a16113e133610c12565b611420576040517f08c379a000000000000000000000000000000000000000000000000000000000815260040161141790612c8f565b60405180910390fd5b600560009054906101000a900460ff1615611470576040517f08c379a00000000000000000000000000000000000000000000000000000000081526004016114679061314a565b60405180910390fd5b6004600081548092919061148390612836565b919050555060006040518060a00160405280600454815260200185815260200160008152602001848152602001838152509050806002600060045481526020019081526020016000206000820151816000015560208201518160010190816114eb9190613006565b5060408201518160020155606082015181600301908161150b9190613006565b5060808201518160040190816115219190613006565b509050507f668b36cfa3dee3c6baed1178eeaad10a25c449fa6c684fd178d84d5887e24124816040516115549190613247565b60405180910390a150505050565b60036020528060005260406000206000915090508054611581906128ad565b80601f01602080910402602001604051908101604052809291908181526020018280546115ad906128ad565b80156115fa5780601f106115cf576101008083540402835291602001916115fa565b820191906000526020600020905b8154815290600101906020018083116115dd57829003601f168201915b505050505081565b60007f97cb40d38f4c4db2fe8d633d82729d64ea9d66937b525f8be969cc8b9c0c5d38336040516116339190612460565b60405180910390a161164433610c12565b611683576040517f08c379a000000000000000000000000000000000000000000000000000000000815260040161167a90612c8f565b60405180910390fd5b60001515600560009054906101000a900460ff161515146116d9576040517f08c379a00000000000000000000000000000000000000000000000000000000081526004016116d0906132b5565b60405180910390fd5b6001600560006101000a81548160ff0219169083151502179055506001905090565b61170482610b3e565b61170d81611aa2565b6117178383611b9e565b505050565b7f97cb40d38f4c4db2fe8d633d82729d64ea9d66937b525f8be969cc8b9c0c5d383360405161174b9190612460565b60405180910390a161175c33610c12565b61179b576040517f08c379a000000000000000000000000000000000000000000000000000000000815260040161179290612c8f565b60405180910390fd5b600560009054906101000a900460ff16156117eb576040517f08c379a00000000000000000000000000000000000000000000000000000000081526004016117e290613347565b60405180910390fd5b60005b60045481101561186157600260008281526020019081526020016000206000808201600090556001820160006118249190611f6d565b600282016000905560038201600061183c9190611f6d565b60048201600061184c9190611f6d565b5050808061185990612836565b9150506117ee565b50600060048190555060405180602001604052806000815250600690816118889190613006565b5060005b6007805490508110156119dc57600060016000600784815481106118b3576118b2613367565b5b9060005260206000200160009054906101000a900473ffffffffffffffffffffffffffffffffffffffff1673ffffffffffffffffffffffffffffffffffffffff1673ffffffffffffffffffffffffffffffffffffffff16815260200190815260200160002060006101000a81548160ff02191690831515021790555060405180602001604052806000815250600360006007848154811061195757611956613367565b5b9060005260206000200160009054906101000a900473ffffffffffffffffffffffffffffffffffffffff1673ffffffffffffffffffffffffffffffffffffffff1673ffffffffffffffffffffffffffffffffffffffff16815260200190815260200160002090816119c89190613006565b5080806119d490612836565b91505061188c565b50606080600790805190602001906119f5929190611fdc565b507f2049354e4844b6f0fe7750f2a9b45ac073a5c47d3a892616425aac4931f844a360405160405180910390a150565b600560009054906101000a900460ff1681565b60007f01ffc9a7000000000000000000000000000000000000000000000000000000007bffffffffffffffffffffffffffffffffffffffffffffffffffffffff1916827bffffffffffffffffffffffffffffffffffffffffffffffffffffffff1916149050919050565b611ab381611aae611b96565b611c7f565b50565b611ac082826112b9565b611b9257600160008084815260200190815260200160002060000160008373ffffffffffffffffffffffffffffffffffffffff1673ffffffffffffffffffffffffffffffffffffffff16815260200190815260200160002060006101000a81548160ff021916908315150217905550611b37611b96565b73ffffffffffffffffffffffffffffffffffffffff168173ffffffffffffffffffffffffffffffffffffffff16837f2f8788117e7eff1d82e926ec794901d17c78024a50270940304540a733656f0d60405160405180910390a45b5050565b600033905090565b611ba882826112b9565b15611c7b57600080600084815260200190815260200160002060000160008373ffffffffffffffffffffffffffffffffffffffff1673ffffffffffffffffffffffffffffffffffffffff16815260200190815260200160002060006101000a81548160ff021916908315150217905550611c20611b96565b73ffffffffffffffffffffffffffffffffffffffff168173ffffffffffffffffffffffffffffffffffffffff16837ff6391f5c32d9c69d2a47ea670b442974b53935d1edc7fd64eb21e047a839171b60405160405180910390a45b5050565b611c8982826112b9565b611d0057611c9681611d04565b611ca48360001c6020611d31565b604051602001611cb592919061346a565b6040516020818303038152906040526040517f08c379a0000000000000000000000000000000000000000000000000000000008152600401611cf791906122d2565b60405180910390fd5b5050565b6060611d2a8273ffffffffffffffffffffffffffffffffffffffff16601460ff16611d31565b9050919050565b606060006002836002611d4491906134a4565b611d4e9190612dd6565b67ffffffffffffffff811115611d6757611d66612485565b5b6040519080825280601f01601f191660200182016040528015611d995781602001600182028036833780820191505090505b5090507f300000000000000000000000000000000000000000000000000000000000000081600081518110611dd157611dd0613367565b5b60200101907effffffffffffffffffffffffffffffffffffffffffffffffffffffffffffff1916908160001a9053507f780000000000000000000000000000000000000000000000000000000000000081600181518110611e3557611e34613367565b5b60200101907effffffffffffffffffffffffffffffffffffffffffffffffffffffffffffff1916908160001a90535060006001846002611e7591906134a4565b611e7f9190612dd6565b90505b6001811115611f1f577f3031323334353637383961626364656600000000000000000000000000000000600f861660108110611ec157611ec0613367565b5b1a60f81b828281518110611ed857611ed7613367565b5b60200101907effffffffffffffffffffffffffffffffffffffffffffffffffffffffffffff1916908160001a905350600485901c945080611f1890612dad565b9050611e82565b5060008414611f63576040517f08c379a0000000000000000000000000000000000000000000000000000000008152600401611f5a90613532565b60405180910390fd5b8091505092915050565b508054611f79906128ad565b6000825580601f10611f8b5750611faa565b601f016020900490600052602060002090810190611fa99190612066565b5b50565b6040518060a0016040528060008152602001606081526020016000815260200160608152602001606081525090565b828054828255906000526020600020908101928215612055579160200282015b828111156120545782518260006101000a81548173ffffffffffffffffffffffffffffffffffffffff021916908373ffffffffffffffffffffffffffffffffffffffff16021790555091602001919060010190611ffc565b5b5090506120629190612066565b5090565b5b8082111561207f576000816000905550600101612067565b5090565b6000604051905090565b600080fd5b600080fd5b6000819050919050565b6120aa81612097565b81146120b557600080fd5b50565b6000813590506120c7816120a1565b92915050565b6000602082840312156120e3576120e261208d565b5b60006120f1848285016120b8565b91505092915050565b60007fffffffff0000000000000000000000000000000000000000000000000000000082169050919050565b61212f816120fa565b811461213a57600080fd5b50565b60008135905061214c81612126565b92915050565b6000602082840312156121685761216761208d565b5b60006121768482850161213d565b91505092915050565b60008115159050919050565b6121948161217f565b82525050565b60006020820190506121af600083018461218b565b92915050565b6000819050919050565b6121c8816121b5565b81146121d357600080fd5b50565b6000813590506121e5816121bf565b92915050565b6000602082840312156122015761220061208d565b5b600061220f848285016121d6565b91505092915050565b612221816121b5565b82525050565b600060208201905061223c6000830184612218565b92915050565b600081519050919050565b600082825260208201905092915050565b60005b8381101561227c578082015181840152602081019050612261565b60008484015250505050565b6000601f19601f8301169050919050565b60006122a482612242565b6122ae818561224d565b93506122be81856020860161225e565b6122c781612288565b840191505092915050565b600060208201905081810360008301526122ec8184612299565b905092915050565b6122fd81612097565b82525050565b600060208201905061231860008301846122f4565b92915050565b600073ffffffffffffffffffffffffffffffffffffffff82169050919050565b60006123498261231e565b9050919050565b6123598161233e565b811461236457600080fd5b50565b60008135905061237681612350565b92915050565b600080604083850312156123935761239261208d565b5b60006123a1858286016121d6565b92505060206123b285828601612367565b9150509250929050565b6000602082840312156123d2576123d161208d565b5b60006123e084828501612367565b91505092915050565b600060a0820190506123fe60008301886122f4565b81810360208301526124108187612299565b905061241f60408301866122f4565b81810360608301526124318185612299565b905081810360808301526124458184612299565b90509695505050505050565b61245a8161233e565b82525050565b60006020820190506124756000830184612451565b92915050565b600080fd5b600080fd5b7f4e487b7100000000000000000000000000000000000000000000000000000000600052604160045260246000fd5b6124bd82612288565b810181811067ffffffffffffffff821117156124dc576124db612485565b5b80604052505050565b60006124ef612083565b90506124fb82826124b4565b919050565b600067ffffffffffffffff82111561251b5761251a612485565b5b61252482612288565b9050602081019050919050565b82818337600083830152505050565b600061255361254e84612500565b6124e5565b90508281526020810184848401111561256f5761256e612480565b5b61257a848285612531565b509392505050565b600082601f8301126125975761259661247b565b5b81356125a7848260208601612540565b91505092915050565b6000806000606084860312156125c9576125c861208d565b5b600084013567ffffffffffffffff8111156125e7576125e6612092565b5b6125f386828701612582565b935050602084013567ffffffffffffffff81111561261457612613612092565b5b61262086828701612582565b925050604084013567ffffffffffffffff81111561264157612640612092565b5b61264d86828701612582565b9150509250925092565b7f46756e7a696f6e6520736f6c6f2070657220676c6920656c6574746f72690000600082015250565b600061268d601e8361224d565b915061269882612657565b602082019050919050565b600060208201905081810360008301526126bc81612680565b9050919050565b7f456c657a696f6e69207465726d696e6174650000000000000000000000000000600082015250565b60006126f960128361224d565b9150612704826126c3565b602082019050919050565b60006020820190508181036000830152612728816126ec565b9050919050565b7f4861692067696120766f7461746f000000000000000000000000000000000000600082015250565b6000612765600e8361224d565b91506127708261272f565b602082019050919050565b6000602082019050818103600083015261279481612758565b9050919050565b7f696c2063616e64696461746f207363656c746f206e6f6e206573697374650000600082015250565b60006127d1601e8361224d565b91506127dc8261279b565b602082019050919050565b60006020820190508181036000830152612800816127c4565b9050919050565b7f4e487b7100000000000000000000000000000000000000000000000000000000600052601160045260246000fd5b600061284182612097565b91507fffffffffffffffffffffffffffffffffffffffffffffffffffffffffffffffff820361287357612872612807565b5b600182019050919050565b7f4e487b7100000000000000000000000000000000000000000000000000000000600052602260045260246000fd5b600060028204905060018216806128c557607f821691505b6020821081036128d8576128d761287e565b5b50919050565b6000815490506128ed816128ad565b9050919050565b60008190508160005260206000209050919050565b60008190508160005260206000209050919050565b60006020601f8301049050919050565b600082821b905092915050565b60006008830261296b7fffffffffffffffffffffffffffffffffffffffffffffffffffffffffffffffff8261292e565b612975868361292e565b95508019841693508086168417925050509392505050565b6000819050919050565b60006129b26129ad6129a884612097565b61298d565b612097565b9050919050565b6000819050919050565b6129cc83612997565b6129e06129d8826129b9565b84845461293b565b825550505050565b600090565b6129f56129e8565b612a008184846129c3565b505050565b5b81811015612a2457612a196000826129ed565b600181019050612a06565b5050565b601f821115612a6957612a3a816128f4565b612a438461291e565b81016020851015612a52578190505b612a66612a5e8561291e565b830182612a05565b50505b505050565b600082821c905092915050565b6000612a8c60001984600802612a6e565b1980831691505092915050565b6000612aa58383612a7b565b9150826002028217905092915050565b818103612ac3575050612b9b565b612acc826128de565b67ffffffffffffffff811115612ae557612ae4612485565b5b612aef82546128ad565b612afa828285612a28565b6000601f831160018114612b295760008415612b17578287015490505b612b218582612a99565b865550612b94565b601f198416612b3787612909565b9650612b42866128f4565b60005b82811015612b6a57848901548255600182019150600185019450602081019050612b45565b86831015612b875784890154612b83601f891682612a7b565b8355505b6001600288020188555050505b5050505050505b565b60008154612baa816128ad565b612bb4818661224d565b94506001821660008114612bcf5760018114612be557612c18565b60ff198316865281151560200286019350612c18565b612bee856128f4565b60005b83811015612c1057815481890152600182019150602081019050612bf1565b808801955050505b50505092915050565b60006020820190508181036000830152612c3b8184612b9d565b905092915050565b7f46756e7a696f6e6520736f6c6f2070657220696c2070726f706965746172696f600082015250565b6000612c7960208361224d565b9150612c8482612c43565b602082019050919050565b60006020820190508181036000830152612ca881612c6c565b9050919050565b7f456c657a696f6e69206170657274652c20696d706f73736962696c652072696d60008201527f756f7665726520756e2063616e64696461746f00000000000000000000000000602082015250565b6000612d0b60338361224d565b9150612d1682612caf565b604082019050919050565b60006020820190508181036000830152612d3a81612cfe565b9050919050565b7f49642063616e64696461746f206e6f6e2076616c69646f210000000000000000600082015250565b6000612d7760188361224d565b9150612d8282612d41565b602082019050919050565b60006020820190508181036000830152612da681612d6a565b9050919050565b6000612db882612097565b915060008203612dcb57612dca612807565b5b600182039050919050565b6000612de182612097565b9150612dec83612097565b9250828201905080821115612e0457612e03612807565b5b92915050565b600081549050612e19816128ad565b9050919050565b818103612e2e575050612f06565b612e3782612e0a565b67ffffffffffffffff811115612e5057612e4f612485565b5b612e5a82546128ad565b612e65828285612a28565b6000601f831160018114612e945760008415612e82578287015490505b612e8c8582612a99565b865550612eff565b601f198416612ea2876128f4565b9650612ead866128f4565b60005b82811015612ed557848901548255600182019150600185019450602081019050612eb0565b86831015612ef25784890154612eee601f891682612a7b565b8355505b6001600288020188555050505b5050505050505b565b7f416363657373436f6e74726f6c3a2063616e206f6e6c792072656e6f756e636560008201527f20726f6c657320666f722073656c660000000000000000000000000000000000602082015250565b6000612f64602f8361224d565b9150612f6f82612f08565b604082019050919050565b60006020820190508181036000830152612f9381612f57565b9050919050565b7f456c657a696f6e65206769612063686975736121000000000000000000000000600082015250565b6000612fd060148361224d565b9150612fdb82612f9a565b602082019050919050565b60006020820190508181036000830152612fff81612fc3565b9050919050565b61300f82612242565b67ffffffffffffffff81111561302857613027612485565b5b61303282546128ad565b61303d828285612a28565b600060209050601f831160018114613070576000841561305e578287015190505b6130688582612a99565b8655506130d0565b601f19841661307e866128f4565b60005b828110156130a657848901518255600182019150602085019450602081019050613081565b868310156130c357848901516130bf601f891682612a7b565b8355505b6001600288020188555050505b505050505050565b7f456c657a696f6e69206170657274652c20696d706f73736962696c652061676760008201527f69756e6765726520696c2063616e64696461746f210000000000000000000000602082015250565b600061313460358361224d565b915061313f826130d8565b604082019050919050565b6000602082019050818103600083015261316381613127565b9050919050565b61317381612097565b82525050565b600082825260208201905092915050565b600061319582612242565b61319f8185613179565b93506131af81856020860161225e565b6131b881612288565b840191505092915050565b600060a0830160008301516131db600086018261316a565b50602083015184820360208601526131f3828261318a565b9150506040830151613208604086018261316a565b5060608301518482036060860152613220828261318a565b9150506080830151848203608086015261323a828261318a565b9150508091505092915050565b6000602082019050818103600083015261326181846131c3565b905092915050565b7f456c657a696f6e65206769612061706572746121000000000000000000000000600082015250565b600061329f60148361224d565b91506132aa82613269565b602082019050919050565b600060208201905081810360008301526132ce81613292565b9050919050565b7f456c657a696f6e69206170657274652c20696d706f73736962696c652072696d60008201527f756f7665726520692063616e6469646174690000000000000000000000000000602082015250565b600061333160328361224d565b915061333c826132d5565b604082019050919050565b6000602082019050818103600083015261336081613324565b9050919050565b7f4e487b7100000000000000000000000000000000000000000000000000000000600052603260045260246000fd5b600081905092915050565b7f416363657373436f6e74726f6c3a206163636f756e7420000000000000000000600082015250565b60006133d7601783613396565b91506133e2826133a1565b601782019050919050565b60006133f882612242565b6134028185613396565b935061341281856020860161225e565b80840191505092915050565b7f206973206d697373696e6720726f6c6520000000000000000000000000000000600082015250565b6000613454601183613396565b915061345f8261341e565b601182019050919050565b6000613475826133ca565b915061348182856133ed565b915061348c82613447565b915061349882846133ed565b91508190509392505050565b60006134af82612097565b91506134ba83612097565b92508282026134c881612097565b915082820484148315176134df576134de612807565b5b5092915050565b7f537472696e67733a20686578206c656e67746820696e73756666696369656e74600082015250565b600061351c60208361224d565b9150613527826134e6565b602082019050919050565b6000602082019050818103600083015261354b8161350f565b905091905056fea2646970667358221220842b797d32f144c3604e0821da676c44b7eb6eca68dbb2c58b22366be701158064736f6c6343000811003368747470733a2f2f7777772e6d6574726f706f6c69737765622e69742f6d6574726f706f6c69737765622f6e6577732f77702d636f6e74656e742f75706c6f6164732f73697465732f322f323032332f30312f6d657373696e612d2e6a706768747470733a2f2f692e706f7374696d672e63632f6a354e38763634512f7669676e657474652d646976657274656e74692d656c657a696f6e692d67696f726769612d6d656c6f6e692e6a706768747470733a2f2f6769746875622e636f6d2f6d6174746472352f53696d706c65452d566f74696e6753797374656d2f626c6f622f6d61696e2f7372632f696d616765732f63617264616e6f2e6a70673f7261773d74727565",
  "immutableReferences": {},
  "source": "// SPDX-License-Identifier: MIT\r\npragma solidity ^0.8.0;\r\n\r\nimport \"@openzeppelin/contracts/access/AccessControl.sol\";\r\n\r\n\r\ncontract Election is AccessControl {\r\n\r\n    bytes32 public constant VOTER_ROLE = keccak256(\"VOTER_ROLE\");\r\n\r\n    // Model a Candidate\r\n    struct Candidate {\r\n        uint id;\r\n        string name;\r\n        uint voteCount;\r\n        string partyShortcut;\r\n        string partyFlag;\r\n    }\r\n\r\n\r\n    event votedEvent (\r\n        uint indexed _candidateId,  string candidateName\r\n    );\r\n    event checksoloOwner(address user);\r\n    event ChecksoloVoter(address user);\r\n    event removedCandidateEvent (uint indexed _candidateId);\r\n    event CandidatoAggiunto(Candidate candidato);\r\n    event resetElectionEvent();\r\n\r\n\r\n    // Store accounts that have voted\r\n    mapping(address => bool) public voters;\r\n    // Read/write candidates\r\n    mapping(uint => Candidate) public candidates;\r\n    mapping(address => string) public candidateVoted;\r\n\r\n    \r\n    // Store Candidates Count\r\n    uint public candidatesCount;\r\n    bool public open; //Mostra se un'elezione  aperta o chiusa\r\n    string public risultatoElezione; //Risultato elezione \"Pareggio\" o \"Nome candidato\"\r\n    address[] public listaVotanti;\r\n    \r\n    constructor (){\r\n        _setupRole(DEFAULT_ADMIN_ROLE, msg.sender);\r\n        candidatesCount = 0;\r\n        risultatoElezione = \"\";\r\n        inizializzaDatabaseCandidati();\r\n        setVotersRole();\r\n        open = true; //Inizialmente elezione predefinita aperta\r\n    }\r\n\r\n\r\n    function addCandidate (string memory nome, string memory partito, string memory logo) public soloOwner {\r\n        require(!open, \"Elezioni aperte, impossibile aggiungere il candidato!\");\r\n        candidatesCount ++;\r\n        Candidate memory candidato = Candidate(candidatesCount, nome, 0, partito, logo);\r\n        candidates[candidatesCount] = candidato;\r\n        emit CandidatoAggiunto(candidato);\r\n    }\r\n\r\n    function removeCandidate(uint _candidateId) public soloOwner {\r\n        require(!open, \"Elezioni aperte, impossibile rimuovere un candidato\");\r\n        require(_candidateId > 0 && _candidateId <= candidatesCount, \"Id candidato non valido!\");\r\n        delete candidates[_candidateId];\r\n        candidatesCount--;\r\n        // Shift the candidates' ids down by one starting from the removed candidate's id\r\n        for (uint i = _candidateId; i <= candidatesCount; i++) {\r\n            candidates[i] = candidates[i+1];\r\n        }\r\n        delete candidates[candidatesCount+1];\r\n        emit removedCandidateEvent(_candidateId);\r\n\r\n    }\r\n\r\n    function resetElection() public soloOwner {\r\n        require(!open, \"Elezioni aperte, impossibile rimuovere i candidati\");\r\n        //Rimuovo io\r\n        for (uint i = 0; i < candidatesCount; i++) {\r\n            delete candidates[i];\r\n        }\r\n        candidatesCount = 0;\r\n        risultatoElezione = \"\";\r\n        \r\n\r\n        for (uint i = 0; i < listaVotanti.length; i++ ){\r\n            voters[listaVotanti[i]] = false; //Reset voti\r\n            candidateVoted[listaVotanti[i]] = \"\"; //Reset canidati votati\r\n        }\r\n\r\n        //Reset lista votanti\r\n        address[] memory newListaVotanti;\r\n        listaVotanti = newListaVotanti;\r\n        emit resetElectionEvent();\r\n    }\r\n\r\n    function openElection() public soloOwner returns (bool){\r\n        require(open == false, \"Elezione gia aperta!\"); //Se l'elezione  chiusa..\r\n        open = true;\r\n        return true; //Operazione riuscita!\r\n    }\r\n\r\n    function closeElection() public soloOwner returns (bool){\r\n        require(open == true, \"Elezione gia chiusa!\"); //Se l'elezione  aperta..\r\n        open = false;\r\n\r\n        uint maxVotes = 0;\r\n        uint countMaxVotes = 0;\r\n        Candidate memory candidatoVincitore;\r\n        for (uint i = 1; i <= candidatesCount; i++) {\r\n            if(candidates[i].voteCount > maxVotes){\r\n                maxVotes = candidates[i].voteCount;\r\n                countMaxVotes = 1;\r\n                candidatoVincitore = candidates[i];\r\n            }else if(candidates[i].voteCount == maxVotes){\r\n                countMaxVotes++;\r\n            }\r\n        }\r\n        if(countMaxVotes > 1){\r\n            risultatoElezione = \"Pareggio\";\r\n        }\r\n        else{\r\n            risultatoElezione = candidatoVincitore.name;\r\n        }\r\n\r\n        return true; //Operazione riuscita! \r\n    }\r\n\r\n    function isElectionOpen() public virtual view returns (bool){\r\n        return open;\r\n    }\r\n\r\n    modifier soloOwner() {\r\n      emit checksoloOwner(msg.sender);\r\n      require(isOwner(msg.sender), \"Funzione solo per il propietario\");\r\n      _;\r\n    }\r\n\r\n    modifier soloVoter() {\r\n      emit ChecksoloVoter(msg.sender);\r\n      require(isVoter(msg.sender), \"Funzione solo per gli elettori\");\r\n      _;\r\n    }\r\n    function isOwner(address account) public virtual view returns (bool) {\r\n      return hasRole(DEFAULT_ADMIN_ROLE, account);\r\n    }\r\n\r\n    function isVoter(address account) public virtual view returns (bool) {\r\n      return hasRole(VOTER_ROLE, account);\r\n    }\r\n\r\n    function vote (uint _candidateId) public soloVoter {\r\n\r\n        require(open, \"Elezioni terminate\");\r\n        // Requisiti per il votante\r\n        require(!voters[msg.sender], \"Hai gia votato\");\r\n\r\n        // Requisiti per un candidato\r\n        require(_candidateId > 0 && _candidateId <= candidatesCount, \"il candidato scelto non esiste\");\r\n\r\n        // Ricordo che chi vota non pu pi votare\r\n        voters[msg.sender] = true;\r\n\r\n        // Aggiorno il voto del candidato\r\n        candidates[_candidateId].voteCount++;\r\n\r\n        // Aggiornamento del candidato votato!\r\n        candidateVoted[msg.sender] = candidates[_candidateId].name;\r\n\r\n        // Aggiornamento della lista dei votanti!\r\n        listaVotanti.push(msg.sender);\r\n        \r\n        // lancio evento voto\r\n        emit votedEvent(_candidateId,  candidates[_candidateId].name);\r\n    }\r\n\r\n    /**\r\n     * Inizializza i candidati\r\n     */\r\n    function inizializzaDatabaseCandidati() internal {\r\n        Candidate memory candidate_1= Candidate({\r\n            id: 1,\r\n            name: \"Giorgia Meloni\",\r\n            voteCount: 0,\r\n            partyShortcut: \"FDI\",\r\n            partyFlag: \"https://i.postimg.cc/j5N8v64Q/vignette-divertenti-elezioni-giorgia-meloni.jpg\"\r\n            \r\n        });\r\n        Candidate memory candidate_2 = Candidate({\r\n            id: 2,\r\n            name: \"Matteo Della Rocca\",\r\n            voteCount: 0,\r\n            partyShortcut: \"Freedom\",\r\n            partyFlag: \"./images/mdr-colorato.jpg\"\r\n            \r\n        });\r\n        Candidate memory candidate_3 = Candidate({\r\n            id: 3,\r\n            name: \"Carmine D'Angelo\",\r\n            voteCount: 0,\r\n            partyShortcut: \"NCO\",\r\n            partyFlag: \"https://github.com/mattdr5/SimpleE-VotingSystem/blob/main/src/images/cardano.jpg?raw=true\"\r\n        });\r\n        Candidate memory candidate_4 = Candidate({\r\n            id: 4,\r\n            name: \"Matteo Messina Denaro\",\r\n            voteCount: 0,\r\n            partyShortcut: \"MAFIA\",\r\n            partyFlag: \"https://www.metropolisweb.it/metropolisweb/news/wp-content/uploads/sites/2/2023/01/messina-.jpg\"\r\n        });\r\n\r\n        candidatesCount ++;\r\n        candidates[candidatesCount] = Candidate(candidatesCount, candidate_1.name, candidate_1.voteCount, candidate_1.partyShortcut, candidate_1.partyFlag);\r\n        candidatesCount ++;\r\n        candidates[candidatesCount] = Candidate(candidatesCount, candidate_2.name,  candidate_2.voteCount, candidate_2.partyShortcut, candidate_2.partyFlag);\r\n        candidatesCount ++;\r\n        candidates[candidatesCount] = Candidate(candidatesCount, candidate_3.name, candidate_3.voteCount, candidate_3.partyShortcut, candidate_3.partyFlag);\r\n        candidatesCount ++;\r\n        candidates[candidatesCount] = Candidate(candidatesCount ,candidate_4.name, candidate_4.voteCount, candidate_4.partyShortcut, candidate_4.partyFlag);\r\n\r\n   \r\n    }\r\n\r\n    function setVotersRole() internal {\r\n        _setupRole(VOTER_ROLE, 0x1a8F33524Ac8642f2a8aF58444354Cd7dE75DcDa);\r\n        _setupRole(VOTER_ROLE, 0xC7e1f5a46f4ea402242a01215C92Fa05040Aa3C5);\r\n        _setupRole(VOTER_ROLE, 0x3BA20119f0F6f4bCF30E570CFDf4fb8082f982b8);\r\n        _setupRole(VOTER_ROLE, 0x6b543d4B4B411dbe3373f31E002c85eC7285f81C);\r\n        _setupRole(VOTER_ROLE, 0xb0950983E2972c6ee556414Eb9843A002c83f55D);\r\n        _setupRole(VOTER_ROLE, 0xed778A60005FE6545b16668271184c3649E7B405);\r\n        _setupRole(VOTER_ROLE, 0x8cf71Aa476700f12AE3C61E99bF143dcd833A97D);\r\n        _setupRole(VOTER_ROLE, 0x5083b9406b017ae080229a91978F079A126e875D);\r\n        _setupRole(VOTER_ROLE, 0x2f85Bd106166D9964f15B0D432F65Fd4b373412A);\r\n    }\r\n}\r\n\r\n    ",
  "sourcePath": "C:\\Users\\della\\OneDrive\\Desktop\\SimpleE-VotingSystem\\SimpleE-VotingSystem\\contracts\\Election.sol",
  "compiler": {
    "name": "solc",
    "version": "0.8.17+commit.8df45f5f.Emscripten.clang"
  },
  "schemaVersion": "3.4.11",
  "updatedAt": "2023-02-10T09:20:34.344Z",
  "networkType": "ethereum",
  "devdoc": {
    "kind": "dev",
    "methods": {
      "getRoleAdmin(bytes32)": {
        "details": "Returns the admin role that controls `role`. See {grantRole} and {revokeRole}. To change a role's admin, use {_setRoleAdmin}."
      },
      "grantRole(bytes32,address)": {
        "details": "Grants `role` to `account`. If `account` had not been already granted `role`, emits a {RoleGranted} event. Requirements: - the caller must have ``role``'s admin role. May emit a {RoleGranted} event."
      },
      "hasRole(bytes32,address)": {
        "details": "Returns `true` if `account` has been granted `role`."
      },
      "renounceRole(bytes32,address)": {
        "details": "Revokes `role` from the calling account. Roles are often managed via {grantRole} and {revokeRole}: this function's purpose is to provide a mechanism for accounts to lose their privileges if they are compromised (such as when a trusted device is misplaced). If the calling account had been revoked `role`, emits a {RoleRevoked} event. Requirements: - the caller must be `account`. May emit a {RoleRevoked} event."
      },
      "revokeRole(bytes32,address)": {
        "details": "Revokes `role` from `account`. If `account` had been granted `role`, emits a {RoleRevoked} event. Requirements: - the caller must have ``role``'s admin role. May emit a {RoleRevoked} event."
      },
      "supportsInterface(bytes4)": {
        "details": "See {IERC165-supportsInterface}."
      }
    },
    "version": 1
  },
  "userdoc": {
    "kind": "user",
    "methods": {},
    "version": 1
  }
}