{
  "contractName": "Election",
  "abi": [
    {
      "inputs": [],
      "stateMutability": "nonpayable",
      "type": "constructor"
    },
    {
      "anonymous": false,
      "inputs": [
        {
          "indexed": true,
          "internalType": "uint256",
          "name": "_candidateId",
          "type": "uint256"
        },
        {
          "indexed": false,
          "internalType": "string",
          "name": "candidateName",
          "type": "string"
        }
      ],
      "name": "votedEvent",
      "type": "event"
    },
    {
      "inputs": [
        {
          "internalType": "address",
          "name": "",
          "type": "address"
        }
      ],
      "name": "candidateVoted",
      "outputs": [
        {
          "internalType": "string",
          "name": "",
          "type": "string"
        }
      ],
      "stateMutability": "view",
      "type": "function",
      "constant": true
    },
    {
      "inputs": [
        {
          "internalType": "uint256",
          "name": "",
          "type": "uint256"
        }
      ],
      "name": "candidates",
      "outputs": [
        {
          "internalType": "uint256",
          "name": "id",
          "type": "uint256"
        },
        {
          "internalType": "string",
          "name": "name",
          "type": "string"
        },
        {
          "internalType": "uint256",
          "name": "voteCount",
          "type": "uint256"
        },
        {
          "internalType": "string",
          "name": "partyShortcut",
          "type": "string"
        },
        {
          "internalType": "string",
          "name": "partyFlag",
          "type": "string"
        }
      ],
      "stateMutability": "view",
      "type": "function",
      "constant": true
    },
    {
      "inputs": [],
      "name": "candidatesCount",
      "outputs": [
        {
          "internalType": "uint256",
          "name": "",
          "type": "uint256"
        }
      ],
      "stateMutability": "view",
      "type": "function",
      "constant": true
    },
    {
      "inputs": [
        {
          "internalType": "address",
          "name": "",
          "type": "address"
        }
      ],
      "name": "voters",
      "outputs": [
        {
          "internalType": "bool",
          "name": "",
          "type": "bool"
        }
      ],
      "stateMutability": "view",
      "type": "function",
      "constant": true
    },
    {
      "inputs": [
        {
          "internalType": "uint256",
          "name": "_candidateId",
          "type": "uint256"
        }
      ],
      "name": "getCandidateNameFromID",
      "outputs": [
        {
          "internalType": "string",
          "name": "_name",
          "type": "string"
        }
      ],
      "stateMutability": "nonpayable",
      "type": "function"
    },
    {
      "inputs": [
        {
          "internalType": "uint256",
          "name": "_candidateId",
          "type": "uint256"
        }
      ],
      "name": "vote",
      "outputs": [],
      "stateMutability": "nonpayable",
      "type": "function"
    }
  ],
  "bytecode": "0x60806040523480156200001157600080fd5b50620000226200002860201b60201c565b620007d6565b60006040518060a00160405280600181526020016040518060400160405280600e81526020017f47696f72676961204d656c6f6e690000000000000000000000000000000000008152508152602001600081526020016040518060400160405280600381526020017f464449000000000000000000000000000000000000000000000000000000000081525081526020016040518060800160405280604d81526020016200159a604d9139815250905060006040518060a00160405280600281526020016040518060400160405280600c81526020017f4d617474656f2052656e7a6900000000000000000000000000000000000000008152508152602001600081526020016040518060400160405280600281526020017f49560000000000000000000000000000000000000000000000000000000000008152508152602001604051806080016040528060458152602001620015e760459139815250905060006040518060a00160405280600381526020016040518060400160405280600c81526020017f446f6e616c64205472756d7000000000000000000000000000000000000000008152508152602001600081526020016040518060400160405280600381526020017f525042000000000000000000000000000000000000000000000000000000000081525081526020016040518060600160405280603a81526020016200162c603a9139815250905060006040518060a00160405280600481526020016040518060400160405280601581526020017f4d617474656f204d657373696e612044656e61726f00000000000000000000008152508152602001600081526020016040518060400160405280600581526020017f4d4146494100000000000000000000000000000000000000000000000000000081525081526020016040518060800160405280605f81526020016200153b605f91398152509050620002f9846200033260201b60201c565b6200030a836200033260201b60201c565b6200031b826200033260201b60201c565b6200032c816200033260201b60201c565b50505050565b60036000815480929190620003479062000432565b91905055506040518060a0016040528060035481526020018260200151815260200160008152602001826060015181526020018260800151815250600160006003548152602001908152602001600020600082015181600001556020820151816001019081620003b89190620006ef565b50604082015181600201556060820151816003019081620003da9190620006ef565b506080820151816004019081620003f29190620006ef565b5090505050565b7f4e487b7100000000000000000000000000000000000000000000000000000000600052601160045260246000fd5b6000819050919050565b60006200043f8262000428565b91507fffffffffffffffffffffffffffffffffffffffffffffffffffffffffffffffff8203620004745762000473620003f9565b5b600182019050919050565b600081519050919050565b7f4e487b7100000000000000000000000000000000000000000000000000000000600052604160045260246000fd5b7f4e487b7100000000000000000000000000000000000000000000000000000000600052602260045260246000fd5b600060028204905060018216806200050157607f821691505b602082108103620005175762000516620004b9565b5b50919050565b60008190508160005260206000209050919050565b60006020601f8301049050919050565b600082821b905092915050565b600060088302620005817fffffffffffffffffffffffffffffffffffffffffffffffffffffffffffffffff8262000542565b6200058d868362000542565b95508019841693508086168417925050509392505050565b6000819050919050565b6000620005d0620005ca620005c48462000428565b620005a5565b62000428565b9050919050565b6000819050919050565b620005ec83620005af565b62000604620005fb82620005d7565b8484546200054f565b825550505050565b600090565b6200061b6200060c565b62000628818484620005e1565b505050565b5b8181101562000650576200064460008262000611565b6001810190506200062e565b5050565b601f8211156200069f5762000669816200051d565b620006748462000532565b8101602085101562000684578190505b6200069c620006938562000532565b8301826200062d565b50505b505050565b600082821c905092915050565b6000620006c460001984600802620006a4565b1980831691505092915050565b6000620006df8383620006b1565b9150826002028217905092915050565b620006fa826200047f565b67ffffffffffffffff8111156200071657620007156200048a565b5b620007228254620004e8565b6200072f82828562000654565b600060209050601f83116001811462000767576000841562000752578287015190505b6200075e8582620006d1565b865550620007ce565b601f19841662000777866200051d565b60005b82811015620007a1578489015182556001820191506020850194506020810190506200077a565b86831015620007c15784890151620007bd601f891682620006b1565b8355505b6001600288020188555050505b505050505050565b610d5580620007e66000396000f3fe608060405234801561001057600080fd5b50600436106100625760003560e01c80630121b93f146100675780632d35a8a2146100835780633477ee2e146100a157806357928b42146100d5578063a3ec138d14610105578063b33c8dfa14610135575b600080fd5b610081600480360381019061007c9190610682565b610165565b005b61008b61030b565b60405161009891906106be565b60405180910390f35b6100bb60048036038101906100b69190610682565b610311565b6040516100cc959493929190610769565b60405180910390f35b6100ef60048036038101906100ea9190610682565b6104df565b6040516100fc91906107d1565b60405180910390f35b61011f600480360381019061011a9190610851565b610587565b60405161012c9190610899565b60405180910390f35b61014f600480360381019061014a9190610851565b6105a7565b60405161015c91906107d1565b60405180910390f35b6000803373ffffffffffffffffffffffffffffffffffffffff1673ffffffffffffffffffffffffffffffffffffffff16815260200190815260200160002060009054906101000a900460ff16156101bb57600080fd5b6000811180156101cd57506003548111155b6101d657600080fd5b60016000803373ffffffffffffffffffffffffffffffffffffffff1673ffffffffffffffffffffffffffffffffffffffff16815260200190815260200160002060006101000a81548160ff021916908315150217905550600160008281526020019081526020016000206002016000815480929190610254906108e3565b919050555060016000828152602001908152602001600020600101600260003373ffffffffffffffffffffffffffffffffffffffff1673ffffffffffffffffffffffffffffffffffffffff16815260200190815260200160002090816102ba9190610b91565b50807f979840814b99e27d10388b0f146721af580825d27335aaf4e683f78f56be49c2600160008481526020019081526020016000206001016040516103009190610cfd565b60405180910390a250565b60035481565b600160205280600052604060002060009150905080600001549080600101805461033a9061095a565b80601f01602080910402602001604051908101604052809291908181526020018280546103669061095a565b80156103b35780601f10610388576101008083540402835291602001916103b3565b820191906000526020600020905b81548152906001019060200180831161039657829003601f168201915b5050505050908060020154908060030180546103ce9061095a565b80601f01602080910402602001604051908101604052809291908181526020018280546103fa9061095a565b80156104475780601f1061041c57610100808354040283529160200191610447565b820191906000526020600020905b81548152906001019060200180831161042a57829003601f168201915b50505050509080600401805461045c9061095a565b80601f01602080910402602001604051908101604052809291908181526020018280546104889061095a565b80156104d55780601f106104aa576101008083540402835291602001916104d5565b820191906000526020600020905b8154815290600101906020018083116104b857829003601f168201915b5050505050905085565b60606001600083815260200190815260200160002060010180546105029061095a565b80601f016020809104026020016040519081016040528092919081815260200182805461052e9061095a565b801561057b5780601f106105505761010080835404028352916020019161057b565b820191906000526020600020905b81548152906001019060200180831161055e57829003601f168201915b50505050509050919050565b60006020528060005260406000206000915054906101000a900460ff1681565b600260205280600052604060002060009150905080546105c69061095a565b80601f01602080910402602001604051908101604052809291908181526020018280546105f29061095a565b801561063f5780601f106106145761010080835404028352916020019161063f565b820191906000526020600020905b81548152906001019060200180831161062257829003601f168201915b505050505081565b600080fd5b6000819050919050565b61065f8161064c565b811461066a57600080fd5b50565b60008135905061067c81610656565b92915050565b60006020828403121561069857610697610647565b5b60006106a68482850161066d565b91505092915050565b6106b88161064c565b82525050565b60006020820190506106d360008301846106af565b92915050565b600081519050919050565b600082825260208201905092915050565b60005b838110156107135780820151818401526020810190506106f8565b60008484015250505050565b6000601f19601f8301169050919050565b600061073b826106d9565b61074581856106e4565b93506107558185602086016106f5565b61075e8161071f565b840191505092915050565b600060a08201905061077e60008301886106af565b81810360208301526107908187610730565b905061079f60408301866106af565b81810360608301526107b18185610730565b905081810360808301526107c58184610730565b90509695505050505050565b600060208201905081810360008301526107eb8184610730565b905092915050565b600073ffffffffffffffffffffffffffffffffffffffff82169050919050565b600061081e826107f3565b9050919050565b61082e81610813565b811461083957600080fd5b50565b60008135905061084b81610825565b92915050565b60006020828403121561086757610866610647565b5b60006108758482850161083c565b91505092915050565b60008115159050919050565b6108938161087e565b82525050565b60006020820190506108ae600083018461088a565b92915050565b7f4e487b7100000000000000000000000000000000000000000000000000000000600052601160045260246000fd5b60006108ee8261064c565b91507fffffffffffffffffffffffffffffffffffffffffffffffffffffffffffffffff82036109205761091f6108b4565b5b600182019050919050565b7f4e487b7100000000000000000000000000000000000000000000000000000000600052602260045260246000fd5b6000600282049050600182168061097257607f821691505b6020821081036109855761098461092b565b5b50919050565b60008154905061099a8161095a565b9050919050565b7f4e487b7100000000000000000000000000000000000000000000000000000000600052604160045260246000fd5b60008190508160005260206000209050919050565b60008190508160005260206000209050919050565b60006020601f8301049050919050565b600082821b905092915050565b600060088302610a477fffffffffffffffffffffffffffffffffffffffffffffffffffffffffffffffff82610a0a565b610a518683610a0a565b95508019841693508086168417925050509392505050565b6000819050919050565b6000610a8e610a89610a848461064c565b610a69565b61064c565b9050919050565b6000819050919050565b610aa883610a73565b610abc610ab482610a95565b848454610a17565b825550505050565b600090565b610ad1610ac4565b610adc818484610a9f565b505050565b5b81811015610b0057610af5600082610ac9565b600181019050610ae2565b5050565b601f821115610b4557610b16816109d0565b610b1f846109fa565b81016020851015610b2e578190505b610b42610b3a856109fa565b830182610ae1565b50505b505050565b600082821c905092915050565b6000610b6860001984600802610b4a565b1980831691505092915050565b6000610b818383610b57565b9150826002028217905092915050565b818103610b9f575050610c77565b610ba88261098b565b67ffffffffffffffff811115610bc157610bc06109a1565b5b610bcb825461095a565b610bd6828285610b04565b6000601f831160018114610c055760008415610bf3578287015490505b610bfd8582610b75565b865550610c70565b601f198416610c13876109e5565b9650610c1e866109d0565b60005b82811015610c4657848901548255600182019150600185019450602081019050610c21565b86831015610c635784890154610c5f601f891682610b57565b8355505b6001600288020188555050505b5050505050505b565b60008154610c868161095a565b610c9081866106e4565b94506001821660008114610cab5760018114610cc157610cf4565b60ff198316865281151560200286019350610cf4565b610cca856109d0565b60005b83811015610cec57815481890152600182019150602081019050610ccd565b808801955050505b50505092915050565b60006020820190508181036000830152610d178184610c79565b90509291505056fea26469706673582212202c325934b817841b8cc12571d11aa90f6d8b4397c52fb2d84bf15cef4958e05164736f6c6343000811003368747470733a2f2f7777772e6d6574726f706f6c69737765622e69742f6d6574726f706f6c69737765622f6e6577732f77702d636f6e74656e742f75706c6f6164732f73697465732f322f323032332f30312f6d657373696e612d2e6a706768747470733a2f2f692e706f7374696d672e63632f6a354e38763634512f7669676e657474652d646976657274656e74692d656c657a696f6e692d67696f726769612d6d656c6f6e692e6a706768747470733a2f2f7777772e766973746f73756c7765622e636f6d2f77702d636f6e74656e742f75706c6f6164732f323032312f30322f736166655f696d6167652e6a706768747470733a2f2f7777772e706e676d6172742e636f6d2f66696c65732f31362f446f6e616c642d5472756d702d504e472d46696c652e706e67",
  "immutableReferences": {},
  "source": "pragma solidity ^0.8.0;\r\n\r\ncontract Election {\r\n    // Model a Candidate\r\n    struct Candidate {\r\n        uint id;\r\n        string name;\r\n        uint voteCount;\r\n        string partyShortcut;\r\n        string partyFlag;\r\n        \r\n    }\r\n\r\n    event votedEvent (\r\n        uint indexed _candidateId,  string candidateName\r\n    );\r\n\r\n    // Store accounts that have voted\r\n    mapping(address => bool) public voters;\r\n    // Read/write candidates\r\n    mapping(uint => Candidate) public candidates;\r\n    mapping(address => string) public candidateVoted;\r\n    // Store Candidates Count\r\n\r\n    uint public candidatesCount;\r\n\r\n    constructor () public {\r\n        inizializzaDatabaseCandidati();\r\n    }\r\n\r\n    function addCandidate (Candidate memory candidate) private {\r\n        candidatesCount ++;\r\n        candidates[candidatesCount] = Candidate(candidatesCount, candidate.name, 0, candidate.partyShortcut, candidate.partyFlag);\r\n    }\r\n\r\n    function getCandidateNameFromID(uint _candidateId) public returns(string memory _name){\r\n        return candidates[_candidateId].name;\r\n    }\r\n\r\n    function vote (uint _candidateId) public {\r\n        // require that they haven't voted before\r\n        require(!voters[msg.sender]);\r\n\r\n        // Requisiti per un candidato\r\n        require(_candidateId > 0 && _candidateId <= candidatesCount);\r\n\r\n        // Ricordo che chi vota non pu pi votare\r\n        voters[msg.sender] = true;\r\n\r\n        // Aggiorno il voto del candidato\r\n        candidates[_candidateId].voteCount++;\r\n\r\n        // Aggiornamente del candidato votato!\r\n        candidateVoted[msg.sender] = candidates[_candidateId].name;\r\n        \r\n        // trigger voted event\r\n        emit votedEvent(_candidateId,  candidates[_candidateId].name);\r\n    }\r\n\r\n    /**\r\n     * Inizializza i candidati\r\n     */\r\n    function inizializzaDatabaseCandidati() internal {\r\n        Candidate memory candidate_1= Candidate({\r\n            id: 1,\r\n            name: \"Giorgia Meloni\",\r\n            voteCount: 0,\r\n            partyShortcut: \"FDI\",\r\n            partyFlag: \"https://i.postimg.cc/j5N8v64Q/vignette-divertenti-elezioni-giorgia-meloni.jpg\"\r\n            \r\n        });\r\n        Candidate memory candidate_2 = Candidate({\r\n            id: 2,\r\n            name: \"Matteo Renzi\",\r\n            voteCount: 0,\r\n            partyShortcut: \"IV\",\r\n            partyFlag: \"https://www.vistosulweb.com/wp-content/uploads/2021/02/safe_image.jpg\"\r\n            \r\n        });\r\n        Candidate memory candidate_3 = Candidate({\r\n            id: 3,\r\n            name: \"Donald Trump\",\r\n            voteCount: 0,\r\n            partyShortcut: \"RPB\",\r\n            partyFlag: \"https://www.pngmart.com/files/16/Donald-Trump-PNG-File.png\"\r\n        });\r\n        Candidate memory candidate_4 = Candidate({\r\n            id: 4,\r\n            name: \"Matteo Messina Denaro\",\r\n            voteCount: 0,\r\n            partyShortcut: \"MAFIA\",\r\n            partyFlag: \"https://www.metropolisweb.it/metropolisweb/news/wp-content/uploads/sites/2/2023/01/messina-.jpg\"\r\n        });\r\n\r\n        addCandidate(candidate_1);\r\n        addCandidate(candidate_2);\r\n        addCandidate(candidate_3);\r\n        addCandidate(candidate_4);\r\n\r\n   \r\n    }\r\n}\r\n\r\n    ",
  "sourcePath": "C:\\Users\\darnx\\Desktop\\SimpleE-VotingSystem\\contracts\\Election.sol",
  "compiler": {
    "name": "solc",
    "version": "0.8.17+commit.8df45f5f.Emscripten.clang"
  },
  "schemaVersion": "3.4.11",
  "updatedAt": "2023-01-18T09:46:04.066Z",
  "networkType": "ethereum",
  "devdoc": {
    "kind": "dev",
    "methods": {},
    "version": 1
  },
  "userdoc": {
    "kind": "user",
    "methods": {},
    "version": 1
  }
}