{
  "contractName": "Election",
  "abi": [
    {
      "inputs": [],
      "stateMutability": "nonpayable",
      "type": "constructor"
    },
    {
      "anonymous": false,
      "inputs": [
        {
          "indexed": true,
          "internalType": "bytes32",
          "name": "role",
          "type": "bytes32"
        },
        {
          "indexed": true,
          "internalType": "bytes32",
          "name": "previousAdminRole",
          "type": "bytes32"
        },
        {
          "indexed": true,
          "internalType": "bytes32",
          "name": "newAdminRole",
          "type": "bytes32"
        }
      ],
      "name": "RoleAdminChanged",
      "type": "event"
    },
    {
      "anonymous": false,
      "inputs": [
        {
          "indexed": true,
          "internalType": "bytes32",
          "name": "role",
          "type": "bytes32"
        },
        {
          "indexed": true,
          "internalType": "address",
          "name": "account",
          "type": "address"
        },
        {
          "indexed": true,
          "internalType": "address",
          "name": "sender",
          "type": "address"
        }
      ],
      "name": "RoleGranted",
      "type": "event"
    },
    {
      "anonymous": false,
      "inputs": [
        {
          "indexed": true,
          "internalType": "bytes32",
          "name": "role",
          "type": "bytes32"
        },
        {
          "indexed": true,
          "internalType": "address",
          "name": "account",
          "type": "address"
        },
        {
          "indexed": true,
          "internalType": "address",
          "name": "sender",
          "type": "address"
        }
      ],
      "name": "RoleRevoked",
      "type": "event"
    },
    {
      "anonymous": false,
      "inputs": [
        {
          "indexed": false,
          "internalType": "address",
          "name": "user",
          "type": "address"
        }
      ],
      "name": "checksoloOwner",
      "type": "event"
    },
    {
      "anonymous": false,
      "inputs": [
        {
          "indexed": true,
          "internalType": "uint256",
          "name": "_candidateId",
          "type": "uint256"
        }
      ],
      "name": "removedCandidateEvent",
      "type": "event"
    },
    {
      "anonymous": false,
      "inputs": [
        {
          "indexed": true,
          "internalType": "uint256",
          "name": "_candidateId",
          "type": "uint256"
        },
        {
          "indexed": false,
          "internalType": "string",
          "name": "candidateName",
          "type": "string"
        }
      ],
      "name": "votedEvent",
      "type": "event"
    },
    {
      "inputs": [],
      "name": "DEFAULT_ADMIN_ROLE",
      "outputs": [
        {
          "internalType": "bytes32",
          "name": "",
          "type": "bytes32"
        }
      ],
      "stateMutability": "view",
      "type": "function",
      "constant": true
    },
    {
      "inputs": [
        {
          "internalType": "address",
          "name": "",
          "type": "address"
        }
      ],
      "name": "candidateVoted",
      "outputs": [
        {
          "internalType": "string",
          "name": "",
          "type": "string"
        }
      ],
      "stateMutability": "view",
      "type": "function",
      "constant": true
    },
    {
      "inputs": [
        {
          "internalType": "uint256",
          "name": "",
          "type": "uint256"
        }
      ],
      "name": "candidates",
      "outputs": [
        {
          "internalType": "uint256",
          "name": "id",
          "type": "uint256"
        },
        {
          "internalType": "string",
          "name": "name",
          "type": "string"
        },
        {
          "internalType": "uint256",
          "name": "voteCount",
          "type": "uint256"
        },
        {
          "internalType": "string",
          "name": "partyShortcut",
          "type": "string"
        },
        {
          "internalType": "string",
          "name": "partyFlag",
          "type": "string"
        }
      ],
      "stateMutability": "view",
      "type": "function",
      "constant": true
    },
    {
      "inputs": [],
      "name": "candidatesCount",
      "outputs": [
        {
          "internalType": "uint256",
          "name": "",
          "type": "uint256"
        }
      ],
      "stateMutability": "view",
      "type": "function",
      "constant": true
    },
    {
      "inputs": [
        {
          "internalType": "bytes32",
          "name": "role",
          "type": "bytes32"
        }
      ],
      "name": "getRoleAdmin",
      "outputs": [
        {
          "internalType": "bytes32",
          "name": "",
          "type": "bytes32"
        }
      ],
      "stateMutability": "view",
      "type": "function",
      "constant": true
    },
    {
      "inputs": [
        {
          "internalType": "bytes32",
          "name": "role",
          "type": "bytes32"
        },
        {
          "internalType": "address",
          "name": "account",
          "type": "address"
        }
      ],
      "name": "grantRole",
      "outputs": [],
      "stateMutability": "nonpayable",
      "type": "function"
    },
    {
      "inputs": [
        {
          "internalType": "bytes32",
          "name": "role",
          "type": "bytes32"
        },
        {
          "internalType": "address",
          "name": "account",
          "type": "address"
        }
      ],
      "name": "hasRole",
      "outputs": [
        {
          "internalType": "bool",
          "name": "",
          "type": "bool"
        }
      ],
      "stateMutability": "view",
      "type": "function",
      "constant": true
    },
    {
      "inputs": [],
      "name": "open",
      "outputs": [
        {
          "internalType": "bool",
          "name": "",
          "type": "bool"
        }
      ],
      "stateMutability": "view",
      "type": "function",
      "constant": true
    },
    {
      "inputs": [
        {
          "internalType": "bytes32",
          "name": "role",
          "type": "bytes32"
        },
        {
          "internalType": "address",
          "name": "account",
          "type": "address"
        }
      ],
      "name": "renounceRole",
      "outputs": [],
      "stateMutability": "nonpayable",
      "type": "function"
    },
    {
      "inputs": [
        {
          "internalType": "bytes32",
          "name": "role",
          "type": "bytes32"
        },
        {
          "internalType": "address",
          "name": "account",
          "type": "address"
        }
      ],
      "name": "revokeRole",
      "outputs": [],
      "stateMutability": "nonpayable",
      "type": "function"
    },
    {
      "inputs": [],
      "name": "risultatoElezione",
      "outputs": [
        {
          "internalType": "string",
          "name": "",
          "type": "string"
        }
      ],
      "stateMutability": "view",
      "type": "function",
      "constant": true
    },
    {
      "inputs": [
        {
          "internalType": "bytes4",
          "name": "interfaceId",
          "type": "bytes4"
        }
      ],
      "name": "supportsInterface",
      "outputs": [
        {
          "internalType": "bool",
          "name": "",
          "type": "bool"
        }
      ],
      "stateMutability": "view",
      "type": "function",
      "constant": true
    },
    {
      "inputs": [
        {
          "internalType": "address",
          "name": "",
          "type": "address"
        }
      ],
      "name": "voters",
      "outputs": [
        {
          "internalType": "bool",
          "name": "",
          "type": "bool"
        }
      ],
      "stateMutability": "view",
      "type": "function",
      "constant": true
    },
    {
      "inputs": [
        {
          "internalType": "string",
          "name": "nome",
          "type": "string"
        },
        {
          "internalType": "string",
          "name": "partito",
          "type": "string"
        },
        {
          "internalType": "string",
          "name": "logo",
          "type": "string"
        }
      ],
      "name": "addCandidate",
      "outputs": [],
      "stateMutability": "nonpayable",
      "type": "function"
    },
    {
      "inputs": [
        {
          "internalType": "uint256",
          "name": "_candidateId",
          "type": "uint256"
        }
      ],
      "name": "removeCandidate",
      "outputs": [],
      "stateMutability": "nonpayable",
      "type": "function"
    },
    {
      "inputs": [],
      "name": "resetCandidate",
      "outputs": [],
      "stateMutability": "nonpayable",
      "type": "function"
    },
    {
      "inputs": [],
      "name": "openElection",
      "outputs": [
        {
          "internalType": "bool",
          "name": "",
          "type": "bool"
        }
      ],
      "stateMutability": "nonpayable",
      "type": "function"
    },
    {
      "inputs": [],
      "name": "closeElection",
      "outputs": [
        {
          "internalType": "bool",
          "name": "",
          "type": "bool"
        }
      ],
      "stateMutability": "nonpayable",
      "type": "function"
    },
    {
      "inputs": [],
      "name": "isElectionOpen",
      "outputs": [
        {
          "internalType": "bool",
          "name": "",
          "type": "bool"
        }
      ],
      "stateMutability": "nonpayable",
      "type": "function"
    },
    {
      "inputs": [
        {
          "internalType": "address",
          "name": "account",
          "type": "address"
        }
      ],
      "name": "isOwner",
      "outputs": [
        {
          "internalType": "bool",
          "name": "",
          "type": "bool"
        }
      ],
      "stateMutability": "view",
      "type": "function",
      "constant": true
    },
    {
      "inputs": [
        {
          "internalType": "uint256",
          "name": "_candidateId",
          "type": "uint256"
        }
      ],
      "name": "vote",
      "outputs": [],
      "stateMutability": "nonpayable",
      "type": "function"
    }
  ],
  "bytecode": "0x60806040523480156200001157600080fd5b50620000276000801b336200005860201b60201c565b620000376200006e60201b60201c565b6000600560006101000a81548160ff02191690831515021790555062000c27565b6200006a8282620003b060201b60201c565b5050565b60006040518060a00160405280600181526020016040518060400160405280600e81526020017f47696f72676961204d656c6f6e690000000000000000000000000000000000008152508152602001600081526020016040518060400160405280600381526020017f464449000000000000000000000000000000000000000000000000000000000081525081526020016040518060800160405280604d815260200162003b7a604d9139815250905060006040518060a00160405280600281526020016040518060400160405280600c81526020017f4d617474656f2052656e7a6900000000000000000000000000000000000000008152508152602001600081526020016040518060400160405280600281526020017f4956000000000000000000000000000000000000000000000000000000000000815250815260200160405180608001604052806045815260200162003bc760459139815250905060006040518060a00160405280600381526020016040518060400160405280601081526020017f4361726d696e65204427416e67656c6f000000000000000000000000000000008152508152602001600081526020016040518060400160405280600381526020017f4e434f0000000000000000000000000000000000000000000000000000000000815250815260200160405180608001604052806059815260200162003c0c60599139815250905060006040518060a00160405280600481526020016040518060400160405280601581526020017f4d617474656f204d657373696e612044656e61726f00000000000000000000008152508152602001600081526020016040518060400160405280600581526020017f4d4146494100000000000000000000000000000000000000000000000000000081525081526020016040518060800160405280605f815260200162003b1b605f913981525090506200034d846020015185606001518660800151620004a160201b60201c565b6200036c836020015184606001518560800151620004a160201b60201c565b6200038b826020015183606001518460800151620004a160201b60201c565b620003aa816020015182606001518360800151620004a160201b60201c565b50505050565b620003c282826200063d60201b60201c565b6200049d57600160008084815260200190815260200160002060000160008373ffffffffffffffffffffffffffffffffffffffff1673ffffffffffffffffffffffffffffffffffffffff16815260200190815260200160002060006101000a81548160ff02191690831515021790555062000442620006a760201b60201c565b73ffffffffffffffffffffffffffffffffffffffff168173ffffffffffffffffffffffffffffffffffffffff16837f2f8788117e7eff1d82e926ec794901d17c78024a50270940304540a733656f0d60405160405180910390a45b5050565b7f97cb40d38f4c4db2fe8d633d82729d64ea9d66937b525f8be969cc8b9c0c5d3833604051620004d2919062000712565b60405180910390a1620004eb33620006af60201b60201c565b6200052d576040517f08c379a0000000000000000000000000000000000000000000000000000000008152600401620005249062000790565b60405180910390fd5b600560009054906101000a900460ff161562000580576040517f08c379a0000000000000000000000000000000000000000000000000000000008152600401620005779062000828565b60405180910390fd5b60046000815480929190620005959062000883565b91905055506040518060a0016040528060045481526020018481526020016000815260200183815260200182815250600260006004548152602001908152602001600020600082015181600001556020820151816001019081620005fa919062000b40565b506040820151816002015560608201518160030190816200061c919062000b40565b50608082015181600401908162000634919062000b40565b50905050505050565b600080600084815260200190815260200160002060000160008373ffffffffffffffffffffffffffffffffffffffff1673ffffffffffffffffffffffffffffffffffffffff16815260200190815260200160002060009054906101000a900460ff16905092915050565b600033905090565b6000620006c66000801b836200063d60201b60201c565b9050919050565b600073ffffffffffffffffffffffffffffffffffffffff82169050919050565b6000620006fa82620006cd565b9050919050565b6200070c81620006ed565b82525050565b600060208201905062000729600083018462000701565b92915050565b600082825260208201905092915050565b7f46756e7a696f6e6520736f6c6f2070657220696c2070726f706965746172696f600082015250565b6000620007786020836200072f565b9150620007858262000740565b602082019050919050565b60006020820190508181036000830152620007ab8162000769565b9050919050565b7f456c657a696f6e69206170657274652c20696d706f73736962696c652061676760008201527f69756e6765726520696c2063616e64696461746f210000000000000000000000602082015250565b6000620008106035836200072f565b91506200081d82620007b2565b604082019050919050565b60006020820190508181036000830152620008438162000801565b9050919050565b7f4e487b7100000000000000000000000000000000000000000000000000000000600052601160045260246000fd5b6000819050919050565b6000620008908262000879565b91507fffffffffffffffffffffffffffffffffffffffffffffffffffffffffffffffff8203620008c557620008c46200084a565b5b600182019050919050565b600081519050919050565b7f4e487b7100000000000000000000000000000000000000000000000000000000600052604160045260246000fd5b7f4e487b7100000000000000000000000000000000000000000000000000000000600052602260045260246000fd5b600060028204905060018216806200095257607f821691505b6020821081036200096857620009676200090a565b5b50919050565b60008190508160005260206000209050919050565b60006020601f8301049050919050565b600082821b905092915050565b600060088302620009d27fffffffffffffffffffffffffffffffffffffffffffffffffffffffffffffffff8262000993565b620009de868362000993565b95508019841693508086168417925050509392505050565b6000819050919050565b600062000a2162000a1b62000a158462000879565b620009f6565b62000879565b9050919050565b6000819050919050565b62000a3d8362000a00565b62000a5562000a4c8262000a28565b848454620009a0565b825550505050565b600090565b62000a6c62000a5d565b62000a7981848462000a32565b505050565b5b8181101562000aa15762000a9560008262000a62565b60018101905062000a7f565b5050565b601f82111562000af05762000aba816200096e565b62000ac58462000983565b8101602085101562000ad5578190505b62000aed62000ae48562000983565b83018262000a7e565b50505b505050565b600082821c905092915050565b600062000b156000198460080262000af5565b1980831691505092915050565b600062000b30838362000b02565b9150826002028217905092915050565b62000b4b82620008d0565b67ffffffffffffffff81111562000b675762000b66620008db565b5b62000b73825462000939565b62000b8082828562000aa5565b600060209050601f83116001811462000bb8576000841562000ba3578287015190505b62000baf858262000b22565b86555062000c1f565b601f19841662000bc8866200096e565b60005b8281101562000bf25784890151825560018201915060208501945060208101905062000bcb565b8683101562000c12578489015162000c0e601f89168262000b02565b8355505b6001600288020188555050505b505050505050565b612ee48062000c376000396000f3fe608060405234801561001057600080fd5b50600436106101375760003560e01c806345c8014b116100b8578063a3ec138d1161007c578063a3ec138d14610340578063ad71f8dc14610370578063b33c8dfa1461038c578063c5d00f5d146103bc578063d547741f146103da578063fcfff16f146103f657610137565b806345c8014b146102ac5780636c6c32d0146102b65780636f2cd40d146102d457806391d14854146102f2578063a217fddf1461032257610137565b80632d35a8a2116100ff5780632d35a8a2146101f25780632f2ff15d146102105780632f54bf6e1461022c5780633477ee2e1461025c57806336568abe1461029057610137565b80630121b93f1461013c57806301ffc9a71461015857806309e9d7e214610188578063248a9ca3146101a457806324a897b9146101d4575b600080fd5b61015660048036038101906101519190611c00565b610414565b005b610172600480360381019061016d9190611c85565b610640565b60405161017f9190611ccd565b60405180910390f35b6101a2600480360381019061019d9190611c00565b6106ba565b005b6101be60048036038101906101b99190611d1e565b610987565b6040516101cb9190611d5a565b60405180910390f35b6101dc6109a6565b6040516101e99190611e05565b60405180910390f35b6101fa610a34565b6040516102079190611e36565b60405180910390f35b61022a60048036038101906102259190611eaf565b610a3a565b005b61024660048036038101906102419190611eef565b610a5b565b6040516102539190611ccd565b60405180910390f35b61027660048036038101906102719190611c00565b610a71565b604051610287959493929190611f1c565b60405180910390f35b6102aa60048036038101906102a59190611eaf565b610c3f565b005b6102b4610cc2565b005b6102be610e12565b6040516102cb9190611ccd565b60405180910390f35b6102dc6111fc565b6040516102e99190611ccd565b60405180910390f35b61030c60048036038101906103079190611eaf565b611213565b6040516103199190611ccd565b60405180910390f35b61032a61127d565b6040516103379190611d5a565b60405180910390f35b61035a60048036038101906103559190611eef565b611284565b6040516103679190611ccd565b60405180910390f35b61038a600480360381019061038591906120b9565b6112a4565b005b6103a660048036038101906103a19190611eef565b611428565b6040516103b39190611e05565b60405180910390f35b6103c46114c8565b6040516103d19190611ccd565b60405180910390f35b6103f460048036038101906103ef9190611eaf565b6115c1565b005b6103fe6115e2565b60405161040b9190611ccd565b60405180910390f35b600560009054906101000a900460ff16610463576040517f08c379a000000000000000000000000000000000000000000000000000000000815260040161045a906121ac565b60405180910390fd5b600160003373ffffffffffffffffffffffffffffffffffffffff1673ffffffffffffffffffffffffffffffffffffffff16815260200190815260200160002060009054906101000a900460ff16156104f0576040517f08c379a00000000000000000000000000000000000000000000000000000000081526004016104e790612218565b60405180910390fd5b60008111801561050257506004548111155b61050b57600080fd5b60018060003373ffffffffffffffffffffffffffffffffffffffff1673ffffffffffffffffffffffffffffffffffffffff16815260200190815260200160002060006101000a81548160ff02191690831515021790555060026000828152602001908152602001600020600201600081548092919061058990612267565b919050555060026000828152602001908152602001600020600101600360003373ffffffffffffffffffffffffffffffffffffffff1673ffffffffffffffffffffffffffffffffffffffff16815260200190815260200160002090816105ef91906124e6565b50807f979840814b99e27d10388b0f146721af580825d27335aaf4e683f78f56be49c2600260008481526020019081526020016000206001016040516106359190612652565b60405180910390a250565b60007f7965db0b000000000000000000000000000000000000000000000000000000007bffffffffffffffffffffffffffffffffffffffffffffffffffffffff1916827bffffffffffffffffffffffffffffffffffffffffffffffffffffffff191614806106b357506106b2826115f5565b5b9050919050565b7f97cb40d38f4c4db2fe8d633d82729d64ea9d66937b525f8be969cc8b9c0c5d38336040516106e99190612683565b60405180910390a16106fa33610a5b565b610739576040517f08c379a0000000000000000000000000000000000000000000000000000000008152600401610730906126ea565b60405180910390fd5b600560009054906101000a900460ff1615610789576040517f08c379a00000000000000000000000000000000000000000000000000000000081526004016107809061277c565b60405180910390fd5b60008111801561079b57506004548111155b6107da576040517f08c379a00000000000000000000000000000000000000000000000000000000081526004016107d1906127e8565b60405180910390fd5b600260008281526020019081526020016000206000808201600090556001820160006108069190611b2a565b600282016000905560038201600061081e9190611b2a565b60048201600061082e9190611b2a565b50506004600081548092919061084390612808565b919050555060008190505b60045481116108f257600260006001836108689190612831565b81526020019081526020016000206002600083815260200190815260200160002060008201548160000155600182018160010190816108a7919061287b565b5060028201548160020155600382018160030190816108c6919061287b565b50600482018160040190816108db919061287b565b5090505080806108ea90612267565b91505061084e565b506002600060016004546109069190612831565b815260200190815260200160002060008082016000905560018201600061092d9190611b2a565b60028201600090556003820160006109459190611b2a565b6004820160006109559190611b2a565b5050807f20d7243f0784acc9041a7a8e8935b200eb8c016d8f93944acf368b87bee6352460405160405180910390a250565b6000806000838152602001908152602001600020600101549050919050565b600680546109b3906122de565b80601f01602080910402602001604051908101604052809291908181526020018280546109df906122de565b8015610a2c5780601f10610a0157610100808354040283529160200191610a2c565b820191906000526020600020905b815481529060010190602001808311610a0f57829003601f168201915b505050505081565b60045481565b610a4382610987565b610a4c8161165f565b610a568383611673565b505050565b6000610a6a6000801b83611213565b9050919050565b6002602052806000526040600020600091509050806000015490806001018054610a9a906122de565b80601f0160208091040260200160405190810160405280929190818152602001828054610ac6906122de565b8015610b135780601f10610ae857610100808354040283529160200191610b13565b820191906000526020600020905b815481529060010190602001808311610af657829003601f168201915b505050505090806002015490806003018054610b2e906122de565b80601f0160208091040260200160405190810160405280929190818152602001828054610b5a906122de565b8015610ba75780601f10610b7c57610100808354040283529160200191610ba7565b820191906000526020600020905b815481529060010190602001808311610b8a57829003601f168201915b505050505090806004018054610bbc906122de565b80601f0160208091040260200160405190810160405280929190818152602001828054610be8906122de565b8015610c355780601f10610c0a57610100808354040283529160200191610c35565b820191906000526020600020905b815481529060010190602001808311610c1857829003601f168201915b5050505050905085565b610c47611753565b73ffffffffffffffffffffffffffffffffffffffff168173ffffffffffffffffffffffffffffffffffffffff1614610cb4576040517f08c379a0000000000000000000000000000000000000000000000000000000008152600401610cab906129d5565b60405180910390fd5b610cbe828261175b565b5050565b7f97cb40d38f4c4db2fe8d633d82729d64ea9d66937b525f8be969cc8b9c0c5d3833604051610cf19190612683565b60405180910390a1610d0233610a5b565b610d41576040517f08c379a0000000000000000000000000000000000000000000000000000000008152600401610d38906126ea565b60405180910390fd5b600560009054906101000a900460ff1615610d91576040517f08c379a0000000000000000000000000000000000000000000000000000000008152600401610d8890612a67565b60405180910390fd5b60005b600454811015610e075760026000828152602001908152602001600020600080820160009055600182016000610dca9190611b2a565b6002820160009055600382016000610de29190611b2a565b600482016000610df29190611b2a565b50508080610dff90612267565b915050610d94565b506000600481905550565b60007f97cb40d38f4c4db2fe8d633d82729d64ea9d66937b525f8be969cc8b9c0c5d3833604051610e439190612683565b60405180910390a1610e5433610a5b565b610e93576040517f08c379a0000000000000000000000000000000000000000000000000000000008152600401610e8a906126ea565b60405180910390fd5b60011515600560009054906101000a900460ff16151514610ee9576040517f08c379a0000000000000000000000000000000000000000000000000000000008152600401610ee090612ad3565b60405180910390fd5b6000600560006101000a81548160ff021916908315150217905550600080610f0f611b6a565b6000600190505b6004548111611189578360026000838152602001908152602001600020600201541115611149576002600082815260200190815260200160002060020154935060019250600260008281526020019081526020016000206040518060a001604052908160008201548152602001600182018054610f92906122de565b80601f0160208091040260200160405190810160405280929190818152602001828054610fbe906122de565b801561100b5780601f10610fe05761010080835404028352916020019161100b565b820191906000526020600020905b815481529060010190602001808311610fee57829003601f168201915b505050505081526020016002820154815260200160038201805461102e906122de565b80601f016020809104026020016040519081016040528092919081815260200182805461105a906122de565b80156110a75780601f1061107c576101008083540402835291602001916110a7565b820191906000526020600020905b81548152906001019060200180831161108a57829003601f168201915b505050505081526020016004820180546110c0906122de565b80601f01602080910402602001604051908101604052809291908181526020018280546110ec906122de565b80156111395780601f1061110e57610100808354040283529160200191611139565b820191906000526020600020905b81548152906001019060200180831161111c57829003601f168201915b5050505050815250509150611176565b8360026000838152602001908152602001600020600201540361117557828061117190612267565b9350505b5b808061118190612267565b915050610f16565b5060018211156111dd576040518060400160405280600881526020017f506172656767696f000000000000000000000000000000000000000000000000815250600690816111d79190612af3565b506111f2565b8060200151600690816111f09190612af3565b505b6001935050505090565b6000600560009054906101000a900460ff16905090565b600080600084815260200190815260200160002060000160008373ffffffffffffffffffffffffffffffffffffffff1673ffffffffffffffffffffffffffffffffffffffff16815260200190815260200160002060009054906101000a900460ff16905092915050565b6000801b81565b60016020528060005260406000206000915054906101000a900460ff1681565b7f97cb40d38f4c4db2fe8d633d82729d64ea9d66937b525f8be969cc8b9c0c5d38336040516112d39190612683565b60405180910390a16112e433610a5b565b611323576040517f08c379a000000000000000000000000000000000000000000000000000000000815260040161131a906126ea565b60405180910390fd5b600560009054906101000a900460ff1615611373576040517f08c379a000000000000000000000000000000000000000000000000000000000815260040161136a90612c37565b60405180910390fd5b6004600081548092919061138690612267565b91905055506040518060a00160405280600454815260200184815260200160008152602001838152602001828152506002600060045481526020019081526020016000206000820151816000015560208201518160010190816113e99190612af3565b506040820151816002015560608201518160030190816114099190612af3565b50608082015181600401908161141f9190612af3565b50905050505050565b60036020528060005260406000206000915090508054611447906122de565b80601f0160208091040260200160405190810160405280929190818152602001828054611473906122de565b80156114c05780601f10611495576101008083540402835291602001916114c0565b820191906000526020600020905b8154815290600101906020018083116114a357829003601f168201915b505050505081565b60007f97cb40d38f4c4db2fe8d633d82729d64ea9d66937b525f8be969cc8b9c0c5d38336040516114f99190612683565b60405180910390a161150a33610a5b565b611549576040517f08c379a0000000000000000000000000000000000000000000000000000000008152600401611540906126ea565b60405180910390fd5b60001515600560009054906101000a900460ff1615151461159f576040517f08c379a000000000000000000000000000000000000000000000000000000000815260040161159690612ca3565b60405180910390fd5b6001600560006101000a81548160ff0219169083151502179055506001905090565b6115ca82610987565b6115d38161165f565b6115dd838361175b565b505050565b600560009054906101000a900460ff1681565b60007f01ffc9a7000000000000000000000000000000000000000000000000000000007bffffffffffffffffffffffffffffffffffffffffffffffffffffffff1916827bffffffffffffffffffffffffffffffffffffffffffffffffffffffff1916149050919050565b6116708161166b611753565b61183c565b50565b61167d8282611213565b61174f57600160008084815260200190815260200160002060000160008373ffffffffffffffffffffffffffffffffffffffff1673ffffffffffffffffffffffffffffffffffffffff16815260200190815260200160002060006101000a81548160ff0219169083151502179055506116f4611753565b73ffffffffffffffffffffffffffffffffffffffff168173ffffffffffffffffffffffffffffffffffffffff16837f2f8788117e7eff1d82e926ec794901d17c78024a50270940304540a733656f0d60405160405180910390a45b5050565b600033905090565b6117658282611213565b1561183857600080600084815260200190815260200160002060000160008373ffffffffffffffffffffffffffffffffffffffff1673ffffffffffffffffffffffffffffffffffffffff16815260200190815260200160002060006101000a81548160ff0219169083151502179055506117dd611753565b73ffffffffffffffffffffffffffffffffffffffff168173ffffffffffffffffffffffffffffffffffffffff16837ff6391f5c32d9c69d2a47ea670b442974b53935d1edc7fd64eb21e047a839171b60405160405180910390a45b5050565b6118468282611213565b6118bd57611853816118c1565b6118618360001c60206118ee565b604051602001611872929190612d97565b6040516020818303038152906040526040517f08c379a00000000000000000000000000000000000000000000000000000000081526004016118b49190611e05565b60405180910390fd5b5050565b60606118e78273ffffffffffffffffffffffffffffffffffffffff16601460ff166118ee565b9050919050565b6060600060028360026119019190612dd1565b61190b9190612831565b67ffffffffffffffff81111561192457611923611f8e565b5b6040519080825280601f01601f1916602001820160405280156119565781602001600182028036833780820191505090505b5090507f30000000000000000000000000000000000000000000000000000000000000008160008151811061198e5761198d612e13565b5b60200101907effffffffffffffffffffffffffffffffffffffffffffffffffffffffffffff1916908160001a9053507f7800000000000000000000000000000000000000000000000000000000000000816001815181106119f2576119f1612e13565b5b60200101907effffffffffffffffffffffffffffffffffffffffffffffffffffffffffffff1916908160001a90535060006001846002611a329190612dd1565b611a3c9190612831565b90505b6001811115611adc577f3031323334353637383961626364656600000000000000000000000000000000600f861660108110611a7e57611a7d612e13565b5b1a60f81b828281518110611a9557611a94612e13565b5b60200101907effffffffffffffffffffffffffffffffffffffffffffffffffffffffffffff1916908160001a905350600485901c945080611ad590612808565b9050611a3f565b5060008414611b20576040517f08c379a0000000000000000000000000000000000000000000000000000000008152600401611b1790612e8e565b60405180910390fd5b8091505092915050565b508054611b36906122de565b6000825580601f10611b485750611b67565b601f016020900490600052602060002090810190611b669190611b99565b5b50565b6040518060a0016040528060008152602001606081526020016000815260200160608152602001606081525090565b5b80821115611bb2576000816000905550600101611b9a565b5090565b6000604051905090565b600080fd5b600080fd5b6000819050919050565b611bdd81611bca565b8114611be857600080fd5b50565b600081359050611bfa81611bd4565b92915050565b600060208284031215611c1657611c15611bc0565b5b6000611c2484828501611beb565b91505092915050565b60007fffffffff0000000000000000000000000000000000000000000000000000000082169050919050565b611c6281611c2d565b8114611c6d57600080fd5b50565b600081359050611c7f81611c59565b92915050565b600060208284031215611c9b57611c9a611bc0565b5b6000611ca984828501611c70565b91505092915050565b60008115159050919050565b611cc781611cb2565b82525050565b6000602082019050611ce26000830184611cbe565b92915050565b6000819050919050565b611cfb81611ce8565b8114611d0657600080fd5b50565b600081359050611d1881611cf2565b92915050565b600060208284031215611d3457611d33611bc0565b5b6000611d4284828501611d09565b91505092915050565b611d5481611ce8565b82525050565b6000602082019050611d6f6000830184611d4b565b92915050565b600081519050919050565b600082825260208201905092915050565b60005b83811015611daf578082015181840152602081019050611d94565b60008484015250505050565b6000601f19601f8301169050919050565b6000611dd782611d75565b611de18185611d80565b9350611df1818560208601611d91565b611dfa81611dbb565b840191505092915050565b60006020820190508181036000830152611e1f8184611dcc565b905092915050565b611e3081611bca565b82525050565b6000602082019050611e4b6000830184611e27565b92915050565b600073ffffffffffffffffffffffffffffffffffffffff82169050919050565b6000611e7c82611e51565b9050919050565b611e8c81611e71565b8114611e9757600080fd5b50565b600081359050611ea981611e83565b92915050565b60008060408385031215611ec657611ec5611bc0565b5b6000611ed485828601611d09565b9250506020611ee585828601611e9a565b9150509250929050565b600060208284031215611f0557611f04611bc0565b5b6000611f1384828501611e9a565b91505092915050565b600060a082019050611f316000830188611e27565b8181036020830152611f438187611dcc565b9050611f526040830186611e27565b8181036060830152611f648185611dcc565b90508181036080830152611f788184611dcc565b90509695505050505050565b600080fd5b600080fd5b7f4e487b7100000000000000000000000000000000000000000000000000000000600052604160045260246000fd5b611fc682611dbb565b810181811067ffffffffffffffff82111715611fe557611fe4611f8e565b5b80604052505050565b6000611ff8611bb6565b90506120048282611fbd565b919050565b600067ffffffffffffffff82111561202457612023611f8e565b5b61202d82611dbb565b9050602081019050919050565b82818337600083830152505050565b600061205c61205784612009565b611fee565b90508281526020810184848401111561207857612077611f89565b5b61208384828561203a565b509392505050565b600082601f8301126120a05761209f611f84565b5b81356120b0848260208601612049565b91505092915050565b6000806000606084860312156120d2576120d1611bc0565b5b600084013567ffffffffffffffff8111156120f0576120ef611bc5565b5b6120fc8682870161208b565b935050602084013567ffffffffffffffff81111561211d5761211c611bc5565b5b6121298682870161208b565b925050604084013567ffffffffffffffff81111561214a57612149611bc5565b5b6121568682870161208b565b9150509250925092565b7f456c657a696f6e69207465726d696e6174650000000000000000000000000000600082015250565b6000612196601283611d80565b91506121a182612160565b602082019050919050565b600060208201905081810360008301526121c581612189565b9050919050565b7f4861692067696120766f7461746f000000000000000000000000000000000000600082015250565b6000612202600e83611d80565b915061220d826121cc565b602082019050919050565b60006020820190508181036000830152612231816121f5565b9050919050565b7f4e487b7100000000000000000000000000000000000000000000000000000000600052601160045260246000fd5b600061227282611bca565b91507fffffffffffffffffffffffffffffffffffffffffffffffffffffffffffffffff82036122a4576122a3612238565b5b600182019050919050565b7f4e487b7100000000000000000000000000000000000000000000000000000000600052602260045260246000fd5b600060028204905060018216806122f657607f821691505b602082108103612309576123086122af565b5b50919050565b60008154905061231e816122de565b9050919050565b60008190508160005260206000209050919050565b60008190508160005260206000209050919050565b60006020601f8301049050919050565b600082821b905092915050565b60006008830261239c7fffffffffffffffffffffffffffffffffffffffffffffffffffffffffffffffff8261235f565b6123a6868361235f565b95508019841693508086168417925050509392505050565b6000819050919050565b60006123e36123de6123d984611bca565b6123be565b611bca565b9050919050565b6000819050919050565b6123fd836123c8565b612411612409826123ea565b84845461236c565b825550505050565b600090565b612426612419565b6124318184846123f4565b505050565b5b818110156124555761244a60008261241e565b600181019050612437565b5050565b601f82111561249a5761246b81612325565b6124748461234f565b81016020851015612483578190505b61249761248f8561234f565b830182612436565b50505b505050565b600082821c905092915050565b60006124bd6000198460080261249f565b1980831691505092915050565b60006124d683836124ac565b9150826002028217905092915050565b8181036124f45750506125cc565b6124fd8261230f565b67ffffffffffffffff81111561251657612515611f8e565b5b61252082546122de565b61252b828285612459565b6000601f83116001811461255a5760008415612548578287015490505b61255285826124ca565b8655506125c5565b601f1984166125688761233a565b965061257386612325565b60005b8281101561259b57848901548255600182019150600185019450602081019050612576565b868310156125b857848901546125b4601f8916826124ac565b8355505b6001600288020188555050505b5050505050505b565b600081546125db816122de565b6125e58186611d80565b94506001821660008114612600576001811461261657612649565b60ff198316865281151560200286019350612649565b61261f85612325565b60005b8381101561264157815481890152600182019150602081019050612622565b808801955050505b50505092915050565b6000602082019050818103600083015261266c81846125ce565b905092915050565b61267d81611e71565b82525050565b60006020820190506126986000830184612674565b92915050565b7f46756e7a696f6e6520736f6c6f2070657220696c2070726f706965746172696f600082015250565b60006126d4602083611d80565b91506126df8261269e565b602082019050919050565b60006020820190508181036000830152612703816126c7565b9050919050565b7f456c657a696f6e69206170657274652c20696d706f73736962696c652072696d60008201527f756f7665726520756e2063616e64696461746f00000000000000000000000000602082015250565b6000612766603383611d80565b91506127718261270a565b604082019050919050565b6000602082019050818103600083015261279581612759565b9050919050565b7f49642063616e64696461746f206e6f6e2076616c69646f210000000000000000600082015250565b60006127d2601883611d80565b91506127dd8261279c565b602082019050919050565b60006020820190508181036000830152612801816127c5565b9050919050565b600061281382611bca565b91506000820361282657612825612238565b5b600182039050919050565b600061283c82611bca565b915061284783611bca565b925082820190508082111561285f5761285e612238565b5b92915050565b600081549050612874816122de565b9050919050565b818103612889575050612961565b61289282612865565b67ffffffffffffffff8111156128ab576128aa611f8e565b5b6128b582546122de565b6128c0828285612459565b6000601f8311600181146128ef57600084156128dd578287015490505b6128e785826124ca565b86555061295a565b601f1984166128fd87612325565b965061290886612325565b60005b828110156129305784890154825560018201915060018501945060208101905061290b565b8683101561294d5784890154612949601f8916826124ac565b8355505b6001600288020188555050505b5050505050505b565b7f416363657373436f6e74726f6c3a2063616e206f6e6c792072656e6f756e636560008201527f20726f6c657320666f722073656c660000000000000000000000000000000000602082015250565b60006129bf602f83611d80565b91506129ca82612963565b604082019050919050565b600060208201905081810360008301526129ee816129b2565b9050919050565b7f456c657a696f6e69206170657274652c20696d706f73736962696c652072696d60008201527f756f7665726520692063616e6469646174690000000000000000000000000000602082015250565b6000612a51603283611d80565b9150612a5c826129f5565b604082019050919050565b60006020820190508181036000830152612a8081612a44565b9050919050565b7f456c657a696f6e65206769612063686975736521000000000000000000000000600082015250565b6000612abd601483611d80565b9150612ac882612a87565b602082019050919050565b60006020820190508181036000830152612aec81612ab0565b9050919050565b612afc82611d75565b67ffffffffffffffff811115612b1557612b14611f8e565b5b612b1f82546122de565b612b2a828285612459565b600060209050601f831160018114612b5d5760008415612b4b578287015190505b612b5585826124ca565b865550612bbd565b601f198416612b6b86612325565b60005b82811015612b9357848901518255600182019150602085019450602081019050612b6e565b86831015612bb05784890151612bac601f8916826124ac565b8355505b6001600288020188555050505b505050505050565b7f456c657a696f6e69206170657274652c20696d706f73736962696c652061676760008201527f69756e6765726520696c2063616e64696461746f210000000000000000000000602082015250565b6000612c21603583611d80565b9150612c2c82612bc5565b604082019050919050565b60006020820190508181036000830152612c5081612c14565b9050919050565b7f456c657a696f6e65206769612061706572746121000000000000000000000000600082015250565b6000612c8d601483611d80565b9150612c9882612c57565b602082019050919050565b60006020820190508181036000830152612cbc81612c80565b9050919050565b600081905092915050565b7f416363657373436f6e74726f6c3a206163636f756e7420000000000000000000600082015250565b6000612d04601783612cc3565b9150612d0f82612cce565b601782019050919050565b6000612d2582611d75565b612d2f8185612cc3565b9350612d3f818560208601611d91565b80840191505092915050565b7f206973206d697373696e6720726f6c6520000000000000000000000000000000600082015250565b6000612d81601183612cc3565b9150612d8c82612d4b565b601182019050919050565b6000612da282612cf7565b9150612dae8285612d1a565b9150612db982612d74565b9150612dc58284612d1a565b91508190509392505050565b6000612ddc82611bca565b9150612de783611bca565b9250828202612df581611bca565b91508282048414831517612e0c57612e0b612238565b5b5092915050565b7f4e487b7100000000000000000000000000000000000000000000000000000000600052603260045260246000fd5b7f537472696e67733a20686578206c656e67746820696e73756666696369656e74600082015250565b6000612e78602083611d80565b9150612e8382612e42565b602082019050919050565b60006020820190508181036000830152612ea781612e6b565b905091905056fea2646970667358221220269b773205153cb513edbaaf2c357e239fbb30b30c74d37d7216abbcb191d1c164736f6c6343000811003368747470733a2f2f7777772e6d6574726f706f6c69737765622e69742f6d6574726f706f6c69737765622f6e6577732f77702d636f6e74656e742f75706c6f6164732f73697465732f322f323032332f30312f6d657373696e612d2e6a706768747470733a2f2f692e706f7374696d672e63632f6a354e38763634512f7669676e657474652d646976657274656e74692d656c657a696f6e692d67696f726769612d6d656c6f6e692e6a706768747470733a2f2f7777772e766973746f73756c7765622e636f6d2f77702d636f6e74656e742f75706c6f6164732f323032312f30322f736166655f696d6167652e6a706768747470733a2f2f6769746875622e636f6d2f6d6174746472352f53696d706c65452d566f74696e6753797374656d2f626c6f622f6d61696e2f7372632f696d616765732f63617264616e6f2e6a70673f7261773d74727565",
  "immutableReferences": {},
  "source": "pragma solidity ^0.8.0;\r\n\r\nimport \"@openzeppelin/contracts/access/AccessControl.sol\";\r\n\r\n\r\ncontract Election is AccessControl {\r\n    // Model a Candidate\r\n    struct Candidate {\r\n        uint id;\r\n        string name;\r\n        uint voteCount;\r\n        string partyShortcut;\r\n        string partyFlag;\r\n    }\r\n\r\n\r\n    event votedEvent (\r\n        uint indexed _candidateId,  string candidateName\r\n    );\r\n    event checksoloOwner(address user);\r\n    event removedCandidateEvent (uint indexed _candidateId);\r\n\r\n\r\n    // Store accounts that have voted\r\n    mapping(address => bool) public voters;\r\n    // Read/write candidates\r\n    mapping(uint => Candidate) public candidates;\r\n    mapping(address => string) public candidateVoted;\r\n    \r\n    // Store Candidates Count\r\n    uint public candidatesCount;\r\n    bool public open; //Mostra se un'elezione  aperta o chiusa\r\n    string public risultatoElezione; //Risultato elezione \"Pareggio\" o \"Nome candidato\"\r\n    \r\n    constructor () public {\r\n        _setupRole(DEFAULT_ADMIN_ROLE, msg.sender);\r\n        inizializzaDatabaseCandidati();\r\n        open = false; //Elezioni aperte\r\n    }\r\n\r\n\r\n    function addCandidate (string memory nome, string memory partito, string memory logo) public soloOwner {\r\n        require(!open, \"Elezioni aperte, impossibile aggiungere il candidato!\");\r\n        candidatesCount ++;\r\n        candidates[candidatesCount] = Candidate(candidatesCount, nome, 0, partito, logo);\r\n    }\r\n\r\n    function removeCandidate(uint _candidateId) public soloOwner {\r\n        require(!open, \"Elezioni aperte, impossibile rimuovere un candidato\");\r\n        require(_candidateId > 0 && _candidateId <= candidatesCount, \"Id candidato non valido!\");\r\n        delete candidates[_candidateId];\r\n        candidatesCount--;\r\n        // Shift the candidates' ids down by one starting from the removed candidate's id\r\n        for (uint i = _candidateId; i <= candidatesCount; i++) {\r\n            candidates[i] = candidates[i+1];\r\n        }\r\n        delete candidates[candidatesCount+1];\r\n        emit removedCandidateEvent(_candidateId);\r\n\r\n    }\r\n\r\n    function resetCandidate() public soloOwner {\r\n        require(!open, \"Elezioni aperte, impossibile rimuovere i candidati\");\r\n        for (uint i = 0; i < candidatesCount; i++) {\r\n            delete candidates[i];\r\n        }\r\n        candidatesCount = 0;\r\n    }\r\n\r\n    function openElection() public soloOwner returns (bool){\r\n        require(open == false, \"Elezione gia aperta!\"); //Se l'elezione  chiusa..\r\n        open = true;\r\n        return true; //Operazione riuscita!\r\n    }\r\n\r\n    function closeElection() public soloOwner returns (bool){\r\n        require(open == true, \"Elezione gia chiuse!\"); //Se l'elezione  aperta..\r\n        open = false;\r\n\r\n        uint maxVotes = 0;\r\n        uint countMaxVotes = 0;\r\n        Candidate memory candidatoVincitore;\r\n        for (uint i = 1; i <= candidatesCount; i++) {\r\n            if(candidates[i].voteCount > maxVotes){\r\n                maxVotes = candidates[i].voteCount;\r\n                countMaxVotes = 1;\r\n                candidatoVincitore = candidates[i];\r\n            }else if(candidates[i].voteCount == maxVotes){\r\n                countMaxVotes++;\r\n            }\r\n        }\r\n        if(countMaxVotes > 1){\r\n            risultatoElezione = \"Pareggio\";\r\n        }\r\n        else{\r\n            risultatoElezione = candidatoVincitore.name;\r\n        }\r\n\r\n        return true; //Operazione riuscita! \r\n    }\r\n\r\n    function isElectionOpen() public returns (bool){\r\n        return open;\r\n    }\r\n\r\n    modifier soloOwner() {\r\n      emit checksoloOwner(msg.sender);\r\n      require(isOwner(msg.sender), \"Funzione solo per il propietario\");\r\n      _;\r\n    }\r\n\r\n    function isOwner(address account) public virtual view returns (bool) {\r\n      return hasRole(DEFAULT_ADMIN_ROLE, account);\r\n    }\r\n\r\n    function vote (uint _candidateId) public {\r\n\r\n        require(open, \"Elezioni terminate\");\r\n        // Requisiti per il votante\r\n        require(!voters[msg.sender], \"Hai gia votato\");\r\n\r\n        // Requisiti per un candidato\r\n        require(_candidateId > 0 && _candidateId <= candidatesCount);\r\n\r\n        // Ricordo che chi vota non pu pi votare\r\n        voters[msg.sender] = true;\r\n\r\n        // Aggiorno il voto del candidato\r\n        candidates[_candidateId].voteCount++;\r\n\r\n        // Aggiornamente del candidato votato!\r\n        candidateVoted[msg.sender] = candidates[_candidateId].name;\r\n        \r\n        // trigger voted event\r\n        emit votedEvent(_candidateId,  candidates[_candidateId].name);\r\n    }\r\n\r\n    /**\r\n     * Inizializza i candidati\r\n     */\r\n    function inizializzaDatabaseCandidati() internal {\r\n        Candidate memory candidate_1= Candidate({\r\n            id: 1,\r\n            name: \"Giorgia Meloni\",\r\n            voteCount: 0,\r\n            partyShortcut: \"FDI\",\r\n            partyFlag: \"https://i.postimg.cc/j5N8v64Q/vignette-divertenti-elezioni-giorgia-meloni.jpg\"\r\n            \r\n        });\r\n        Candidate memory candidate_2 = Candidate({\r\n            id: 2,\r\n            name: \"Matteo Renzi\",\r\n            voteCount: 0,\r\n            partyShortcut: \"IV\",\r\n            partyFlag: \"https://www.vistosulweb.com/wp-content/uploads/2021/02/safe_image.jpg\"\r\n            \r\n        });\r\n        Candidate memory candidate_3 = Candidate({\r\n            id: 3,\r\n            name: \"Carmine D'Angelo\",\r\n            voteCount: 0,\r\n            partyShortcut: \"NCO\",\r\n            partyFlag: \"https://github.com/mattdr5/SimpleE-VotingSystem/blob/main/src/images/cardano.jpg?raw=true\"\r\n        });\r\n        Candidate memory candidate_4 = Candidate({\r\n            id: 4,\r\n            name: \"Matteo Messina Denaro\",\r\n            voteCount: 0,\r\n            partyShortcut: \"MAFIA\",\r\n            partyFlag: \"https://www.metropolisweb.it/metropolisweb/news/wp-content/uploads/sites/2/2023/01/messina-.jpg\"\r\n        });\r\n\r\n        addCandidate(candidate_1.name,candidate_1.partyShortcut, candidate_1.partyFlag);\r\n        addCandidate(candidate_2.name,candidate_2.partyShortcut, candidate_2.partyFlag);\r\n        addCandidate(candidate_3.name,candidate_3.partyShortcut, candidate_3.partyFlag);\r\n        addCandidate(candidate_4.name,candidate_4.partyShortcut, candidate_4.partyFlag);\r\n\r\n   \r\n    }\r\n}\r\n\r\n    ",
  "sourcePath": "C:\\Users\\darnx\\Desktop\\SimpleE-VotingSystem\\contracts\\Election.sol",
  "compiler": {
    "name": "solc",
    "version": "0.8.17+commit.8df45f5f.Emscripten.clang"
  },
  "schemaVersion": "3.4.11",
  "updatedAt": "2023-01-20T10:56:51.351Z",
  "networkType": "ethereum",
  "devdoc": {
    "kind": "dev",
    "methods": {
      "getRoleAdmin(bytes32)": {
        "details": "Returns the admin role that controls `role`. See {grantRole} and {revokeRole}. To change a role's admin, use {_setRoleAdmin}."
      },
      "grantRole(bytes32,address)": {
        "details": "Grants `role` to `account`. If `account` had not been already granted `role`, emits a {RoleGranted} event. Requirements: - the caller must have ``role``'s admin role. May emit a {RoleGranted} event."
      },
      "hasRole(bytes32,address)": {
        "details": "Returns `true` if `account` has been granted `role`."
      },
      "renounceRole(bytes32,address)": {
        "details": "Revokes `role` from the calling account. Roles are often managed via {grantRole} and {revokeRole}: this function's purpose is to provide a mechanism for accounts to lose their privileges if they are compromised (such as when a trusted device is misplaced). If the calling account had been revoked `role`, emits a {RoleRevoked} event. Requirements: - the caller must be `account`. May emit a {RoleRevoked} event."
      },
      "revokeRole(bytes32,address)": {
        "details": "Revokes `role` from `account`. If `account` had been granted `role`, emits a {RoleRevoked} event. Requirements: - the caller must have ``role``'s admin role. May emit a {RoleRevoked} event."
      },
      "supportsInterface(bytes4)": {
        "details": "See {IERC165-supportsInterface}."
      }
    },
    "version": 1
  },
  "userdoc": {
    "kind": "user",
    "methods": {},
    "version": 1
  }
}