{
  "contractName": "Election",
  "abi": [
    {
      "inputs": [],
      "stateMutability": "nonpayable",
      "type": "constructor"
    },
    {
      "anonymous": false,
      "inputs": [
        {
          "indexed": true,
          "internalType": "bytes32",
          "name": "role",
          "type": "bytes32"
        },
        {
          "indexed": true,
          "internalType": "bytes32",
          "name": "previousAdminRole",
          "type": "bytes32"
        },
        {
          "indexed": true,
          "internalType": "bytes32",
          "name": "newAdminRole",
          "type": "bytes32"
        }
      ],
      "name": "RoleAdminChanged",
      "type": "event"
    },
    {
      "anonymous": false,
      "inputs": [
        {
          "indexed": true,
          "internalType": "bytes32",
          "name": "role",
          "type": "bytes32"
        },
        {
          "indexed": true,
          "internalType": "address",
          "name": "account",
          "type": "address"
        },
        {
          "indexed": true,
          "internalType": "address",
          "name": "sender",
          "type": "address"
        }
      ],
      "name": "RoleGranted",
      "type": "event"
    },
    {
      "anonymous": false,
      "inputs": [
        {
          "indexed": true,
          "internalType": "bytes32",
          "name": "role",
          "type": "bytes32"
        },
        {
          "indexed": true,
          "internalType": "address",
          "name": "account",
          "type": "address"
        },
        {
          "indexed": true,
          "internalType": "address",
          "name": "sender",
          "type": "address"
        }
      ],
      "name": "RoleRevoked",
      "type": "event"
    },
    {
      "anonymous": false,
      "inputs": [
        {
          "indexed": false,
          "internalType": "address",
          "name": "user",
          "type": "address"
        }
      ],
      "name": "checksoloOwner",
      "type": "event"
    },
    {
      "anonymous": false,
      "inputs": [
        {
          "indexed": true,
          "internalType": "uint256",
          "name": "_candidateId",
          "type": "uint256"
        }
      ],
      "name": "removedCandidateEvent",
      "type": "event"
    },
    {
      "anonymous": false,
      "inputs": [
        {
          "indexed": true,
          "internalType": "uint256",
          "name": "_candidateId",
          "type": "uint256"
        },
        {
          "indexed": false,
          "internalType": "string",
          "name": "candidateName",
          "type": "string"
        }
      ],
      "name": "votedEvent",
      "type": "event"
    },
    {
      "inputs": [],
      "name": "DEFAULT_ADMIN_ROLE",
      "outputs": [
        {
          "internalType": "bytes32",
          "name": "",
          "type": "bytes32"
        }
      ],
      "stateMutability": "view",
      "type": "function",
      "constant": true
    },
    {
      "inputs": [
        {
          "internalType": "address",
          "name": "",
          "type": "address"
        }
      ],
      "name": "candidateVoted",
      "outputs": [
        {
          "internalType": "string",
          "name": "",
          "type": "string"
        }
      ],
      "stateMutability": "view",
      "type": "function",
      "constant": true
    },
    {
      "inputs": [
        {
          "internalType": "uint256",
          "name": "",
          "type": "uint256"
        }
      ],
      "name": "candidates",
      "outputs": [
        {
          "internalType": "uint256",
          "name": "id",
          "type": "uint256"
        },
        {
          "internalType": "string",
          "name": "name",
          "type": "string"
        },
        {
          "internalType": "uint256",
          "name": "voteCount",
          "type": "uint256"
        },
        {
          "internalType": "string",
          "name": "partyShortcut",
          "type": "string"
        },
        {
          "internalType": "string",
          "name": "partyFlag",
          "type": "string"
        }
      ],
      "stateMutability": "view",
      "type": "function",
      "constant": true
    },
    {
      "inputs": [],
      "name": "candidatesCount",
      "outputs": [
        {
          "internalType": "uint256",
          "name": "",
          "type": "uint256"
        }
      ],
      "stateMutability": "view",
      "type": "function",
      "constant": true
    },
    {
      "inputs": [
        {
          "internalType": "bytes32",
          "name": "role",
          "type": "bytes32"
        }
      ],
      "name": "getRoleAdmin",
      "outputs": [
        {
          "internalType": "bytes32",
          "name": "",
          "type": "bytes32"
        }
      ],
      "stateMutability": "view",
      "type": "function",
      "constant": true
    },
    {
      "inputs": [
        {
          "internalType": "bytes32",
          "name": "role",
          "type": "bytes32"
        },
        {
          "internalType": "address",
          "name": "account",
          "type": "address"
        }
      ],
      "name": "grantRole",
      "outputs": [],
      "stateMutability": "nonpayable",
      "type": "function"
    },
    {
      "inputs": [
        {
          "internalType": "bytes32",
          "name": "role",
          "type": "bytes32"
        },
        {
          "internalType": "address",
          "name": "account",
          "type": "address"
        }
      ],
      "name": "hasRole",
      "outputs": [
        {
          "internalType": "bool",
          "name": "",
          "type": "bool"
        }
      ],
      "stateMutability": "view",
      "type": "function",
      "constant": true
    },
    {
      "inputs": [],
      "name": "open",
      "outputs": [
        {
          "internalType": "bool",
          "name": "",
          "type": "bool"
        }
      ],
      "stateMutability": "view",
      "type": "function",
      "constant": true
    },
    {
      "inputs": [
        {
          "internalType": "bytes32",
          "name": "role",
          "type": "bytes32"
        },
        {
          "internalType": "address",
          "name": "account",
          "type": "address"
        }
      ],
      "name": "renounceRole",
      "outputs": [],
      "stateMutability": "nonpayable",
      "type": "function"
    },
    {
      "inputs": [
        {
          "internalType": "bytes32",
          "name": "role",
          "type": "bytes32"
        },
        {
          "internalType": "address",
          "name": "account",
          "type": "address"
        }
      ],
      "name": "revokeRole",
      "outputs": [],
      "stateMutability": "nonpayable",
      "type": "function"
    },
    {
      "inputs": [],
      "name": "risultatoElezione",
      "outputs": [
        {
          "internalType": "string",
          "name": "",
          "type": "string"
        }
      ],
      "stateMutability": "view",
      "type": "function",
      "constant": true
    },
    {
      "inputs": [
        {
          "internalType": "bytes4",
          "name": "interfaceId",
          "type": "bytes4"
        }
      ],
      "name": "supportsInterface",
      "outputs": [
        {
          "internalType": "bool",
          "name": "",
          "type": "bool"
        }
      ],
      "stateMutability": "view",
      "type": "function",
      "constant": true
    },
    {
      "inputs": [
        {
          "internalType": "address",
          "name": "",
          "type": "address"
        }
      ],
      "name": "voters",
      "outputs": [
        {
          "internalType": "bool",
          "name": "",
          "type": "bool"
        }
      ],
      "stateMutability": "view",
      "type": "function",
      "constant": true
    },
    {
      "inputs": [
        {
          "internalType": "string",
          "name": "nome",
          "type": "string"
        },
        {
          "internalType": "string",
          "name": "partito",
          "type": "string"
        },
        {
          "internalType": "string",
          "name": "logo",
          "type": "string"
        }
      ],
      "name": "addCandidate",
      "outputs": [],
      "stateMutability": "nonpayable",
      "type": "function"
    },
    {
      "inputs": [
        {
          "internalType": "uint256",
          "name": "_candidateId",
          "type": "uint256"
        }
      ],
      "name": "removeCandidate",
      "outputs": [],
      "stateMutability": "nonpayable",
      "type": "function"
    },
    {
      "inputs": [],
      "name": "openElection",
      "outputs": [
        {
          "internalType": "bool",
          "name": "",
          "type": "bool"
        }
      ],
      "stateMutability": "nonpayable",
      "type": "function"
    },
    {
      "inputs": [],
      "name": "closeElection",
      "outputs": [
        {
          "internalType": "bool",
          "name": "",
          "type": "bool"
        }
      ],
      "stateMutability": "nonpayable",
      "type": "function"
    },
    {
      "inputs": [],
      "name": "isElectionOpen",
      "outputs": [
        {
          "internalType": "bool",
          "name": "",
          "type": "bool"
        }
      ],
      "stateMutability": "nonpayable",
      "type": "function"
    },
    {
      "inputs": [
        {
          "internalType": "address",
          "name": "account",
          "type": "address"
        }
      ],
      "name": "isOwner",
      "outputs": [
        {
          "internalType": "bool",
          "name": "",
          "type": "bool"
        }
      ],
      "stateMutability": "view",
      "type": "function",
      "constant": true
    },
    {
      "inputs": [
        {
          "internalType": "uint256",
          "name": "_candidateId",
          "type": "uint256"
        }
      ],
      "name": "vote",
      "outputs": [],
      "stateMutability": "nonpayable",
      "type": "function"
    }
  ],
  "bytecode": "0x60806040523480156200001157600080fd5b50620000276000801b336200005860201b60201c565b620000376200006e60201b60201c565b6001600560006101000a81548160ff02191690831515021790555062000b3c565b6200006a8282620003b060201b60201c565b5050565b60006040518060a00160405280600181526020016040518060400160405280600e81526020017f47696f72676961204d656c6f6e690000000000000000000000000000000000008152508152602001600081526020016040518060400160405280600381526020017f464449000000000000000000000000000000000000000000000000000000000081525081526020016040518060800160405280604d8152602001620037b6604d9139815250905060006040518060a00160405280600281526020016040518060400160405280600c81526020017f4d617474656f2052656e7a6900000000000000000000000000000000000000008152508152602001600081526020016040518060400160405280600281526020017f495600000000000000000000000000000000000000000000000000000000000081525081526020016040518060800160405280604581526020016200380360459139815250905060006040518060a00160405280600381526020016040518060400160405280601081526020017f4361726d696e65204427416e67656c6f000000000000000000000000000000008152508152602001600081526020016040518060400160405280600381526020017f4e434f000000000000000000000000000000000000000000000000000000000081525081526020016040518060800160405280605981526020016200384860599139815250905060006040518060a00160405280600481526020016040518060400160405280601581526020017f4d617474656f204d657373696e612044656e61726f00000000000000000000008152508152602001600081526020016040518060400160405280600581526020017f4d4146494100000000000000000000000000000000000000000000000000000081525081526020016040518060800160405280605f815260200162003757605f913981525090506200034d846020015185606001518660800151620004a160201b60201c565b6200036c836020015184606001518560800151620004a160201b60201c565b6200038b826020015183606001518460800151620004a160201b60201c565b620003aa816020015182606001518360800151620004a160201b60201c565b50505050565b620003c28282620005ea60201b60201c565b6200049d57600160008084815260200190815260200160002060000160008373ffffffffffffffffffffffffffffffffffffffff1673ffffffffffffffffffffffffffffffffffffffff16815260200190815260200160002060006101000a81548160ff021916908315150217905550620004426200065460201b60201c565b73ffffffffffffffffffffffffffffffffffffffff168173ffffffffffffffffffffffffffffffffffffffff16837f2f8788117e7eff1d82e926ec794901d17c78024a50270940304540a733656f0d60405160405180910390a45b5050565b7f97cb40d38f4c4db2fe8d633d82729d64ea9d66937b525f8be969cc8b9c0c5d3833604051620004d29190620006bf565b60405180910390a1620004eb336200065c60201b60201c565b6200052d576040517f08c379a000000000000000000000000000000000000000000000000000000000815260040162000524906200073d565b60405180910390fd5b60046000815480929190620005429062000798565b91905055506040518060a0016040528060045481526020018481526020016000815260200183815260200182815250600260006004548152602001908152602001600020600082015181600001556020820151816001019081620005a7919062000a55565b50604082015181600201556060820151816003019081620005c9919062000a55565b506080820151816004019081620005e1919062000a55565b50905050505050565b600080600084815260200190815260200160002060000160008373ffffffffffffffffffffffffffffffffffffffff1673ffffffffffffffffffffffffffffffffffffffff16815260200190815260200160002060009054906101000a900460ff16905092915050565b600033905090565b6000620006736000801b83620005ea60201b60201c565b9050919050565b600073ffffffffffffffffffffffffffffffffffffffff82169050919050565b6000620006a7826200067a565b9050919050565b620006b9816200069a565b82525050565b6000602082019050620006d66000830184620006ae565b92915050565b600082825260208201905092915050565b7f46756e7a696f6e6520736f6c6f2070657220696c2070726f706965746172696f600082015250565b600062000725602083620006dc565b91506200073282620006ed565b602082019050919050565b60006020820190508181036000830152620007588162000716565b9050919050565b7f4e487b7100000000000000000000000000000000000000000000000000000000600052601160045260246000fd5b6000819050919050565b6000620007a5826200078e565b91507fffffffffffffffffffffffffffffffffffffffffffffffffffffffffffffffff8203620007da57620007d96200075f565b5b600182019050919050565b600081519050919050565b7f4e487b7100000000000000000000000000000000000000000000000000000000600052604160045260246000fd5b7f4e487b7100000000000000000000000000000000000000000000000000000000600052602260045260246000fd5b600060028204905060018216806200086757607f821691505b6020821081036200087d576200087c6200081f565b5b50919050565b60008190508160005260206000209050919050565b60006020601f8301049050919050565b600082821b905092915050565b600060088302620008e77fffffffffffffffffffffffffffffffffffffffffffffffffffffffffffffffff82620008a8565b620008f38683620008a8565b95508019841693508086168417925050509392505050565b6000819050919050565b600062000936620009306200092a846200078e565b6200090b565b6200078e565b9050919050565b6000819050919050565b620009528362000915565b6200096a62000961826200093d565b848454620008b5565b825550505050565b600090565b6200098162000972565b6200098e81848462000947565b505050565b5b81811015620009b657620009aa60008262000977565b60018101905062000994565b5050565b601f82111562000a0557620009cf8162000883565b620009da8462000898565b81016020851015620009ea578190505b62000a02620009f98562000898565b83018262000993565b50505b505050565b600082821c905092915050565b600062000a2a6000198460080262000a0a565b1980831691505092915050565b600062000a45838362000a17565b9150826002028217905092915050565b62000a6082620007e5565b67ffffffffffffffff81111562000a7c5762000a7b620007f0565b5b62000a8882546200084e565b62000a95828285620009ba565b600060209050601f83116001811462000acd576000841562000ab8578287015190505b62000ac4858262000a37565b86555062000b34565b601f19841662000add8662000883565b60005b8281101562000b075784890151825560018201915060208501945060208101905062000ae0565b8683101562000b27578489015162000b23601f89168262000a17565b8355505b6001600288020188555050505b505050505050565b612c0b8062000b4c6000396000f3fe608060405234801561001057600080fd5b506004361061012c5760003560e01c80636c6c32d0116100ad578063ad71f8dc11610071578063ad71f8dc1461035b578063b33c8dfa14610377578063c5d00f5d146103a7578063d547741f146103c5578063fcfff16f146103e15761012c565b80636c6c32d0146102a15780636f2cd40d146102bf57806391d14854146102dd578063a217fddf1461030d578063a3ec138d1461032b5761012c565b80632d35a8a2116100f45780632d35a8a2146101e75780632f2ff15d146102055780632f54bf6e146102215780633477ee2e1461025157806336568abe146102855761012c565b80630121b93f1461013157806301ffc9a71461014d57806309e9d7e21461017d578063248a9ca31461019957806324a897b9146101c9575b600080fd5b61014b60048036038101906101469190611a4b565b6103ff565b005b61016760048036038101906101629190611ad0565b61062b565b6040516101749190611b18565b60405180910390f35b61019760048036038101906101929190611a4b565b6106a5565b005b6101b360048036038101906101ae9190611b69565b610972565b6040516101c09190611ba5565b60405180910390f35b6101d1610991565b6040516101de9190611c50565b60405180910390f35b6101ef610a1f565b6040516101fc9190611c81565b60405180910390f35b61021f600480360381019061021a9190611cfa565b610a25565b005b61023b60048036038101906102369190611d3a565b610a46565b6040516102489190611b18565b60405180910390f35b61026b60048036038101906102669190611a4b565b610a5c565b60405161027c959493929190611d67565b60405180910390f35b61029f600480360381019061029a9190611cfa565b610c2a565b005b6102a9610cad565b6040516102b69190611b18565b60405180910390f35b6102c7611097565b6040516102d49190611b18565b60405180910390f35b6102f760048036038101906102f29190611cfa565b6110ae565b6040516103049190611b18565b60405180910390f35b610315611118565b6040516103229190611ba5565b60405180910390f35b61034560048036038101906103409190611d3a565b61111f565b6040516103529190611b18565b60405180910390f35b61037560048036038101906103709190611f04565b61113f565b005b610391600480360381019061038c9190611d3a565b611273565b60405161039e9190611c50565b60405180910390f35b6103af611313565b6040516103bc9190611b18565b60405180910390f35b6103df60048036038101906103da9190611cfa565b61140c565b005b6103e961142d565b6040516103f69190611b18565b60405180910390f35b600560009054906101000a900460ff1661044e576040517f08c379a000000000000000000000000000000000000000000000000000000000815260040161044590611ff7565b60405180910390fd5b600160003373ffffffffffffffffffffffffffffffffffffffff1673ffffffffffffffffffffffffffffffffffffffff16815260200190815260200160002060009054906101000a900460ff16156104db576040517f08c379a00000000000000000000000000000000000000000000000000000000081526004016104d290612063565b60405180910390fd5b6000811180156104ed57506004548111155b6104f657600080fd5b60018060003373ffffffffffffffffffffffffffffffffffffffff1673ffffffffffffffffffffffffffffffffffffffff16815260200190815260200160002060006101000a81548160ff021916908315150217905550600260008281526020019081526020016000206002016000815480929190610574906120b2565b919050555060026000828152602001908152602001600020600101600360003373ffffffffffffffffffffffffffffffffffffffff1673ffffffffffffffffffffffffffffffffffffffff16815260200190815260200160002090816105da9190612331565b50807f979840814b99e27d10388b0f146721af580825d27335aaf4e683f78f56be49c260026000848152602001908152602001600020600101604051610620919061249d565b60405180910390a250565b60007f7965db0b000000000000000000000000000000000000000000000000000000007bffffffffffffffffffffffffffffffffffffffffffffffffffffffff1916827bffffffffffffffffffffffffffffffffffffffffffffffffffffffff1916148061069e575061069d82611440565b5b9050919050565b7f97cb40d38f4c4db2fe8d633d82729d64ea9d66937b525f8be969cc8b9c0c5d38336040516106d491906124ce565b60405180910390a16106e533610a46565b610724576040517f08c379a000000000000000000000000000000000000000000000000000000000815260040161071b90612535565b60405180910390fd5b600560009054906101000a900460ff1615610774576040517f08c379a000000000000000000000000000000000000000000000000000000000815260040161076b906125c7565b60405180910390fd5b60008111801561078657506004548111155b6107c5576040517f08c379a00000000000000000000000000000000000000000000000000000000081526004016107bc90612633565b60405180910390fd5b600260008281526020019081526020016000206000808201600090556001820160006107f19190611975565b60028201600090556003820160006108099190611975565b6004820160006108199190611975565b50506004600081548092919061082e90612653565b919050555060008190505b60045481116108dd5760026000600183610853919061267c565b815260200190815260200160002060026000838152602001908152602001600020600082015481600001556001820181600101908161089291906126c6565b5060028201548160020155600382018160030190816108b191906126c6565b50600482018160040190816108c691906126c6565b5090505080806108d5906120b2565b915050610839565b506002600060016004546108f1919061267c565b81526020019081526020016000206000808201600090556001820160006109189190611975565b60028201600090556003820160006109309190611975565b6004820160006109409190611975565b5050807f20d7243f0784acc9041a7a8e8935b200eb8c016d8f93944acf368b87bee6352460405160405180910390a250565b6000806000838152602001908152602001600020600101549050919050565b6006805461099e90612129565b80601f01602080910402602001604051908101604052809291908181526020018280546109ca90612129565b8015610a175780601f106109ec57610100808354040283529160200191610a17565b820191906000526020600020905b8154815290600101906020018083116109fa57829003601f168201915b505050505081565b60045481565b610a2e82610972565b610a37816114aa565b610a4183836114be565b505050565b6000610a556000801b836110ae565b9050919050565b6002602052806000526040600020600091509050806000015490806001018054610a8590612129565b80601f0160208091040260200160405190810160405280929190818152602001828054610ab190612129565b8015610afe5780601f10610ad357610100808354040283529160200191610afe565b820191906000526020600020905b815481529060010190602001808311610ae157829003601f168201915b505050505090806002015490806003018054610b1990612129565b80601f0160208091040260200160405190810160405280929190818152602001828054610b4590612129565b8015610b925780601f10610b6757610100808354040283529160200191610b92565b820191906000526020600020905b815481529060010190602001808311610b7557829003601f168201915b505050505090806004018054610ba790612129565b80601f0160208091040260200160405190810160405280929190818152602001828054610bd390612129565b8015610c205780601f10610bf557610100808354040283529160200191610c20565b820191906000526020600020905b815481529060010190602001808311610c0357829003601f168201915b5050505050905085565b610c3261159e565b73ffffffffffffffffffffffffffffffffffffffff168173ffffffffffffffffffffffffffffffffffffffff1614610c9f576040517f08c379a0000000000000000000000000000000000000000000000000000000008152600401610c9690612820565b60405180910390fd5b610ca982826115a6565b5050565b60007f97cb40d38f4c4db2fe8d633d82729d64ea9d66937b525f8be969cc8b9c0c5d3833604051610cde91906124ce565b60405180910390a1610cef33610a46565b610d2e576040517f08c379a0000000000000000000000000000000000000000000000000000000008152600401610d2590612535565b60405180910390fd5b60011515600560009054906101000a900460ff16151514610d84576040517f08c379a0000000000000000000000000000000000000000000000000000000008152600401610d7b9061288c565b60405180910390fd5b6000600560006101000a81548160ff021916908315150217905550600080610daa6119b5565b6000600190505b6004548111611024578360026000838152602001908152602001600020600201541115610fe4576002600082815260200190815260200160002060020154935060019250600260008281526020019081526020016000206040518060a001604052908160008201548152602001600182018054610e2d90612129565b80601f0160208091040260200160405190810160405280929190818152602001828054610e5990612129565b8015610ea65780601f10610e7b57610100808354040283529160200191610ea6565b820191906000526020600020905b815481529060010190602001808311610e8957829003601f168201915b5050505050815260200160028201548152602001600382018054610ec990612129565b80601f0160208091040260200160405190810160405280929190818152602001828054610ef590612129565b8015610f425780601f10610f1757610100808354040283529160200191610f42565b820191906000526020600020905b815481529060010190602001808311610f2557829003601f168201915b50505050508152602001600482018054610f5b90612129565b80601f0160208091040260200160405190810160405280929190818152602001828054610f8790612129565b8015610fd45780601f10610fa957610100808354040283529160200191610fd4565b820191906000526020600020905b815481529060010190602001808311610fb757829003601f168201915b5050505050815250509150611011565b8360026000838152602001908152602001600020600201540361101057828061100c906120b2565b9350505b5b808061101c906120b2565b915050610db1565b506001821115611078576040518060400160405280600881526020017f506172656767696f0000000000000000000000000000000000000000000000008152506006908161107291906128ac565b5061108d565b80602001516006908161108b91906128ac565b505b6001935050505090565b6000600560009054906101000a900460ff16905090565b600080600084815260200190815260200160002060000160008373ffffffffffffffffffffffffffffffffffffffff1673ffffffffffffffffffffffffffffffffffffffff16815260200190815260200160002060009054906101000a900460ff16905092915050565b6000801b81565b60016020528060005260406000206000915054906101000a900460ff1681565b7f97cb40d38f4c4db2fe8d633d82729d64ea9d66937b525f8be969cc8b9c0c5d383360405161116e91906124ce565b60405180910390a161117f33610a46565b6111be576040517f08c379a00000000000000000000000000000000000000000000000000000000081526004016111b590612535565b60405180910390fd5b600460008154809291906111d1906120b2565b91905055506040518060a001604052806004548152602001848152602001600081526020018381526020018281525060026000600454815260200190815260200160002060008201518160000155602082015181600101908161123491906128ac565b5060408201518160020155606082015181600301908161125491906128ac565b50608082015181600401908161126a91906128ac565b50905050505050565b6003602052806000526040600020600091509050805461129290612129565b80601f01602080910402602001604051908101604052809291908181526020018280546112be90612129565b801561130b5780601f106112e05761010080835404028352916020019161130b565b820191906000526020600020905b8154815290600101906020018083116112ee57829003601f168201915b505050505081565b60007f97cb40d38f4c4db2fe8d633d82729d64ea9d66937b525f8be969cc8b9c0c5d383360405161134491906124ce565b60405180910390a161135533610a46565b611394576040517f08c379a000000000000000000000000000000000000000000000000000000000815260040161138b90612535565b60405180910390fd5b60001515600560009054906101000a900460ff161515146113ea576040517f08c379a00000000000000000000000000000000000000000000000000000000081526004016113e1906129ca565b60405180910390fd5b6001600560006101000a81548160ff0219169083151502179055506001905090565b61141582610972565b61141e816114aa565b61142883836115a6565b505050565b600560009054906101000a900460ff1681565b60007f01ffc9a7000000000000000000000000000000000000000000000000000000007bffffffffffffffffffffffffffffffffffffffffffffffffffffffff1916827bffffffffffffffffffffffffffffffffffffffffffffffffffffffff1916149050919050565b6114bb816114b661159e565b611687565b50565b6114c882826110ae565b61159a57600160008084815260200190815260200160002060000160008373ffffffffffffffffffffffffffffffffffffffff1673ffffffffffffffffffffffffffffffffffffffff16815260200190815260200160002060006101000a81548160ff02191690831515021790555061153f61159e565b73ffffffffffffffffffffffffffffffffffffffff168173ffffffffffffffffffffffffffffffffffffffff16837f2f8788117e7eff1d82e926ec794901d17c78024a50270940304540a733656f0d60405160405180910390a45b5050565b600033905090565b6115b082826110ae565b1561168357600080600084815260200190815260200160002060000160008373ffffffffffffffffffffffffffffffffffffffff1673ffffffffffffffffffffffffffffffffffffffff16815260200190815260200160002060006101000a81548160ff02191690831515021790555061162861159e565b73ffffffffffffffffffffffffffffffffffffffff168173ffffffffffffffffffffffffffffffffffffffff16837ff6391f5c32d9c69d2a47ea670b442974b53935d1edc7fd64eb21e047a839171b60405160405180910390a45b5050565b61169182826110ae565b6117085761169e8161170c565b6116ac8360001c6020611739565b6040516020016116bd929190612abe565b6040516020818303038152906040526040517f08c379a00000000000000000000000000000000000000000000000000000000081526004016116ff9190611c50565b60405180910390fd5b5050565b60606117328273ffffffffffffffffffffffffffffffffffffffff16601460ff16611739565b9050919050565b60606000600283600261174c9190612af8565b611756919061267c565b67ffffffffffffffff81111561176f5761176e611dd9565b5b6040519080825280601f01601f1916602001820160405280156117a15781602001600182028036833780820191505090505b5090507f3000000000000000000000000000000000000000000000000000000000000000816000815181106117d9576117d8612b3a565b5b60200101907effffffffffffffffffffffffffffffffffffffffffffffffffffffffffffff1916908160001a9053507f78000000000000000000000000000000000000000000000000000000000000008160018151811061183d5761183c612b3a565b5b60200101907effffffffffffffffffffffffffffffffffffffffffffffffffffffffffffff1916908160001a9053506000600184600261187d9190612af8565b611887919061267c565b90505b6001811115611927577f3031323334353637383961626364656600000000000000000000000000000000600f8616601081106118c9576118c8612b3a565b5b1a60f81b8282815181106118e0576118df612b3a565b5b60200101907effffffffffffffffffffffffffffffffffffffffffffffffffffffffffffff1916908160001a905350600485901c94508061192090612653565b905061188a565b506000841461196b576040517f08c379a000000000000000000000000000000000000000000000000000000000815260040161196290612bb5565b60405180910390fd5b8091505092915050565b50805461198190612129565b6000825580601f1061199357506119b2565b601f0160209004906000526020600020908101906119b191906119e4565b5b50565b6040518060a0016040528060008152602001606081526020016000815260200160608152602001606081525090565b5b808211156119fd5760008160009055506001016119e5565b5090565b6000604051905090565b600080fd5b600080fd5b6000819050919050565b611a2881611a15565b8114611a3357600080fd5b50565b600081359050611a4581611a1f565b92915050565b600060208284031215611a6157611a60611a0b565b5b6000611a6f84828501611a36565b91505092915050565b60007fffffffff0000000000000000000000000000000000000000000000000000000082169050919050565b611aad81611a78565b8114611ab857600080fd5b50565b600081359050611aca81611aa4565b92915050565b600060208284031215611ae657611ae5611a0b565b5b6000611af484828501611abb565b91505092915050565b60008115159050919050565b611b1281611afd565b82525050565b6000602082019050611b2d6000830184611b09565b92915050565b6000819050919050565b611b4681611b33565b8114611b5157600080fd5b50565b600081359050611b6381611b3d565b92915050565b600060208284031215611b7f57611b7e611a0b565b5b6000611b8d84828501611b54565b91505092915050565b611b9f81611b33565b82525050565b6000602082019050611bba6000830184611b96565b92915050565b600081519050919050565b600082825260208201905092915050565b60005b83811015611bfa578082015181840152602081019050611bdf565b60008484015250505050565b6000601f19601f8301169050919050565b6000611c2282611bc0565b611c2c8185611bcb565b9350611c3c818560208601611bdc565b611c4581611c06565b840191505092915050565b60006020820190508181036000830152611c6a8184611c17565b905092915050565b611c7b81611a15565b82525050565b6000602082019050611c966000830184611c72565b92915050565b600073ffffffffffffffffffffffffffffffffffffffff82169050919050565b6000611cc782611c9c565b9050919050565b611cd781611cbc565b8114611ce257600080fd5b50565b600081359050611cf481611cce565b92915050565b60008060408385031215611d1157611d10611a0b565b5b6000611d1f85828601611b54565b9250506020611d3085828601611ce5565b9150509250929050565b600060208284031215611d5057611d4f611a0b565b5b6000611d5e84828501611ce5565b91505092915050565b600060a082019050611d7c6000830188611c72565b8181036020830152611d8e8187611c17565b9050611d9d6040830186611c72565b8181036060830152611daf8185611c17565b90508181036080830152611dc38184611c17565b90509695505050505050565b600080fd5b600080fd5b7f4e487b7100000000000000000000000000000000000000000000000000000000600052604160045260246000fd5b611e1182611c06565b810181811067ffffffffffffffff82111715611e3057611e2f611dd9565b5b80604052505050565b6000611e43611a01565b9050611e4f8282611e08565b919050565b600067ffffffffffffffff821115611e6f57611e6e611dd9565b5b611e7882611c06565b9050602081019050919050565b82818337600083830152505050565b6000611ea7611ea284611e54565b611e39565b905082815260208101848484011115611ec357611ec2611dd4565b5b611ece848285611e85565b509392505050565b600082601f830112611eeb57611eea611dcf565b5b8135611efb848260208601611e94565b91505092915050565b600080600060608486031215611f1d57611f1c611a0b565b5b600084013567ffffffffffffffff811115611f3b57611f3a611a10565b5b611f4786828701611ed6565b935050602084013567ffffffffffffffff811115611f6857611f67611a10565b5b611f7486828701611ed6565b925050604084013567ffffffffffffffff811115611f9557611f94611a10565b5b611fa186828701611ed6565b9150509250925092565b7f456c657a696f6e69207465726d696e6174650000000000000000000000000000600082015250565b6000611fe1601283611bcb565b9150611fec82611fab565b602082019050919050565b6000602082019050818103600083015261201081611fd4565b9050919050565b7f4861692067696120766f7461746f000000000000000000000000000000000000600082015250565b600061204d600e83611bcb565b915061205882612017565b602082019050919050565b6000602082019050818103600083015261207c81612040565b9050919050565b7f4e487b7100000000000000000000000000000000000000000000000000000000600052601160045260246000fd5b60006120bd82611a15565b91507fffffffffffffffffffffffffffffffffffffffffffffffffffffffffffffffff82036120ef576120ee612083565b5b600182019050919050565b7f4e487b7100000000000000000000000000000000000000000000000000000000600052602260045260246000fd5b6000600282049050600182168061214157607f821691505b602082108103612154576121536120fa565b5b50919050565b60008154905061216981612129565b9050919050565b60008190508160005260206000209050919050565b60008190508160005260206000209050919050565b60006020601f8301049050919050565b600082821b905092915050565b6000600883026121e77fffffffffffffffffffffffffffffffffffffffffffffffffffffffffffffffff826121aa565b6121f186836121aa565b95508019841693508086168417925050509392505050565b6000819050919050565b600061222e61222961222484611a15565b612209565b611a15565b9050919050565b6000819050919050565b61224883612213565b61225c61225482612235565b8484546121b7565b825550505050565b600090565b612271612264565b61227c81848461223f565b505050565b5b818110156122a057612295600082612269565b600181019050612282565b5050565b601f8211156122e5576122b681612170565b6122bf8461219a565b810160208510156122ce578190505b6122e26122da8561219a565b830182612281565b50505b505050565b600082821c905092915050565b6000612308600019846008026122ea565b1980831691505092915050565b600061232183836122f7565b9150826002028217905092915050565b81810361233f575050612417565b6123488261215a565b67ffffffffffffffff81111561236157612360611dd9565b5b61236b8254612129565b6123768282856122a4565b6000601f8311600181146123a55760008415612393578287015490505b61239d8582612315565b865550612410565b601f1984166123b387612185565b96506123be86612170565b60005b828110156123e6578489015482556001820191506001850194506020810190506123c1565b8683101561240357848901546123ff601f8916826122f7565b8355505b6001600288020188555050505b5050505050505b565b6000815461242681612129565b6124308186611bcb565b9450600182166000811461244b576001811461246157612494565b60ff198316865281151560200286019350612494565b61246a85612170565b60005b8381101561248c5781548189015260018201915060208101905061246d565b808801955050505b50505092915050565b600060208201905081810360008301526124b78184612419565b905092915050565b6124c881611cbc565b82525050565b60006020820190506124e360008301846124bf565b92915050565b7f46756e7a696f6e6520736f6c6f2070657220696c2070726f706965746172696f600082015250565b600061251f602083611bcb565b915061252a826124e9565b602082019050919050565b6000602082019050818103600083015261254e81612512565b9050919050565b7f456c657a696f6e69206170657274652c20696d706f73736962696c652072696d60008201527f756f7665726520756e2063616e64696461746f00000000000000000000000000602082015250565b60006125b1603383611bcb565b91506125bc82612555565b604082019050919050565b600060208201905081810360008301526125e0816125a4565b9050919050565b7f49642063616e64696461746f206e6f6e2076616c69646f210000000000000000600082015250565b600061261d601883611bcb565b9150612628826125e7565b602082019050919050565b6000602082019050818103600083015261264c81612610565b9050919050565b600061265e82611a15565b91506000820361267157612670612083565b5b600182039050919050565b600061268782611a15565b915061269283611a15565b92508282019050808211156126aa576126a9612083565b5b92915050565b6000815490506126bf81612129565b9050919050565b8181036126d45750506127ac565b6126dd826126b0565b67ffffffffffffffff8111156126f6576126f5611dd9565b5b6127008254612129565b61270b8282856122a4565b6000601f83116001811461273a5760008415612728578287015490505b6127328582612315565b8655506127a5565b601f19841661274887612170565b965061275386612170565b60005b8281101561277b57848901548255600182019150600185019450602081019050612756565b868310156127985784890154612794601f8916826122f7565b8355505b6001600288020188555050505b5050505050505b565b7f416363657373436f6e74726f6c3a2063616e206f6e6c792072656e6f756e636560008201527f20726f6c657320666f722073656c660000000000000000000000000000000000602082015250565b600061280a602f83611bcb565b9150612815826127ae565b604082019050919050565b60006020820190508181036000830152612839816127fd565b9050919050565b7f456c657a696f6e65206769612063686975736521000000000000000000000000600082015250565b6000612876601483611bcb565b915061288182612840565b602082019050919050565b600060208201905081810360008301526128a581612869565b9050919050565b6128b582611bc0565b67ffffffffffffffff8111156128ce576128cd611dd9565b5b6128d88254612129565b6128e38282856122a4565b600060209050601f8311600181146129165760008415612904578287015190505b61290e8582612315565b865550612976565b601f19841661292486612170565b60005b8281101561294c57848901518255600182019150602085019450602081019050612927565b868310156129695784890151612965601f8916826122f7565b8355505b6001600288020188555050505b505050505050565b7f456c657a696f6e65206769612061706572746121000000000000000000000000600082015250565b60006129b4601483611bcb565b91506129bf8261297e565b602082019050919050565b600060208201905081810360008301526129e3816129a7565b9050919050565b600081905092915050565b7f416363657373436f6e74726f6c3a206163636f756e7420000000000000000000600082015250565b6000612a2b6017836129ea565b9150612a36826129f5565b601782019050919050565b6000612a4c82611bc0565b612a5681856129ea565b9350612a66818560208601611bdc565b80840191505092915050565b7f206973206d697373696e6720726f6c6520000000000000000000000000000000600082015250565b6000612aa86011836129ea565b9150612ab382612a72565b601182019050919050565b6000612ac982612a1e565b9150612ad58285612a41565b9150612ae082612a9b565b9150612aec8284612a41565b91508190509392505050565b6000612b0382611a15565b9150612b0e83611a15565b9250828202612b1c81611a15565b91508282048414831517612b3357612b32612083565b5b5092915050565b7f4e487b7100000000000000000000000000000000000000000000000000000000600052603260045260246000fd5b7f537472696e67733a20686578206c656e67746820696e73756666696369656e74600082015250565b6000612b9f602083611bcb565b9150612baa82612b69565b602082019050919050565b60006020820190508181036000830152612bce81612b92565b905091905056fea2646970667358221220be09b4d8c5d3053c5518cea58c31b344687c50cd5ae61c4b72c4f347a24d2de364736f6c6343000811003368747470733a2f2f7777772e6d6574726f706f6c69737765622e69742f6d6574726f706f6c69737765622f6e6577732f77702d636f6e74656e742f75706c6f6164732f73697465732f322f323032332f30312f6d657373696e612d2e6a706768747470733a2f2f692e706f7374696d672e63632f6a354e38763634512f7669676e657474652d646976657274656e74692d656c657a696f6e692d67696f726769612d6d656c6f6e692e6a706768747470733a2f2f7777772e766973746f73756c7765622e636f6d2f77702d636f6e74656e742f75706c6f6164732f323032312f30322f736166655f696d6167652e6a706768747470733a2f2f6769746875622e636f6d2f6d6174746472352f53696d706c65452d566f74696e6753797374656d2f626c6f622f6d61696e2f7372632f696d616765732f63617264616e6f2e6a70673f7261773d74727565",
  "immutableReferences": {},
  "source": "pragma solidity ^0.8.0;\r\n\r\nimport \"@openzeppelin/contracts/access/AccessControl.sol\";\r\n\r\n\r\ncontract Election is AccessControl {\r\n    // Model a Candidate\r\n    struct Candidate {\r\n        uint id;\r\n        string name;\r\n        uint voteCount;\r\n        string partyShortcut;\r\n        string partyFlag;\r\n    }\r\n\r\n\r\n    event votedEvent (\r\n        uint indexed _candidateId,  string candidateName\r\n    );\r\n    event checksoloOwner(address user);\r\n    event removedCandidateEvent (uint indexed _candidateId);\r\n\r\n\r\n    // Store accounts that have voted\r\n    mapping(address => bool) public voters;\r\n    // Read/write candidates\r\n    mapping(uint => Candidate) public candidates;\r\n    mapping(address => string) public candidateVoted;\r\n    \r\n    // Store Candidates Count\r\n    uint public candidatesCount;\r\n    bool public open; //Mostra se un'elezione  aperta o chiusa\r\n    string public risultatoElezione; //Risultato elezione \"Pareggio\" o \"Nome candidato\"\r\n    \r\n    constructor () public {\r\n        _setupRole(DEFAULT_ADMIN_ROLE, msg.sender);\r\n        inizializzaDatabaseCandidati();\r\n        open = true; //Elezioni aperte\r\n    }\r\n\r\n\r\n    function addCandidate (string memory nome, string memory partito, string memory logo) public soloOwner {\r\n        candidatesCount ++;\r\n        candidates[candidatesCount] = Candidate(candidatesCount, nome, 0, partito, logo);\r\n    }\r\n\r\n    function removeCandidate(uint _candidateId) public soloOwner {\r\n        require(!open, \"Elezioni aperte, impossibile rimuovere un candidato\");\r\n        require(_candidateId > 0 && _candidateId <= candidatesCount, \"Id candidato non valido!\");\r\n        delete candidates[_candidateId];\r\n        candidatesCount--;\r\n        // Shift the candidates' ids down by one starting from the removed candidate's id\r\n        for (uint i = _candidateId; i <= candidatesCount; i++) {\r\n            candidates[i] = candidates[i+1];\r\n        }\r\n        delete candidates[candidatesCount+1];\r\n        emit removedCandidateEvent(_candidateId);\r\n\r\n    }\r\n\r\n    function openElection() public soloOwner returns (bool){\r\n        require(open == false, \"Elezione gia aperta!\"); //Se l'elezione  chiusa..\r\n        open = true;\r\n\r\n        return true; //Operazione riuscita!\r\n    }\r\n\r\n    function closeElection() public soloOwner returns (bool){\r\n        require(open == true, \"Elezione gia chiuse!\"); //Se l'elezione  aperta..\r\n        open = false;\r\n\r\n        uint maxVotes = 0;\r\n        uint countMaxVotes = 0;\r\n        Candidate memory candidatoVincitore;\r\n        for (uint i = 1; i <= candidatesCount; i++) {\r\n            if(candidates[i].voteCount > maxVotes){\r\n                maxVotes = candidates[i].voteCount;\r\n                countMaxVotes = 1;\r\n                candidatoVincitore = candidates[i];\r\n            }else if(candidates[i].voteCount == maxVotes){\r\n                countMaxVotes++;\r\n            }\r\n        }\r\n        if(countMaxVotes > 1){\r\n            risultatoElezione = \"Pareggio\";\r\n        }\r\n        else{\r\n            risultatoElezione = candidatoVincitore.name;\r\n        }\r\n\r\n        return true; //Operazione riuscita! \r\n    }\r\n\r\n    function isElectionOpen() public returns (bool){\r\n        return open;\r\n    }\r\n\r\n    modifier soloOwner() {\r\n      emit checksoloOwner(msg.sender);\r\n      require(isOwner(msg.sender), \"Funzione solo per il propietario\");\r\n      _;\r\n    }\r\n\r\n    function isOwner(address account) public virtual view returns (bool) {\r\n      return hasRole(DEFAULT_ADMIN_ROLE, account);\r\n    }\r\n\r\n    function vote (uint _candidateId) public {\r\n\r\n        require(open, \"Elezioni terminate\");\r\n        // Requisiti per il votante\r\n        require(!voters[msg.sender], \"Hai gia votato\");\r\n\r\n        // Requisiti per un candidato\r\n        require(_candidateId > 0 && _candidateId <= candidatesCount);\r\n\r\n        // Ricordo che chi vota non pu pi votare\r\n        voters[msg.sender] = true;\r\n\r\n        // Aggiorno il voto del candidato\r\n        candidates[_candidateId].voteCount++;\r\n\r\n        // Aggiornamente del candidato votato!\r\n        candidateVoted[msg.sender] = candidates[_candidateId].name;\r\n        \r\n        // trigger voted event\r\n        emit votedEvent(_candidateId,  candidates[_candidateId].name);\r\n    }\r\n\r\n    /**\r\n     * Inizializza i candidati\r\n     */\r\n    function inizializzaDatabaseCandidati() internal {\r\n        Candidate memory candidate_1= Candidate({\r\n            id: 1,\r\n            name: \"Giorgia Meloni\",\r\n            voteCount: 0,\r\n            partyShortcut: \"FDI\",\r\n            partyFlag: \"https://i.postimg.cc/j5N8v64Q/vignette-divertenti-elezioni-giorgia-meloni.jpg\"\r\n            \r\n        });\r\n        Candidate memory candidate_2 = Candidate({\r\n            id: 2,\r\n            name: \"Matteo Renzi\",\r\n            voteCount: 0,\r\n            partyShortcut: \"IV\",\r\n            partyFlag: \"https://www.vistosulweb.com/wp-content/uploads/2021/02/safe_image.jpg\"\r\n            \r\n        });\r\n        Candidate memory candidate_3 = Candidate({\r\n            id: 3,\r\n            name: \"Carmine D'Angelo\",\r\n            voteCount: 0,\r\n            partyShortcut: \"NCO\",\r\n            partyFlag: \"https://github.com/mattdr5/SimpleE-VotingSystem/blob/main/src/images/cardano.jpg?raw=true\"\r\n        });\r\n        Candidate memory candidate_4 = Candidate({\r\n            id: 4,\r\n            name: \"Matteo Messina Denaro\",\r\n            voteCount: 0,\r\n            partyShortcut: \"MAFIA\",\r\n            partyFlag: \"https://www.metropolisweb.it/metropolisweb/news/wp-content/uploads/sites/2/2023/01/messina-.jpg\"\r\n        });\r\n\r\n        addCandidate(candidate_1.name,candidate_1.partyShortcut, candidate_1.partyFlag);\r\n        addCandidate(candidate_2.name,candidate_2.partyShortcut, candidate_2.partyFlag);\r\n        addCandidate(candidate_3.name,candidate_3.partyShortcut, candidate_3.partyFlag);\r\n        addCandidate(candidate_4.name,candidate_4.partyShortcut, candidate_4.partyFlag);\r\n\r\n   \r\n    }\r\n}\r\n\r\n    ",
  "sourcePath": "C:\\Users\\della\\OneDrive\\Desktop\\SimpleE-VotingSystem\\SimpleE-VotingSystem\\contracts\\Election.sol",
  "compiler": {
    "name": "solc",
    "version": "0.8.17+commit.8df45f5f.Emscripten.clang"
  },
  "schemaVersion": "3.4.11",
  "updatedAt": "2023-01-19T21:29:05.851Z",
  "networkType": "ethereum",
  "devdoc": {
    "kind": "dev",
    "methods": {
      "getRoleAdmin(bytes32)": {
        "details": "Returns the admin role that controls `role`. See {grantRole} and {revokeRole}. To change a role's admin, use {_setRoleAdmin}."
      },
      "grantRole(bytes32,address)": {
        "details": "Grants `role` to `account`. If `account` had not been already granted `role`, emits a {RoleGranted} event. Requirements: - the caller must have ``role``'s admin role. May emit a {RoleGranted} event."
      },
      "hasRole(bytes32,address)": {
        "details": "Returns `true` if `account` has been granted `role`."
      },
      "renounceRole(bytes32,address)": {
        "details": "Revokes `role` from the calling account. Roles are often managed via {grantRole} and {revokeRole}: this function's purpose is to provide a mechanism for accounts to lose their privileges if they are compromised (such as when a trusted device is misplaced). If the calling account had been revoked `role`, emits a {RoleRevoked} event. Requirements: - the caller must be `account`. May emit a {RoleRevoked} event."
      },
      "revokeRole(bytes32,address)": {
        "details": "Revokes `role` from `account`. If `account` had been granted `role`, emits a {RoleRevoked} event. Requirements: - the caller must have ``role``'s admin role. May emit a {RoleRevoked} event."
      },
      "supportsInterface(bytes4)": {
        "details": "See {IERC165-supportsInterface}."
      }
    },
    "version": 1
  },
  "userdoc": {
    "kind": "user",
    "methods": {},
    "version": 1
  }
}