{
  "contractName": "Election",
  "abi": [
    {
      "inputs": [],
      "stateMutability": "nonpayable",
      "type": "constructor"
    },
    {
      "anonymous": false,
      "inputs": [
        {
          "indexed": false,
          "internalType": "bool",
          "name": "open",
          "type": "bool"
        }
      ],
      "name": "CandidatoAggiunto",
      "type": "event"
    },
    {
      "anonymous": false,
      "inputs": [
        {
          "indexed": false,
          "internalType": "address",
          "name": "user",
          "type": "address"
        }
      ],
      "name": "ChecksoloVoter",
      "type": "event"
    },
    {
      "anonymous": false,
      "inputs": [
        {
          "indexed": true,
          "internalType": "bytes32",
          "name": "role",
          "type": "bytes32"
        },
        {
          "indexed": true,
          "internalType": "bytes32",
          "name": "previousAdminRole",
          "type": "bytes32"
        },
        {
          "indexed": true,
          "internalType": "bytes32",
          "name": "newAdminRole",
          "type": "bytes32"
        }
      ],
      "name": "RoleAdminChanged",
      "type": "event"
    },
    {
      "anonymous": false,
      "inputs": [
        {
          "indexed": true,
          "internalType": "bytes32",
          "name": "role",
          "type": "bytes32"
        },
        {
          "indexed": true,
          "internalType": "address",
          "name": "account",
          "type": "address"
        },
        {
          "indexed": true,
          "internalType": "address",
          "name": "sender",
          "type": "address"
        }
      ],
      "name": "RoleGranted",
      "type": "event"
    },
    {
      "anonymous": false,
      "inputs": [
        {
          "indexed": true,
          "internalType": "bytes32",
          "name": "role",
          "type": "bytes32"
        },
        {
          "indexed": true,
          "internalType": "address",
          "name": "account",
          "type": "address"
        },
        {
          "indexed": true,
          "internalType": "address",
          "name": "sender",
          "type": "address"
        }
      ],
      "name": "RoleRevoked",
      "type": "event"
    },
    {
      "anonymous": false,
      "inputs": [
        {
          "indexed": false,
          "internalType": "address",
          "name": "user",
          "type": "address"
        }
      ],
      "name": "checksoloOwner",
      "type": "event"
    },
    {
      "anonymous": false,
      "inputs": [
        {
          "indexed": true,
          "internalType": "uint256",
          "name": "_candidateId",
          "type": "uint256"
        }
      ],
      "name": "removedCandidateEvent",
      "type": "event"
    },
    {
      "anonymous": false,
      "inputs": [],
      "name": "resetElectionEvent",
      "type": "event"
    },
    {
      "anonymous": false,
      "inputs": [
        {
          "indexed": true,
          "internalType": "uint256",
          "name": "_candidateId",
          "type": "uint256"
        },
        {
          "indexed": false,
          "internalType": "string",
          "name": "candidateName",
          "type": "string"
        }
      ],
      "name": "votedEvent",
      "type": "event"
    },
    {
      "inputs": [],
      "name": "DEFAULT_ADMIN_ROLE",
      "outputs": [
        {
          "internalType": "bytes32",
          "name": "",
          "type": "bytes32"
        }
      ],
      "stateMutability": "view",
      "type": "function",
      "constant": true
    },
    {
      "inputs": [],
      "name": "VOTER_ROLE",
      "outputs": [
        {
          "internalType": "bytes32",
          "name": "",
          "type": "bytes32"
        }
      ],
      "stateMutability": "view",
      "type": "function",
      "constant": true
    },
    {
      "inputs": [
        {
          "internalType": "address",
          "name": "",
          "type": "address"
        }
      ],
      "name": "candidateVoted",
      "outputs": [
        {
          "internalType": "string",
          "name": "",
          "type": "string"
        }
      ],
      "stateMutability": "view",
      "type": "function",
      "constant": true
    },
    {
      "inputs": [
        {
          "internalType": "uint256",
          "name": "",
          "type": "uint256"
        }
      ],
      "name": "candidates",
      "outputs": [
        {
          "internalType": "uint256",
          "name": "id",
          "type": "uint256"
        },
        {
          "internalType": "string",
          "name": "name",
          "type": "string"
        },
        {
          "internalType": "uint256",
          "name": "voteCount",
          "type": "uint256"
        },
        {
          "internalType": "string",
          "name": "partyShortcut",
          "type": "string"
        },
        {
          "internalType": "string",
          "name": "partyFlag",
          "type": "string"
        }
      ],
      "stateMutability": "view",
      "type": "function",
      "constant": true
    },
    {
      "inputs": [],
      "name": "candidatesCount",
      "outputs": [
        {
          "internalType": "uint256",
          "name": "",
          "type": "uint256"
        }
      ],
      "stateMutability": "view",
      "type": "function",
      "constant": true
    },
    {
      "inputs": [
        {
          "internalType": "bytes32",
          "name": "role",
          "type": "bytes32"
        }
      ],
      "name": "getRoleAdmin",
      "outputs": [
        {
          "internalType": "bytes32",
          "name": "",
          "type": "bytes32"
        }
      ],
      "stateMutability": "view",
      "type": "function",
      "constant": true
    },
    {
      "inputs": [
        {
          "internalType": "bytes32",
          "name": "role",
          "type": "bytes32"
        },
        {
          "internalType": "address",
          "name": "account",
          "type": "address"
        }
      ],
      "name": "grantRole",
      "outputs": [],
      "stateMutability": "nonpayable",
      "type": "function"
    },
    {
      "inputs": [
        {
          "internalType": "bytes32",
          "name": "role",
          "type": "bytes32"
        },
        {
          "internalType": "address",
          "name": "account",
          "type": "address"
        }
      ],
      "name": "hasRole",
      "outputs": [
        {
          "internalType": "bool",
          "name": "",
          "type": "bool"
        }
      ],
      "stateMutability": "view",
      "type": "function",
      "constant": true
    },
    {
      "inputs": [
        {
          "internalType": "uint256",
          "name": "",
          "type": "uint256"
        }
      ],
      "name": "listaVotanti",
      "outputs": [
        {
          "internalType": "address",
          "name": "",
          "type": "address"
        }
      ],
      "stateMutability": "view",
      "type": "function",
      "constant": true
    },
    {
      "inputs": [],
      "name": "open",
      "outputs": [
        {
          "internalType": "bool",
          "name": "",
          "type": "bool"
        }
      ],
      "stateMutability": "view",
      "type": "function",
      "constant": true
    },
    {
      "inputs": [
        {
          "internalType": "bytes32",
          "name": "role",
          "type": "bytes32"
        },
        {
          "internalType": "address",
          "name": "account",
          "type": "address"
        }
      ],
      "name": "renounceRole",
      "outputs": [],
      "stateMutability": "nonpayable",
      "type": "function"
    },
    {
      "inputs": [
        {
          "internalType": "bytes32",
          "name": "role",
          "type": "bytes32"
        },
        {
          "internalType": "address",
          "name": "account",
          "type": "address"
        }
      ],
      "name": "revokeRole",
      "outputs": [],
      "stateMutability": "nonpayable",
      "type": "function"
    },
    {
      "inputs": [],
      "name": "risultatoElezione",
      "outputs": [
        {
          "internalType": "string",
          "name": "",
          "type": "string"
        }
      ],
      "stateMutability": "view",
      "type": "function",
      "constant": true
    },
    {
      "inputs": [
        {
          "internalType": "bytes4",
          "name": "interfaceId",
          "type": "bytes4"
        }
      ],
      "name": "supportsInterface",
      "outputs": [
        {
          "internalType": "bool",
          "name": "",
          "type": "bool"
        }
      ],
      "stateMutability": "view",
      "type": "function",
      "constant": true
    },
    {
      "inputs": [
        {
          "internalType": "address",
          "name": "",
          "type": "address"
        }
      ],
      "name": "voters",
      "outputs": [
        {
          "internalType": "bool",
          "name": "",
          "type": "bool"
        }
      ],
      "stateMutability": "view",
      "type": "function",
      "constant": true
    },
    {
      "inputs": [
        {
          "internalType": "string",
          "name": "nome",
          "type": "string"
        },
        {
          "internalType": "string",
          "name": "partito",
          "type": "string"
        },
        {
          "internalType": "string",
          "name": "logo",
          "type": "string"
        }
      ],
      "name": "addCandidate",
      "outputs": [],
      "stateMutability": "nonpayable",
      "type": "function"
    },
    {
      "inputs": [
        {
          "internalType": "uint256",
          "name": "_candidateId",
          "type": "uint256"
        }
      ],
      "name": "removeCandidate",
      "outputs": [],
      "stateMutability": "nonpayable",
      "type": "function"
    },
    {
      "inputs": [],
      "name": "resetElection",
      "outputs": [],
      "stateMutability": "nonpayable",
      "type": "function"
    },
    {
      "inputs": [],
      "name": "openElection",
      "outputs": [
        {
          "internalType": "bool",
          "name": "",
          "type": "bool"
        }
      ],
      "stateMutability": "nonpayable",
      "type": "function"
    },
    {
      "inputs": [],
      "name": "closeElection",
      "outputs": [
        {
          "internalType": "bool",
          "name": "",
          "type": "bool"
        }
      ],
      "stateMutability": "nonpayable",
      "type": "function"
    },
    {
      "inputs": [],
      "name": "isElectionOpen",
      "outputs": [
        {
          "internalType": "bool",
          "name": "",
          "type": "bool"
        }
      ],
      "stateMutability": "view",
      "type": "function",
      "constant": true
    },
    {
      "inputs": [
        {
          "internalType": "address",
          "name": "account",
          "type": "address"
        }
      ],
      "name": "isOwner",
      "outputs": [
        {
          "internalType": "bool",
          "name": "",
          "type": "bool"
        }
      ],
      "stateMutability": "view",
      "type": "function",
      "constant": true
    },
    {
      "inputs": [
        {
          "internalType": "address",
          "name": "account",
          "type": "address"
        }
      ],
      "name": "isVoter",
      "outputs": [
        {
          "internalType": "bool",
          "name": "",
          "type": "bool"
        }
      ],
      "stateMutability": "view",
      "type": "function",
      "constant": true
    },
    {
      "inputs": [
        {
          "internalType": "uint256",
          "name": "_candidateId",
          "type": "uint256"
        }
      ],
      "name": "vote",
      "outputs": [],
      "stateMutability": "nonpayable",
      "type": "function"
    }
  ],
  "bytecode": "0x60806040523480156200001157600080fd5b50620000276000801b336200009160201b60201c565b600060048190555060405180602001604052806000815250600690816200004f919062000cfa565b5062000060620000a760201b60201c565b62000070620006a560201b60201c565b6001600560006101000a81548160ff02191690831515021790555062000e5d565b620000a382826200091d60201b60201c565b5050565b60006040518060a00160405280600181526020016040518060400160405280600e81526020017f47696f72676961204d656c6f6e690000000000000000000000000000000000008152508152602001600081526020016040518060400160405280600381526020017f464449000000000000000000000000000000000000000000000000000000000081525081526020016040518060800160405280604d815260200162004364604d9139815250905060006040518060a00160405280600281526020016040518060400160405280601281526020017f4d617474656f2044656c6c6120526f63636100000000000000000000000000008152508152602001600081526020016040518060400160405280600781526020017f46726565646f6d0000000000000000000000000000000000000000000000000081525081526020016040518060400160405280601981526020017f2e2f696d616765732f6d64722d636f6c6f7261746f2e6a706700000000000000815250815250905060006040518060a00160405280600381526020016040518060400160405280601081526020017f4361726d696e65204427416e67656c6f000000000000000000000000000000008152508152602001600081526020016040518060400160405280600381526020017f4e434f00000000000000000000000000000000000000000000000000000000008152508152602001604051806080016040528060598152602001620043b160599139815250905060006040518060a00160405280600481526020016040518060400160405280601581526020017f4d617474656f204d657373696e612044656e61726f00000000000000000000008152508152602001600081526020016040518060400160405280600581526020017f4d4146494100000000000000000000000000000000000000000000000000000081525081526020016040518060800160405280605f815260200162004305605f9139815250905060046000815480929190620003989062000e10565b91905055506040518060a00160405280600454815260200185602001518152602001856040015181526020018560600151815260200185608001518152506002600060045481526020019081526020016000206000820151816000015560208201518160010190816200040c919062000cfa565b506040820151816002015560608201518160030190816200042e919062000cfa565b50608082015181600401908162000446919062000cfa565b50905050600460008154809291906200045f9062000e10565b91905055506040518060a0016040528060045481526020018460200151815260200184604001518152602001846060015181526020018460800151815250600260006004548152602001908152602001600020600082015181600001556020820151816001019081620004d3919062000cfa565b50604082015181600201556060820151816003019081620004f5919062000cfa565b5060808201518160040190816200050d919062000cfa565b5090505060046000815480929190620005269062000e10565b91905055506040518060a00160405280600454815260200183602001518152602001836040015181526020018360600151815260200183608001518152506002600060045481526020019081526020016000206000820151816000015560208201518160010190816200059a919062000cfa565b50604082015181600201556060820151816003019081620005bc919062000cfa565b506080820151816004019081620005d4919062000cfa565b5090505060046000815480929190620005ed9062000e10565b91905055506040518060a001604052806004548152602001826020015181526020018260400151815260200182606001518152602001826080015181525060026000600454815260200190815260200160002060008201518160000155602082015181600101908162000661919062000cfa565b5060408201518160020155606082015181600301908162000683919062000cfa565b5060808201518160040190816200069b919062000cfa565b5090505050505050565b620006eb7f72c3eec1760bf69946625c2d4fb8e44e2c806345041960b434674fb9ab3976cf731a8f33524ac8642f2a8af58444354cd7de75dcda6200009160201b60201c565b620007317f72c3eec1760bf69946625c2d4fb8e44e2c806345041960b434674fb9ab3976cf73c7e1f5a46f4ea402242a01215c92fa05040aa3c56200009160201b60201c565b620007777f72c3eec1760bf69946625c2d4fb8e44e2c806345041960b434674fb9ab3976cf733ba20119f0f6f4bcf30e570cfdf4fb8082f982b86200009160201b60201c565b620007bd7f72c3eec1760bf69946625c2d4fb8e44e2c806345041960b434674fb9ab3976cf736b543d4b4b411dbe3373f31e002c85ec7285f81c6200009160201b60201c565b620008037f72c3eec1760bf69946625c2d4fb8e44e2c806345041960b434674fb9ab3976cf73b0950983e2972c6ee556414eb9843a002c83f55d6200009160201b60201c565b620008497f72c3eec1760bf69946625c2d4fb8e44e2c806345041960b434674fb9ab3976cf73ed778a60005fe6545b16668271184c3649e7b4056200009160201b60201c565b6200088f7f72c3eec1760bf69946625c2d4fb8e44e2c806345041960b434674fb9ab3976cf738cf71aa476700f12ae3c61e99bf143dcd833a97d6200009160201b60201c565b620008d57f72c3eec1760bf69946625c2d4fb8e44e2c806345041960b434674fb9ab3976cf735083b9406b017ae080229a91978f079a126e875d6200009160201b60201c565b6200091b7f72c3eec1760bf69946625c2d4fb8e44e2c806345041960b434674fb9ab3976cf732f85bd106166d9964f15b0d432f65fd4b373412a6200009160201b60201c565b565b6200092f828262000a0e60201b60201c565b62000a0a57600160008084815260200190815260200160002060000160008373ffffffffffffffffffffffffffffffffffffffff1673ffffffffffffffffffffffffffffffffffffffff16815260200190815260200160002060006101000a81548160ff021916908315150217905550620009af62000a7860201b60201c565b73ffffffffffffffffffffffffffffffffffffffff168173ffffffffffffffffffffffffffffffffffffffff16837f2f8788117e7eff1d82e926ec794901d17c78024a50270940304540a733656f0d60405160405180910390a45b5050565b600080600084815260200190815260200160002060000160008373ffffffffffffffffffffffffffffffffffffffff1673ffffffffffffffffffffffffffffffffffffffff16815260200190815260200160002060009054906101000a900460ff16905092915050565b600033905090565b600081519050919050565b7f4e487b7100000000000000000000000000000000000000000000000000000000600052604160045260246000fd5b7f4e487b7100000000000000000000000000000000000000000000000000000000600052602260045260246000fd5b6000600282049050600182168062000b0257607f821691505b60208210810362000b185762000b1762000aba565b5b50919050565b60008190508160005260206000209050919050565b60006020601f8301049050919050565b600082821b905092915050565b60006008830262000b827fffffffffffffffffffffffffffffffffffffffffffffffffffffffffffffffff8262000b43565b62000b8e868362000b43565b95508019841693508086168417925050509392505050565b6000819050919050565b6000819050919050565b600062000bdb62000bd562000bcf8462000ba6565b62000bb0565b62000ba6565b9050919050565b6000819050919050565b62000bf78362000bba565b62000c0f62000c068262000be2565b84845462000b50565b825550505050565b600090565b62000c2662000c17565b62000c3381848462000bec565b505050565b5b8181101562000c5b5762000c4f60008262000c1c565b60018101905062000c39565b5050565b601f82111562000caa5762000c748162000b1e565b62000c7f8462000b33565b8101602085101562000c8f578190505b62000ca762000c9e8562000b33565b83018262000c38565b50505b505050565b600082821c905092915050565b600062000ccf6000198460080262000caf565b1980831691505092915050565b600062000cea838362000cbc565b9150826002028217905092915050565b62000d058262000a80565b67ffffffffffffffff81111562000d215762000d2062000a8b565b5b62000d2d825462000ae9565b62000d3a82828562000c5f565b600060209050601f83116001811462000d72576000841562000d5d578287015190505b62000d69858262000cdc565b86555062000dd9565b601f19841662000d828662000b1e565b60005b8281101562000dac5784890151825560018201915060208501945060208101905062000d85565b8683101562000dcc578489015162000dc8601f89168262000cbc565b8355505b6001600288020188555050505b505050505050565b7f4e487b7100000000000000000000000000000000000000000000000000000000600052601160045260246000fd5b600062000e1d8262000ba6565b91507fffffffffffffffffffffffffffffffffffffffffffffffffffffffffffffffff820362000e525762000e5162000de1565b5b600182019050919050565b6134988062000e6d6000396000f3fe608060405234801561001057600080fd5b50600436106101585760003560e01c80636f2cd40d116100c3578063ad71f8dc1161007c578063ad71f8dc14610405578063b33c8dfa14610421578063c5d00f5d14610451578063d547741f1461046f578063e8f305231461048b578063fcfff16f1461049557610158565b80636f2cd40d1461031b57806391d1485414610339578063a217fddf14610369578063a3ec138d14610387578063a7771ee3146103b7578063a94015c8146103e757610158565b80632f2ff15d116101155780632f2ff15d146102315780632f54bf6e1461024d5780633477ee2e1461027d57806336568abe146102b15780636c6c32d0146102cd5780636c9d4e8c146102eb57610158565b80630121b93f1461015d57806301ffc9a71461017957806309e9d7e2146101a9578063248a9ca3146101c557806324a897b9146101f55780632d35a8a214610213575b600080fd5b610177600480360381019061017291906120dc565b6104b3565b005b610193600480360381019061018e9190612161565b6107f7565b6040516101a091906121a9565b60405180910390f35b6101c360048036038101906101be91906120dc565b610871565b005b6101df60048036038101906101da91906121fa565b610b3e565b6040516101ec9190612236565b60405180910390f35b6101fd610b5d565b60405161020a91906122e1565b60405180910390f35b61021b610beb565b6040516102289190612312565b60405180910390f35b61024b6004803603810190610246919061238b565b610bf1565b005b610267600480360381019061026291906123cb565b610c12565b60405161027491906121a9565b60405180910390f35b610297600480360381019061029291906120dc565b610c28565b6040516102a89594939291906123f8565b60405180910390f35b6102cb60048036038101906102c6919061238b565b610df6565b005b6102d5610e79565b6040516102e291906121a9565b60405180910390f35b610305600480360381019061030091906120dc565b611263565b604051610312919061246f565b60405180910390f35b6103236112a2565b60405161033091906121a9565b60405180910390f35b610353600480360381019061034e919061238b565b6112b9565b60405161036091906121a9565b60405180910390f35b610371611323565b60405161037e9190612236565b60405180910390f35b6103a1600480360381019061039c91906123cb565b61132a565b6040516103ae91906121a9565b60405180910390f35b6103d160048036038101906103cc91906123cb565b61134a565b6040516103de91906121a9565b60405180910390f35b6103ef61137d565b6040516103fc9190612236565b60405180910390f35b61041f600480360381019061041a91906125bf565b6113a1565b005b61043b600480360381019061043691906123cb565b611571565b60405161044891906122e1565b60405180910390f35b610459611611565b60405161046691906121a9565b60405180910390f35b6104896004803603810190610484919061238b565b61170a565b005b61049361172b565b005b61049d611a34565b6040516104aa91906121a9565b60405180910390f35b7fd1473c1e90f2ba593e90fbee930d3cecf810debaccb8da002a6882520c889207336040516104e2919061246f565b60405180910390a16104f33361134a565b610532576040517f08c379a0000000000000000000000000000000000000000000000000000000008152600401610529906126b2565b60405180910390fd5b600560009054906101000a900460ff16610581576040517f08c379a00000000000000000000000000000000000000000000000000000000081526004016105789061271e565b60405180910390fd5b600160003373ffffffffffffffffffffffffffffffffffffffff1673ffffffffffffffffffffffffffffffffffffffff16815260200190815260200160002060009054906101000a900460ff161561060e576040517f08c379a00000000000000000000000000000000000000000000000000000000081526004016106059061278a565b60405180910390fd5b60008111801561062057506004548111155b61065f576040517f08c379a0000000000000000000000000000000000000000000000000000000008152600401610656906127f6565b60405180910390fd5b60018060003373ffffffffffffffffffffffffffffffffffffffff1673ffffffffffffffffffffffffffffffffffffffff16815260200190815260200160002060006101000a81548160ff0219169083151502179055506002600082815260200190815260200160002060020160008154809291906106dd90612845565b919050555060026000828152602001908152602001600020600101600360003373ffffffffffffffffffffffffffffffffffffffff1673ffffffffffffffffffffffffffffffffffffffff16815260200190815260200160002090816107439190612ac4565b506007339080600181540180825580915050600190039060005260206000200160009091909190916101000a81548173ffffffffffffffffffffffffffffffffffffffff021916908373ffffffffffffffffffffffffffffffffffffffff160217905550807f979840814b99e27d10388b0f146721af580825d27335aaf4e683f78f56be49c2600260008481526020019081526020016000206001016040516107ec9190612c30565b60405180910390a250565b60007f7965db0b000000000000000000000000000000000000000000000000000000007bffffffffffffffffffffffffffffffffffffffffffffffffffffffff1916827bffffffffffffffffffffffffffffffffffffffffffffffffffffffff1916148061086a575061086982611a47565b5b9050919050565b7f97cb40d38f4c4db2fe8d633d82729d64ea9d66937b525f8be969cc8b9c0c5d38336040516108a0919061246f565b60405180910390a16108b133610c12565b6108f0576040517f08c379a00000000000000000000000000000000000000000000000000000000081526004016108e790612c9e565b60405180910390fd5b600560009054906101000a900460ff1615610940576040517f08c379a000000000000000000000000000000000000000000000000000000000815260040161093790612d30565b60405180910390fd5b60008111801561095257506004548111155b610991576040517f08c379a000000000000000000000000000000000000000000000000000000000815260040161098890612d9c565b60405180910390fd5b600260008281526020019081526020016000206000808201600090556001820160006109bd9190611f7c565b60028201600090556003820160006109d59190611f7c565b6004820160006109e59190611f7c565b5050600460008154809291906109fa90612dbc565b919050555060008190505b6004548111610aa95760026000600183610a1f9190612de5565b8152602001908152602001600020600260008381526020019081526020016000206000820154816000015560018201816001019081610a5e9190612e2f565b506002820154816002015560038201816003019081610a7d9190612e2f565b5060048201816004019081610a929190612e2f565b509050508080610aa190612845565b915050610a05565b50600260006001600454610abd9190612de5565b8152602001908152602001600020600080820160009055600182016000610ae49190611f7c565b6002820160009055600382016000610afc9190611f7c565b600482016000610b0c9190611f7c565b5050807f20d7243f0784acc9041a7a8e8935b200eb8c016d8f93944acf368b87bee6352460405160405180910390a250565b6000806000838152602001908152602001600020600101549050919050565b60068054610b6a906128bc565b80601f0160208091040260200160405190810160405280929190818152602001828054610b96906128bc565b8015610be35780601f10610bb857610100808354040283529160200191610be3565b820191906000526020600020905b815481529060010190602001808311610bc657829003601f168201915b505050505081565b60045481565b610bfa82610b3e565b610c0381611ab1565b610c0d8383611ac5565b505050565b6000610c216000801b836112b9565b9050919050565b6002602052806000526040600020600091509050806000015490806001018054610c51906128bc565b80601f0160208091040260200160405190810160405280929190818152602001828054610c7d906128bc565b8015610cca5780601f10610c9f57610100808354040283529160200191610cca565b820191906000526020600020905b815481529060010190602001808311610cad57829003601f168201915b505050505090806002015490806003018054610ce5906128bc565b80601f0160208091040260200160405190810160405280929190818152602001828054610d11906128bc565b8015610d5e5780601f10610d3357610100808354040283529160200191610d5e565b820191906000526020600020905b815481529060010190602001808311610d4157829003601f168201915b505050505090806004018054610d73906128bc565b80601f0160208091040260200160405190810160405280929190818152602001828054610d9f906128bc565b8015610dec5780601f10610dc157610100808354040283529160200191610dec565b820191906000526020600020905b815481529060010190602001808311610dcf57829003601f168201915b5050505050905085565b610dfe611ba5565b73ffffffffffffffffffffffffffffffffffffffff168173ffffffffffffffffffffffffffffffffffffffff1614610e6b576040517f08c379a0000000000000000000000000000000000000000000000000000000008152600401610e6290612f89565b60405180910390fd5b610e758282611bad565b5050565b60007f97cb40d38f4c4db2fe8d633d82729d64ea9d66937b525f8be969cc8b9c0c5d3833604051610eaa919061246f565b60405180910390a1610ebb33610c12565b610efa576040517f08c379a0000000000000000000000000000000000000000000000000000000008152600401610ef190612c9e565b60405180910390fd5b60011515600560009054906101000a900460ff16151514610f50576040517f08c379a0000000000000000000000000000000000000000000000000000000008152600401610f4790612ff5565b60405180910390fd5b6000600560006101000a81548160ff021916908315150217905550600080610f76611fbc565b6000600190505b60045481116111f05783600260008381526020019081526020016000206002015411156111b0576002600082815260200190815260200160002060020154935060019250600260008281526020019081526020016000206040518060a001604052908160008201548152602001600182018054610ff9906128bc565b80601f0160208091040260200160405190810160405280929190818152602001828054611025906128bc565b80156110725780601f1061104757610100808354040283529160200191611072565b820191906000526020600020905b81548152906001019060200180831161105557829003601f168201915b5050505050815260200160028201548152602001600382018054611095906128bc565b80601f01602080910402602001604051908101604052809291908181526020018280546110c1906128bc565b801561110e5780601f106110e35761010080835404028352916020019161110e565b820191906000526020600020905b8154815290600101906020018083116110f157829003601f168201915b50505050508152602001600482018054611127906128bc565b80601f0160208091040260200160405190810160405280929190818152602001828054611153906128bc565b80156111a05780601f10611175576101008083540402835291602001916111a0565b820191906000526020600020905b81548152906001019060200180831161118357829003601f168201915b50505050508152505091506111dd565b836002600083815260200190815260200160002060020154036111dc5782806111d890612845565b9350505b5b80806111e890612845565b915050610f7d565b506001821115611244576040518060400160405280600881526020017f506172656767696f0000000000000000000000000000000000000000000000008152506006908161123e9190613015565b50611259565b8060200151600690816112579190613015565b505b6001935050505090565b6007818154811061127357600080fd5b906000526020600020016000915054906101000a900473ffffffffffffffffffffffffffffffffffffffff1681565b6000600560009054906101000a900460ff16905090565b600080600084815260200190815260200160002060000160008373ffffffffffffffffffffffffffffffffffffffff1673ffffffffffffffffffffffffffffffffffffffff16815260200190815260200160002060009054906101000a900460ff16905092915050565b6000801b81565b60016020528060005260406000206000915054906101000a900460ff1681565b60006113767f72c3eec1760bf69946625c2d4fb8e44e2c806345041960b434674fb9ab3976cf836112b9565b9050919050565b7f72c3eec1760bf69946625c2d4fb8e44e2c806345041960b434674fb9ab3976cf81565b7f97cb40d38f4c4db2fe8d633d82729d64ea9d66937b525f8be969cc8b9c0c5d38336040516113d0919061246f565b60405180910390a16113e133610c12565b611420576040517f08c379a000000000000000000000000000000000000000000000000000000000815260040161141790612c9e565b60405180910390fd5b600560009054906101000a900460ff1615611470576040517f08c379a000000000000000000000000000000000000000000000000000000000815260040161146790613159565b60405180910390fd5b6004600081548092919061148390612845565b919050555060006040518060a00160405280600454815260200185815260200160008152602001848152602001838152509050806002600060045481526020019081526020016000206000820151816000015560208201518160010190816114eb9190613015565b5060408201518160020155606082015181600301908161150b9190613015565b5060808201518160040190816115219190613015565b509050507f2df5ff92b1481984b81751233eef6a1fd017e7fe35b70f854b8435295c0cabb4600560009054906101000a900460ff1660405161156391906121a9565b60405180910390a150505050565b60036020528060005260406000206000915090508054611590906128bc565b80601f01602080910402602001604051908101604052809291908181526020018280546115bc906128bc565b80156116095780601f106115de57610100808354040283529160200191611609565b820191906000526020600020905b8154815290600101906020018083116115ec57829003601f168201915b505050505081565b60007f97cb40d38f4c4db2fe8d633d82729d64ea9d66937b525f8be969cc8b9c0c5d3833604051611642919061246f565b60405180910390a161165333610c12565b611692576040517f08c379a000000000000000000000000000000000000000000000000000000000815260040161168990612c9e565b60405180910390fd5b60001515600560009054906101000a900460ff161515146116e8576040517f08c379a00000000000000000000000000000000000000000000000000000000081526004016116df906131c5565b60405180910390fd5b6001600560006101000a81548160ff0219169083151502179055506001905090565b61171382610b3e565b61171c81611ab1565b6117268383611bad565b505050565b7f97cb40d38f4c4db2fe8d633d82729d64ea9d66937b525f8be969cc8b9c0c5d383360405161175a919061246f565b60405180910390a161176b33610c12565b6117aa576040517f08c379a00000000000000000000000000000000000000000000000000000000081526004016117a190612c9e565b60405180910390fd5b600560009054906101000a900460ff16156117fa576040517f08c379a00000000000000000000000000000000000000000000000000000000081526004016117f190613257565b60405180910390fd5b60005b60045481101561187057600260008281526020019081526020016000206000808201600090556001820160006118339190611f7c565b600282016000905560038201600061184b9190611f7c565b60048201600061185b9190611f7c565b5050808061186890612845565b9150506117fd565b50600060048190555060405180602001604052806000815250600690816118979190613015565b5060005b6007805490508110156119eb57600060016000600784815481106118c2576118c1613277565b5b9060005260206000200160009054906101000a900473ffffffffffffffffffffffffffffffffffffffff1673ffffffffffffffffffffffffffffffffffffffff1673ffffffffffffffffffffffffffffffffffffffff16815260200190815260200160002060006101000a81548160ff02191690831515021790555060405180602001604052806000815250600360006007848154811061196657611965613277565b5b9060005260206000200160009054906101000a900473ffffffffffffffffffffffffffffffffffffffff1673ffffffffffffffffffffffffffffffffffffffff1673ffffffffffffffffffffffffffffffffffffffff16815260200190815260200160002090816119d79190613015565b5080806119e390612845565b91505061189b565b5060608060079080519060200190611a04929190611feb565b507f2049354e4844b6f0fe7750f2a9b45ac073a5c47d3a892616425aac4931f844a360405160405180910390a150565b600560009054906101000a900460ff1681565b60007f01ffc9a7000000000000000000000000000000000000000000000000000000007bffffffffffffffffffffffffffffffffffffffffffffffffffffffff1916827bffffffffffffffffffffffffffffffffffffffffffffffffffffffff1916149050919050565b611ac281611abd611ba5565b611c8e565b50565b611acf82826112b9565b611ba157600160008084815260200190815260200160002060000160008373ffffffffffffffffffffffffffffffffffffffff1673ffffffffffffffffffffffffffffffffffffffff16815260200190815260200160002060006101000a81548160ff021916908315150217905550611b46611ba5565b73ffffffffffffffffffffffffffffffffffffffff168173ffffffffffffffffffffffffffffffffffffffff16837f2f8788117e7eff1d82e926ec794901d17c78024a50270940304540a733656f0d60405160405180910390a45b5050565b600033905090565b611bb782826112b9565b15611c8a57600080600084815260200190815260200160002060000160008373ffffffffffffffffffffffffffffffffffffffff1673ffffffffffffffffffffffffffffffffffffffff16815260200190815260200160002060006101000a81548160ff021916908315150217905550611c2f611ba5565b73ffffffffffffffffffffffffffffffffffffffff168173ffffffffffffffffffffffffffffffffffffffff16837ff6391f5c32d9c69d2a47ea670b442974b53935d1edc7fd64eb21e047a839171b60405160405180910390a45b5050565b611c9882826112b9565b611d0f57611ca581611d13565b611cb38360001c6020611d40565b604051602001611cc492919061337a565b6040516020818303038152906040526040517f08c379a0000000000000000000000000000000000000000000000000000000008152600401611d0691906122e1565b60405180910390fd5b5050565b6060611d398273ffffffffffffffffffffffffffffffffffffffff16601460ff16611d40565b9050919050565b606060006002836002611d5391906133b4565b611d5d9190612de5565b67ffffffffffffffff811115611d7657611d75612494565b5b6040519080825280601f01601f191660200182016040528015611da85781602001600182028036833780820191505090505b5090507f300000000000000000000000000000000000000000000000000000000000000081600081518110611de057611ddf613277565b5b60200101907effffffffffffffffffffffffffffffffffffffffffffffffffffffffffffff1916908160001a9053507f780000000000000000000000000000000000000000000000000000000000000081600181518110611e4457611e43613277565b5b60200101907effffffffffffffffffffffffffffffffffffffffffffffffffffffffffffff1916908160001a90535060006001846002611e8491906133b4565b611e8e9190612de5565b90505b6001811115611f2e577f3031323334353637383961626364656600000000000000000000000000000000600f861660108110611ed057611ecf613277565b5b1a60f81b828281518110611ee757611ee6613277565b5b60200101907effffffffffffffffffffffffffffffffffffffffffffffffffffffffffffff1916908160001a905350600485901c945080611f2790612dbc565b9050611e91565b5060008414611f72576040517f08c379a0000000000000000000000000000000000000000000000000000000008152600401611f6990613442565b60405180910390fd5b8091505092915050565b508054611f88906128bc565b6000825580601f10611f9a5750611fb9565b601f016020900490600052602060002090810190611fb89190612075565b5b50565b6040518060a0016040528060008152602001606081526020016000815260200160608152602001606081525090565b828054828255906000526020600020908101928215612064579160200282015b828111156120635782518260006101000a81548173ffffffffffffffffffffffffffffffffffffffff021916908373ffffffffffffffffffffffffffffffffffffffff1602179055509160200191906001019061200b565b5b5090506120719190612075565b5090565b5b8082111561208e576000816000905550600101612076565b5090565b6000604051905090565b600080fd5b600080fd5b6000819050919050565b6120b9816120a6565b81146120c457600080fd5b50565b6000813590506120d6816120b0565b92915050565b6000602082840312156120f2576120f161209c565b5b6000612100848285016120c7565b91505092915050565b60007fffffffff0000000000000000000000000000000000000000000000000000000082169050919050565b61213e81612109565b811461214957600080fd5b50565b60008135905061215b81612135565b92915050565b6000602082840312156121775761217661209c565b5b60006121858482850161214c565b91505092915050565b60008115159050919050565b6121a38161218e565b82525050565b60006020820190506121be600083018461219a565b92915050565b6000819050919050565b6121d7816121c4565b81146121e257600080fd5b50565b6000813590506121f4816121ce565b92915050565b6000602082840312156122105761220f61209c565b5b600061221e848285016121e5565b91505092915050565b612230816121c4565b82525050565b600060208201905061224b6000830184612227565b92915050565b600081519050919050565b600082825260208201905092915050565b60005b8381101561228b578082015181840152602081019050612270565b60008484015250505050565b6000601f19601f8301169050919050565b60006122b382612251565b6122bd818561225c565b93506122cd81856020860161226d565b6122d681612297565b840191505092915050565b600060208201905081810360008301526122fb81846122a8565b905092915050565b61230c816120a6565b82525050565b60006020820190506123276000830184612303565b92915050565b600073ffffffffffffffffffffffffffffffffffffffff82169050919050565b60006123588261232d565b9050919050565b6123688161234d565b811461237357600080fd5b50565b6000813590506123858161235f565b92915050565b600080604083850312156123a2576123a161209c565b5b60006123b0858286016121e5565b92505060206123c185828601612376565b9150509250929050565b6000602082840312156123e1576123e061209c565b5b60006123ef84828501612376565b91505092915050565b600060a08201905061240d6000830188612303565b818103602083015261241f81876122a8565b905061242e6040830186612303565b818103606083015261244081856122a8565b9050818103608083015261245481846122a8565b90509695505050505050565b6124698161234d565b82525050565b60006020820190506124846000830184612460565b92915050565b600080fd5b600080fd5b7f4e487b7100000000000000000000000000000000000000000000000000000000600052604160045260246000fd5b6124cc82612297565b810181811067ffffffffffffffff821117156124eb576124ea612494565b5b80604052505050565b60006124fe612092565b905061250a82826124c3565b919050565b600067ffffffffffffffff82111561252a57612529612494565b5b61253382612297565b9050602081019050919050565b82818337600083830152505050565b600061256261255d8461250f565b6124f4565b90508281526020810184848401111561257e5761257d61248f565b5b612589848285612540565b509392505050565b600082601f8301126125a6576125a561248a565b5b81356125b684826020860161254f565b91505092915050565b6000806000606084860312156125d8576125d761209c565b5b600084013567ffffffffffffffff8111156125f6576125f56120a1565b5b61260286828701612591565b935050602084013567ffffffffffffffff811115612623576126226120a1565b5b61262f86828701612591565b925050604084013567ffffffffffffffff8111156126505761264f6120a1565b5b61265c86828701612591565b9150509250925092565b7f46756e7a696f6e6520736f6c6f2070657220676c6920656c6574746f72690000600082015250565b600061269c601e8361225c565b91506126a782612666565b602082019050919050565b600060208201905081810360008301526126cb8161268f565b9050919050565b7f456c657a696f6e69207465726d696e6174650000000000000000000000000000600082015250565b600061270860128361225c565b9150612713826126d2565b602082019050919050565b60006020820190508181036000830152612737816126fb565b9050919050565b7f4861692067696120766f7461746f000000000000000000000000000000000000600082015250565b6000612774600e8361225c565b915061277f8261273e565b602082019050919050565b600060208201905081810360008301526127a381612767565b9050919050565b7f696c2063616e64696461746f207363656c746f206e6f6e206573697374650000600082015250565b60006127e0601e8361225c565b91506127eb826127aa565b602082019050919050565b6000602082019050818103600083015261280f816127d3565b9050919050565b7f4e487b7100000000000000000000000000000000000000000000000000000000600052601160045260246000fd5b6000612850826120a6565b91507fffffffffffffffffffffffffffffffffffffffffffffffffffffffffffffffff820361288257612881612816565b5b600182019050919050565b7f4e487b7100000000000000000000000000000000000000000000000000000000600052602260045260246000fd5b600060028204905060018216806128d457607f821691505b6020821081036128e7576128e661288d565b5b50919050565b6000815490506128fc816128bc565b9050919050565b60008190508160005260206000209050919050565b60008190508160005260206000209050919050565b60006020601f8301049050919050565b600082821b905092915050565b60006008830261297a7fffffffffffffffffffffffffffffffffffffffffffffffffffffffffffffffff8261293d565b612984868361293d565b95508019841693508086168417925050509392505050565b6000819050919050565b60006129c16129bc6129b7846120a6565b61299c565b6120a6565b9050919050565b6000819050919050565b6129db836129a6565b6129ef6129e7826129c8565b84845461294a565b825550505050565b600090565b612a046129f7565b612a0f8184846129d2565b505050565b5b81811015612a3357612a286000826129fc565b600181019050612a15565b5050565b601f821115612a7857612a4981612903565b612a528461292d565b81016020851015612a61578190505b612a75612a6d8561292d565b830182612a14565b50505b505050565b600082821c905092915050565b6000612a9b60001984600802612a7d565b1980831691505092915050565b6000612ab48383612a8a565b9150826002028217905092915050565b818103612ad2575050612baa565b612adb826128ed565b67ffffffffffffffff811115612af457612af3612494565b5b612afe82546128bc565b612b09828285612a37565b6000601f831160018114612b385760008415612b26578287015490505b612b308582612aa8565b865550612ba3565b601f198416612b4687612918565b9650612b5186612903565b60005b82811015612b7957848901548255600182019150600185019450602081019050612b54565b86831015612b965784890154612b92601f891682612a8a565b8355505b6001600288020188555050505b5050505050505b565b60008154612bb9816128bc565b612bc3818661225c565b94506001821660008114612bde5760018114612bf457612c27565b60ff198316865281151560200286019350612c27565b612bfd85612903565b60005b83811015612c1f57815481890152600182019150602081019050612c00565b808801955050505b50505092915050565b60006020820190508181036000830152612c4a8184612bac565b905092915050565b7f46756e7a696f6e6520736f6c6f2070657220696c2070726f706965746172696f600082015250565b6000612c8860208361225c565b9150612c9382612c52565b602082019050919050565b60006020820190508181036000830152612cb781612c7b565b9050919050565b7f456c657a696f6e69206170657274652c20696d706f73736962696c652072696d60008201527f756f7665726520756e2063616e64696461746f00000000000000000000000000602082015250565b6000612d1a60338361225c565b9150612d2582612cbe565b604082019050919050565b60006020820190508181036000830152612d4981612d0d565b9050919050565b7f49642063616e64696461746f206e6f6e2076616c69646f210000000000000000600082015250565b6000612d8660188361225c565b9150612d9182612d50565b602082019050919050565b60006020820190508181036000830152612db581612d79565b9050919050565b6000612dc7826120a6565b915060008203612dda57612dd9612816565b5b600182039050919050565b6000612df0826120a6565b9150612dfb836120a6565b9250828201905080821115612e1357612e12612816565b5b92915050565b600081549050612e28816128bc565b9050919050565b818103612e3d575050612f15565b612e4682612e19565b67ffffffffffffffff811115612e5f57612e5e612494565b5b612e6982546128bc565b612e74828285612a37565b6000601f831160018114612ea35760008415612e91578287015490505b612e9b8582612aa8565b865550612f0e565b601f198416612eb187612903565b9650612ebc86612903565b60005b82811015612ee457848901548255600182019150600185019450602081019050612ebf565b86831015612f015784890154612efd601f891682612a8a565b8355505b6001600288020188555050505b5050505050505b565b7f416363657373436f6e74726f6c3a2063616e206f6e6c792072656e6f756e636560008201527f20726f6c657320666f722073656c660000000000000000000000000000000000602082015250565b6000612f73602f8361225c565b9150612f7e82612f17565b604082019050919050565b60006020820190508181036000830152612fa281612f66565b9050919050565b7f456c657a696f6e65206769612063686975736121000000000000000000000000600082015250565b6000612fdf60148361225c565b9150612fea82612fa9565b602082019050919050565b6000602082019050818103600083015261300e81612fd2565b9050919050565b61301e82612251565b67ffffffffffffffff81111561303757613036612494565b5b61304182546128bc565b61304c828285612a37565b600060209050601f83116001811461307f576000841561306d578287015190505b6130778582612aa8565b8655506130df565b601f19841661308d86612903565b60005b828110156130b557848901518255600182019150602085019450602081019050613090565b868310156130d257848901516130ce601f891682612a8a565b8355505b6001600288020188555050505b505050505050565b7f456c657a696f6e69206170657274652c20696d706f73736962696c652061676760008201527f69756e6765726520696c2063616e64696461746f210000000000000000000000602082015250565b600061314360358361225c565b915061314e826130e7565b604082019050919050565b6000602082019050818103600083015261317281613136565b9050919050565b7f456c657a696f6e65206769612061706572746121000000000000000000000000600082015250565b60006131af60148361225c565b91506131ba82613179565b602082019050919050565b600060208201905081810360008301526131de816131a2565b9050919050565b7f456c657a696f6e69206170657274652c20696d706f73736962696c652072696d60008201527f756f7665726520692063616e6469646174690000000000000000000000000000602082015250565b600061324160328361225c565b915061324c826131e5565b604082019050919050565b6000602082019050818103600083015261327081613234565b9050919050565b7f4e487b7100000000000000000000000000000000000000000000000000000000600052603260045260246000fd5b600081905092915050565b7f416363657373436f6e74726f6c3a206163636f756e7420000000000000000000600082015250565b60006132e76017836132a6565b91506132f2826132b1565b601782019050919050565b600061330882612251565b61331281856132a6565b935061332281856020860161226d565b80840191505092915050565b7f206973206d697373696e6720726f6c6520000000000000000000000000000000600082015250565b60006133646011836132a6565b915061336f8261332e565b601182019050919050565b6000613385826132da565b915061339182856132fd565b915061339c82613357565b91506133a882846132fd565b91508190509392505050565b60006133bf826120a6565b91506133ca836120a6565b92508282026133d8816120a6565b915082820484148315176133ef576133ee612816565b5b5092915050565b7f537472696e67733a20686578206c656e67746820696e73756666696369656e74600082015250565b600061342c60208361225c565b9150613437826133f6565b602082019050919050565b6000602082019050818103600083015261345b8161341f565b905091905056fea26469706673582212206f6c0793831d02ab78515c188c50bc4ef2c630c4d55032e4a64efaa92d5aaaa364736f6c6343000811003368747470733a2f2f7777772e6d6574726f706f6c69737765622e69742f6d6574726f706f6c69737765622f6e6577732f77702d636f6e74656e742f75706c6f6164732f73697465732f322f323032332f30312f6d657373696e612d2e6a706768747470733a2f2f692e706f7374696d672e63632f6a354e38763634512f7669676e657474652d646976657274656e74692d656c657a696f6e692d67696f726769612d6d656c6f6e692e6a706768747470733a2f2f6769746875622e636f6d2f6d6174746472352f53696d706c65452d566f74696e6753797374656d2f626c6f622f6d61696e2f7372632f696d616765732f63617264616e6f2e6a70673f7261773d74727565",
  "immutableReferences": {},
  "source": "// SPDX-License-Identifier: MIT\r\npragma solidity ^0.8.0;\r\n\r\nimport \"@openzeppelin/contracts/access/AccessControl.sol\";\r\n\r\n\r\ncontract Election is AccessControl {\r\n\r\n    bytes32 public constant VOTER_ROLE = keccak256(\"VOTER_ROLE\");\r\n\r\n    // Model a Candidate\r\n    struct Candidate {\r\n        uint id;\r\n        string name;\r\n        uint voteCount;\r\n        string partyShortcut;\r\n        string partyFlag;\r\n    }\r\n\r\n\r\n    event votedEvent (\r\n        uint indexed _candidateId,  string candidateName\r\n    );\r\n    event checksoloOwner(address user);\r\n    event ChecksoloVoter(address user);\r\n    event removedCandidateEvent (uint indexed _candidateId);\r\n    event CandidatoAggiunto(bool open);\r\n    event resetElectionEvent();\r\n\r\n\r\n    // Store accounts that have voted\r\n    mapping(address => bool) public voters;\r\n    // Read/write candidates\r\n    mapping(uint => Candidate) public candidates;\r\n    mapping(address => string) public candidateVoted;\r\n\r\n    \r\n    // Store Candidates Count\r\n    uint public candidatesCount;\r\n    bool public open; //Mostra se un'elezione  aperta o chiusa\r\n    string public risultatoElezione; //Risultato elezione \"Pareggio\" o \"Nome candidato\"\r\n    address[] public listaVotanti;\r\n    \r\n    constructor (){\r\n        _setupRole(DEFAULT_ADMIN_ROLE, msg.sender);\r\n        candidatesCount = 0;\r\n        risultatoElezione = \"\";\r\n        inizializzaDatabaseCandidati();\r\n        setVotersRole();\r\n        open = true; //Inizialmente elezione predefinita aperta\r\n    }\r\n\r\n\r\n    function addCandidate (string memory nome, string memory partito, string memory logo) public soloOwner {\r\n        require(!open, \"Elezioni aperte, impossibile aggiungere il candidato!\");\r\n        candidatesCount ++;\r\n        Candidate memory candidato = Candidate(candidatesCount, nome, 0, partito, logo);\r\n        candidates[candidatesCount] = candidato;\r\n        emit CandidatoAggiunto(open);\r\n    }\r\n\r\n    function removeCandidate(uint _candidateId) public soloOwner {\r\n        require(!open, \"Elezioni aperte, impossibile rimuovere un candidato\");\r\n        require(_candidateId > 0 && _candidateId <= candidatesCount, \"Id candidato non valido!\");\r\n        delete candidates[_candidateId];\r\n        candidatesCount--;\r\n        // Shift the candidates' ids down by one starting from the removed candidate's id\r\n        for (uint i = _candidateId; i <= candidatesCount; i++) {\r\n            candidates[i] = candidates[i+1];\r\n        }\r\n        delete candidates[candidatesCount+1];\r\n        emit removedCandidateEvent(_candidateId);\r\n\r\n    }\r\n\r\n    function resetElection() public soloOwner {\r\n        require(!open, \"Elezioni aperte, impossibile rimuovere i candidati\");\r\n        //Rimuovo io\r\n        for (uint i = 0; i < candidatesCount; i++) {\r\n            delete candidates[i];\r\n        }\r\n        candidatesCount = 0;\r\n        risultatoElezione = \"\";\r\n        \r\n\r\n        for (uint i = 0; i < listaVotanti.length; i++ ){\r\n            voters[listaVotanti[i]] = false; //Reset voti\r\n            candidateVoted[listaVotanti[i]] = \"\"; //Reset canidati votati\r\n        }\r\n\r\n        //Reset lista votanti\r\n        address[] memory newListaVotanti;\r\n        listaVotanti = newListaVotanti;\r\n        emit resetElectionEvent();\r\n    }\r\n\r\n    function openElection() public soloOwner returns (bool){\r\n        require(open == false, \"Elezione gia aperta!\"); //Se l'elezione  chiusa..\r\n        open = true;\r\n        return true; //Operazione riuscita!\r\n    }\r\n\r\n    function closeElection() public soloOwner returns (bool){\r\n        require(open == true, \"Elezione gia chiusa!\"); //Se l'elezione  aperta..\r\n        open = false;\r\n\r\n        uint maxVotes = 0;\r\n        uint countMaxVotes = 0;\r\n        Candidate memory candidatoVincitore;\r\n        for (uint i = 1; i <= candidatesCount; i++) {\r\n            if(candidates[i].voteCount > maxVotes){\r\n                maxVotes = candidates[i].voteCount;\r\n                countMaxVotes = 1;\r\n                candidatoVincitore = candidates[i];\r\n            }else if(candidates[i].voteCount == maxVotes){\r\n                countMaxVotes++;\r\n            }\r\n        }\r\n        if(countMaxVotes > 1){\r\n            risultatoElezione = \"Pareggio\";\r\n        }\r\n        else{\r\n            risultatoElezione = candidatoVincitore.name;\r\n        }\r\n\r\n        return true; //Operazione riuscita! \r\n    }\r\n\r\n    function isElectionOpen() public virtual view returns (bool){\r\n        return open;\r\n    }\r\n\r\n    modifier soloOwner() {\r\n      emit checksoloOwner(msg.sender);\r\n      require(isOwner(msg.sender), \"Funzione solo per il propietario\");\r\n      _;\r\n    }\r\n\r\n    modifier soloVoter() {\r\n      emit ChecksoloVoter(msg.sender);\r\n      require(isVoter(msg.sender), \"Funzione solo per gli elettori\");\r\n      _;\r\n    }\r\n    function isOwner(address account) public virtual view returns (bool) {\r\n      return hasRole(DEFAULT_ADMIN_ROLE, account);\r\n    }\r\n\r\n    function isVoter(address account) public virtual view returns (bool) {\r\n      return hasRole(VOTER_ROLE, account);\r\n    }\r\n\r\n    function vote (uint _candidateId) public soloVoter {\r\n\r\n        require(open, \"Elezioni terminate\");\r\n        // Requisiti per il votante\r\n        require(!voters[msg.sender], \"Hai gia votato\");\r\n\r\n        // Requisiti per un candidato\r\n        require(_candidateId > 0 && _candidateId <= candidatesCount, \"il candidato scelto non esiste\");\r\n\r\n        // Ricordo che chi vota non pu pi votare\r\n        voters[msg.sender] = true;\r\n\r\n        // Aggiorno il voto del candidato\r\n        candidates[_candidateId].voteCount++;\r\n\r\n        // Aggiornamento del candidato votato!\r\n        candidateVoted[msg.sender] = candidates[_candidateId].name;\r\n\r\n        // Aggiornamento della lista dei votanti!\r\n        listaVotanti.push(msg.sender);\r\n        \r\n        // lancio evento voto\r\n        emit votedEvent(_candidateId,  candidates[_candidateId].name);\r\n    }\r\n\r\n    /**\r\n     * Inizializza i candidati\r\n     */\r\n    function inizializzaDatabaseCandidati() internal {\r\n        Candidate memory candidate_1= Candidate({\r\n            id: 1,\r\n            name: \"Giorgia Meloni\",\r\n            voteCount: 0,\r\n            partyShortcut: \"FDI\",\r\n            partyFlag: \"https://i.postimg.cc/j5N8v64Q/vignette-divertenti-elezioni-giorgia-meloni.jpg\"\r\n            \r\n        });\r\n        Candidate memory candidate_2 = Candidate({\r\n            id: 2,\r\n            name: \"Matteo Della Rocca\",\r\n            voteCount: 0,\r\n            partyShortcut: \"Freedom\",\r\n            partyFlag: \"./images/mdr-colorato.jpg\"\r\n            \r\n        });\r\n        Candidate memory candidate_3 = Candidate({\r\n            id: 3,\r\n            name: \"Carmine D'Angelo\",\r\n            voteCount: 0,\r\n            partyShortcut: \"NCO\",\r\n            partyFlag: \"https://github.com/mattdr5/SimpleE-VotingSystem/blob/main/src/images/cardano.jpg?raw=true\"\r\n        });\r\n        Candidate memory candidate_4 = Candidate({\r\n            id: 4,\r\n            name: \"Matteo Messina Denaro\",\r\n            voteCount: 0,\r\n            partyShortcut: \"MAFIA\",\r\n            partyFlag: \"https://www.metropolisweb.it/metropolisweb/news/wp-content/uploads/sites/2/2023/01/messina-.jpg\"\r\n        });\r\n\r\n        candidatesCount ++;\r\n        candidates[candidatesCount] = Candidate(candidatesCount, candidate_1.name, candidate_1.voteCount, candidate_1.partyShortcut, candidate_1.partyFlag);\r\n        candidatesCount ++;\r\n        candidates[candidatesCount] = Candidate(candidatesCount, candidate_2.name,  candidate_2.voteCount, candidate_2.partyShortcut, candidate_2.partyFlag);\r\n        candidatesCount ++;\r\n        candidates[candidatesCount] = Candidate(candidatesCount, candidate_3.name, candidate_3.voteCount, candidate_3.partyShortcut, candidate_3.partyFlag);\r\n        candidatesCount ++;\r\n        candidates[candidatesCount] = Candidate(candidatesCount ,candidate_4.name, candidate_4.voteCount, candidate_4.partyShortcut, candidate_4.partyFlag);\r\n\r\n   \r\n    }\r\n\r\n    function setVotersRole() internal {\r\n        _setupRole(VOTER_ROLE, 0x1a8F33524Ac8642f2a8aF58444354Cd7dE75DcDa);\r\n        _setupRole(VOTER_ROLE, 0xC7e1f5a46f4ea402242a01215C92Fa05040Aa3C5);\r\n        _setupRole(VOTER_ROLE, 0x3BA20119f0F6f4bCF30E570CFDf4fb8082f982b8);\r\n        _setupRole(VOTER_ROLE, 0x6b543d4B4B411dbe3373f31E002c85eC7285f81C);\r\n        _setupRole(VOTER_ROLE, 0xb0950983E2972c6ee556414Eb9843A002c83f55D);\r\n        _setupRole(VOTER_ROLE, 0xed778A60005FE6545b16668271184c3649E7B405);\r\n        _setupRole(VOTER_ROLE, 0x8cf71Aa476700f12AE3C61E99bF143dcd833A97D);\r\n        _setupRole(VOTER_ROLE, 0x5083b9406b017ae080229a91978F079A126e875D);\r\n        _setupRole(VOTER_ROLE, 0x2f85Bd106166D9964f15B0D432F65Fd4b373412A);\r\n    }\r\n}\r\n\r\n    ",
  "sourcePath": "C:\\Users\\darnx\\Desktop\\SimpleE-VotingSystem\\contracts\\Election.sol",
  "compiler": {
    "name": "solc",
    "version": "0.8.17+commit.8df45f5f.Emscripten.clang"
  },
  "schemaVersion": "3.4.11",
  "updatedAt": "2023-02-10T11:37:17.366Z",
  "networkType": "ethereum",
  "devdoc": {
    "kind": "dev",
    "methods": {
      "getRoleAdmin(bytes32)": {
        "details": "Returns the admin role that controls `role`. See {grantRole} and {revokeRole}. To change a role's admin, use {_setRoleAdmin}."
      },
      "grantRole(bytes32,address)": {
        "details": "Grants `role` to `account`. If `account` had not been already granted `role`, emits a {RoleGranted} event. Requirements: - the caller must have ``role``'s admin role. May emit a {RoleGranted} event."
      },
      "hasRole(bytes32,address)": {
        "details": "Returns `true` if `account` has been granted `role`."
      },
      "renounceRole(bytes32,address)": {
        "details": "Revokes `role` from the calling account. Roles are often managed via {grantRole} and {revokeRole}: this function's purpose is to provide a mechanism for accounts to lose their privileges if they are compromised (such as when a trusted device is misplaced). If the calling account had been revoked `role`, emits a {RoleRevoked} event. Requirements: - the caller must be `account`. May emit a {RoleRevoked} event."
      },
      "revokeRole(bytes32,address)": {
        "details": "Revokes `role` from `account`. If `account` had been granted `role`, emits a {RoleRevoked} event. Requirements: - the caller must have ``role``'s admin role. May emit a {RoleRevoked} event."
      },
      "supportsInterface(bytes4)": {
        "details": "See {IERC165-supportsInterface}."
      }
    },
    "version": 1
  },
  "userdoc": {
    "kind": "user",
    "methods": {},
    "version": 1
  }
}