{
  "contractName": "Election",
  "abi": [
    {
      "inputs": [],
      "stateMutability": "nonpayable",
      "type": "constructor"
    },
    {
      "anonymous": false,
      "inputs": [
        {
          "indexed": true,
          "internalType": "bytes32",
          "name": "role",
          "type": "bytes32"
        },
        {
          "indexed": true,
          "internalType": "bytes32",
          "name": "previousAdminRole",
          "type": "bytes32"
        },
        {
          "indexed": true,
          "internalType": "bytes32",
          "name": "newAdminRole",
          "type": "bytes32"
        }
      ],
      "name": "RoleAdminChanged",
      "type": "event"
    },
    {
      "anonymous": false,
      "inputs": [
        {
          "indexed": true,
          "internalType": "bytes32",
          "name": "role",
          "type": "bytes32"
        },
        {
          "indexed": true,
          "internalType": "address",
          "name": "account",
          "type": "address"
        },
        {
          "indexed": true,
          "internalType": "address",
          "name": "sender",
          "type": "address"
        }
      ],
      "name": "RoleGranted",
      "type": "event"
    },
    {
      "anonymous": false,
      "inputs": [
        {
          "indexed": true,
          "internalType": "bytes32",
          "name": "role",
          "type": "bytes32"
        },
        {
          "indexed": true,
          "internalType": "address",
          "name": "account",
          "type": "address"
        },
        {
          "indexed": true,
          "internalType": "address",
          "name": "sender",
          "type": "address"
        }
      ],
      "name": "RoleRevoked",
      "type": "event"
    },
    {
      "anonymous": false,
      "inputs": [
        {
          "indexed": false,
          "internalType": "address",
          "name": "user",
          "type": "address"
        }
      ],
      "name": "checksoloOwner",
      "type": "event"
    },
    {
      "anonymous": false,
      "inputs": [
        {
          "indexed": true,
          "internalType": "uint256",
          "name": "_candidateId",
          "type": "uint256"
        }
      ],
      "name": "removedCandidateEvent",
      "type": "event"
    },
    {
      "anonymous": false,
      "inputs": [
        {
          "indexed": true,
          "internalType": "uint256",
          "name": "_candidateId",
          "type": "uint256"
        },
        {
          "indexed": false,
          "internalType": "string",
          "name": "candidateName",
          "type": "string"
        }
      ],
      "name": "votedEvent",
      "type": "event"
    },
    {
      "inputs": [],
      "name": "DEFAULT_ADMIN_ROLE",
      "outputs": [
        {
          "internalType": "bytes32",
          "name": "",
          "type": "bytes32"
        }
      ],
      "stateMutability": "view",
      "type": "function",
      "constant": true
    },
    {
      "inputs": [
        {
          "internalType": "address",
          "name": "",
          "type": "address"
        }
      ],
      "name": "candidateVoted",
      "outputs": [
        {
          "internalType": "string",
          "name": "",
          "type": "string"
        }
      ],
      "stateMutability": "view",
      "type": "function",
      "constant": true
    },
    {
      "inputs": [
        {
          "internalType": "uint256",
          "name": "",
          "type": "uint256"
        }
      ],
      "name": "candidates",
      "outputs": [
        {
          "internalType": "uint256",
          "name": "id",
          "type": "uint256"
        },
        {
          "internalType": "string",
          "name": "name",
          "type": "string"
        },
        {
          "internalType": "uint256",
          "name": "voteCount",
          "type": "uint256"
        },
        {
          "internalType": "string",
          "name": "partyShortcut",
          "type": "string"
        },
        {
          "internalType": "string",
          "name": "partyFlag",
          "type": "string"
        }
      ],
      "stateMutability": "view",
      "type": "function",
      "constant": true
    },
    {
      "inputs": [],
      "name": "candidatesCount",
      "outputs": [
        {
          "internalType": "uint256",
          "name": "",
          "type": "uint256"
        }
      ],
      "stateMutability": "view",
      "type": "function",
      "constant": true
    },
    {
      "inputs": [],
      "name": "canditatoVincitore",
      "outputs": [
        {
          "internalType": "uint256",
          "name": "id",
          "type": "uint256"
        },
        {
          "internalType": "string",
          "name": "name",
          "type": "string"
        },
        {
          "internalType": "uint256",
          "name": "voteCount",
          "type": "uint256"
        },
        {
          "internalType": "string",
          "name": "partyShortcut",
          "type": "string"
        },
        {
          "internalType": "string",
          "name": "partyFlag",
          "type": "string"
        }
      ],
      "stateMutability": "view",
      "type": "function",
      "constant": true
    },
    {
      "inputs": [
        {
          "internalType": "bytes32",
          "name": "role",
          "type": "bytes32"
        }
      ],
      "name": "getRoleAdmin",
      "outputs": [
        {
          "internalType": "bytes32",
          "name": "",
          "type": "bytes32"
        }
      ],
      "stateMutability": "view",
      "type": "function",
      "constant": true
    },
    {
      "inputs": [
        {
          "internalType": "bytes32",
          "name": "role",
          "type": "bytes32"
        },
        {
          "internalType": "address",
          "name": "account",
          "type": "address"
        }
      ],
      "name": "grantRole",
      "outputs": [],
      "stateMutability": "nonpayable",
      "type": "function"
    },
    {
      "inputs": [
        {
          "internalType": "bytes32",
          "name": "role",
          "type": "bytes32"
        },
        {
          "internalType": "address",
          "name": "account",
          "type": "address"
        }
      ],
      "name": "hasRole",
      "outputs": [
        {
          "internalType": "bool",
          "name": "",
          "type": "bool"
        }
      ],
      "stateMutability": "view",
      "type": "function",
      "constant": true
    },
    {
      "inputs": [],
      "name": "open",
      "outputs": [
        {
          "internalType": "bool",
          "name": "",
          "type": "bool"
        }
      ],
      "stateMutability": "view",
      "type": "function",
      "constant": true
    },
    {
      "inputs": [
        {
          "internalType": "bytes32",
          "name": "role",
          "type": "bytes32"
        },
        {
          "internalType": "address",
          "name": "account",
          "type": "address"
        }
      ],
      "name": "renounceRole",
      "outputs": [],
      "stateMutability": "nonpayable",
      "type": "function"
    },
    {
      "inputs": [
        {
          "internalType": "bytes32",
          "name": "role",
          "type": "bytes32"
        },
        {
          "internalType": "address",
          "name": "account",
          "type": "address"
        }
      ],
      "name": "revokeRole",
      "outputs": [],
      "stateMutability": "nonpayable",
      "type": "function"
    },
    {
      "inputs": [
        {
          "internalType": "bytes4",
          "name": "interfaceId",
          "type": "bytes4"
        }
      ],
      "name": "supportsInterface",
      "outputs": [
        {
          "internalType": "bool",
          "name": "",
          "type": "bool"
        }
      ],
      "stateMutability": "view",
      "type": "function",
      "constant": true
    },
    {
      "inputs": [
        {
          "internalType": "address",
          "name": "",
          "type": "address"
        }
      ],
      "name": "voters",
      "outputs": [
        {
          "internalType": "bool",
          "name": "",
          "type": "bool"
        }
      ],
      "stateMutability": "view",
      "type": "function",
      "constant": true
    },
    {
      "inputs": [
        {
          "internalType": "string",
          "name": "nome",
          "type": "string"
        },
        {
          "internalType": "string",
          "name": "partito",
          "type": "string"
        },
        {
          "internalType": "string",
          "name": "logo",
          "type": "string"
        }
      ],
      "name": "addCandidate",
      "outputs": [],
      "stateMutability": "nonpayable",
      "type": "function"
    },
    {
      "inputs": [
        {
          "internalType": "uint256",
          "name": "_candidateId",
          "type": "uint256"
        }
      ],
      "name": "removeCandidate",
      "outputs": [],
      "stateMutability": "nonpayable",
      "type": "function"
    },
    {
      "inputs": [],
      "name": "openElection",
      "outputs": [
        {
          "internalType": "bool",
          "name": "",
          "type": "bool"
        }
      ],
      "stateMutability": "nonpayable",
      "type": "function"
    },
    {
      "inputs": [],
      "name": "closeElection",
      "outputs": [
        {
          "internalType": "bool",
          "name": "",
          "type": "bool"
        }
      ],
      "stateMutability": "nonpayable",
      "type": "function"
    },
    {
      "inputs": [],
      "name": "isElectionOpen",
      "outputs": [
        {
          "internalType": "bool",
          "name": "",
          "type": "bool"
        }
      ],
      "stateMutability": "nonpayable",
      "type": "function"
    },
    {
      "inputs": [
        {
          "internalType": "address",
          "name": "account",
          "type": "address"
        }
      ],
      "name": "isOwner",
      "outputs": [
        {
          "internalType": "bool",
          "name": "",
          "type": "bool"
        }
      ],
      "stateMutability": "view",
      "type": "function",
      "constant": true
    },
    {
      "inputs": [
        {
          "internalType": "uint256",
          "name": "_candidateId",
          "type": "uint256"
        }
      ],
      "name": "vote",
      "outputs": [],
      "stateMutability": "nonpayable",
      "type": "function"
    }
  ],
  "bytecode": "0x60806040523480156200001157600080fd5b50620000276000801b336200005860201b60201c565b620000376200006e60201b60201c565b6001600560006101000a81548160ff02191690831515021790555062000b3c565b6200006a8282620003b060201b60201c565b5050565b60006040518060a00160405280600181526020016040518060400160405280600e81526020017f47696f72676961204d656c6f6e690000000000000000000000000000000000008152508152602001600081526020016040518060400160405280600381526020017f464449000000000000000000000000000000000000000000000000000000000081525081526020016040518060800160405280604d8152602001620036e7604d9139815250905060006040518060a00160405280600281526020016040518060400160405280600c81526020017f4d617474656f2052656e7a6900000000000000000000000000000000000000008152508152602001600081526020016040518060400160405280600281526020017f495600000000000000000000000000000000000000000000000000000000000081525081526020016040518060800160405280604581526020016200373460459139815250905060006040518060a00160405280600381526020016040518060400160405280600c81526020017f446f6e616c64205472756d7000000000000000000000000000000000000000008152508152602001600081526020016040518060400160405280600381526020017f525042000000000000000000000000000000000000000000000000000000000081525081526020016040518060600160405280603a815260200162003779603a9139815250905060006040518060a00160405280600481526020016040518060400160405280601581526020017f4d617474656f204d657373696e612044656e61726f00000000000000000000008152508152602001600081526020016040518060400160405280600581526020017f4d4146494100000000000000000000000000000000000000000000000000000081525081526020016040518060800160405280605f815260200162003688605f913981525090506200034d846020015185606001518660800151620004a160201b60201c565b6200036c836020015184606001518560800151620004a160201b60201c565b6200038b826020015183606001518460800151620004a160201b60201c565b620003aa816020015182606001518360800151620004a160201b60201c565b50505050565b620003c28282620005ea60201b60201c565b6200049d57600160008084815260200190815260200160002060000160008373ffffffffffffffffffffffffffffffffffffffff1673ffffffffffffffffffffffffffffffffffffffff16815260200190815260200160002060006101000a81548160ff021916908315150217905550620004426200065460201b60201c565b73ffffffffffffffffffffffffffffffffffffffff168173ffffffffffffffffffffffffffffffffffffffff16837f2f8788117e7eff1d82e926ec794901d17c78024a50270940304540a733656f0d60405160405180910390a45b5050565b7f97cb40d38f4c4db2fe8d633d82729d64ea9d66937b525f8be969cc8b9c0c5d3833604051620004d29190620006bf565b60405180910390a1620004eb336200065c60201b60201c565b6200052d576040517f08c379a000000000000000000000000000000000000000000000000000000000815260040162000524906200073d565b60405180910390fd5b60046000815480929190620005429062000798565b91905055506040518060a0016040528060045481526020018481526020016000815260200183815260200182815250600260006004548152602001908152602001600020600082015181600001556020820151816001019081620005a7919062000a55565b50604082015181600201556060820151816003019081620005c9919062000a55565b506080820151816004019081620005e1919062000a55565b50905050505050565b600080600084815260200190815260200160002060000160008373ffffffffffffffffffffffffffffffffffffffff1673ffffffffffffffffffffffffffffffffffffffff16815260200190815260200160002060009054906101000a900460ff16905092915050565b600033905090565b6000620006736000801b83620005ea60201b60201c565b9050919050565b600073ffffffffffffffffffffffffffffffffffffffff82169050919050565b6000620006a7826200067a565b9050919050565b620006b9816200069a565b82525050565b6000602082019050620006d66000830184620006ae565b92915050565b600082825260208201905092915050565b7f46756e7a696f6e6520736f6c6f2070657220696c2070726f706965746172696f600082015250565b600062000725602083620006dc565b91506200073282620006ed565b602082019050919050565b60006020820190508181036000830152620007588162000716565b9050919050565b7f4e487b7100000000000000000000000000000000000000000000000000000000600052601160045260246000fd5b6000819050919050565b6000620007a5826200078e565b91507fffffffffffffffffffffffffffffffffffffffffffffffffffffffffffffffff8203620007da57620007d96200075f565b5b600182019050919050565b600081519050919050565b7f4e487b7100000000000000000000000000000000000000000000000000000000600052604160045260246000fd5b7f4e487b7100000000000000000000000000000000000000000000000000000000600052602260045260246000fd5b600060028204905060018216806200086757607f821691505b6020821081036200087d576200087c6200081f565b5b50919050565b60008190508160005260206000209050919050565b60006020601f8301049050919050565b600082821b905092915050565b600060088302620008e77fffffffffffffffffffffffffffffffffffffffffffffffffffffffffffffffff82620008a8565b620008f38683620008a8565b95508019841693508086168417925050509392505050565b6000819050919050565b600062000936620009306200092a846200078e565b6200090b565b6200078e565b9050919050565b6000819050919050565b620009528362000915565b6200096a62000961826200093d565b848454620008b5565b825550505050565b600090565b6200098162000972565b6200098e81848462000947565b505050565b5b81811015620009b657620009aa60008262000977565b60018101905062000994565b5050565b601f82111562000a0557620009cf8162000883565b620009da8462000898565b81016020851015620009ea578190505b62000a02620009f98562000898565b83018262000993565b50505b505050565b600082821c905092915050565b600062000a2a6000198460080262000a0a565b1980831691505092915050565b600062000a45838362000a17565b9150826002028217905092915050565b62000a6082620007e5565b67ffffffffffffffff81111562000a7c5762000a7b620007f0565b5b62000a8882546200084e565b62000a95828285620009ba565b600060209050601f83116001811462000acd576000841562000ab8578287015190505b62000ac4858262000a37565b86555062000b34565b601f19841662000add8662000883565b60005b8281101562000b075784890151825560018201915060208501945060208101905062000ae0565b8683101562000b27578489015162000b23601f89168262000a17565b8355505b6001600288020188555050505b505050505050565b612b3c8062000b4c6000396000f3fe608060405234801561001057600080fd5b506004361061012c5760003560e01c80636f2cd40d116100ad578063ad71f8dc11610071578063ad71f8dc1461035f578063b33c8dfa1461037b578063c5d00f5d146103ab578063d547741f146103c9578063fcfff16f146103e55761012c565b80636f2cd40d146102a157806391d14854146102bf578063a217fddf146102ef578063a21977081461030d578063a3ec138d1461032f5761012c565b80632f2ff15d116100f45780632f2ff15d146101e75780632f54bf6e146102035780633477ee2e1461023357806336568abe146102675780636c6c32d0146102835761012c565b80630121b93f1461013157806301ffc9a71461014d57806309e9d7e21461017d578063248a9ca3146101995780632d35a8a2146101c9575b600080fd5b61014b6004803603810190610146919061197c565b610403565b005b61016760048036038101906101629190611a01565b61062f565b6040516101749190611a49565b60405180910390f35b6101976004803603810190610192919061197c565b6106a9565b005b6101b360048036038101906101ae9190611a9a565b610976565b6040516101c09190611ad6565b60405180910390f35b6101d1610995565b6040516101de9190611b00565b60405180910390f35b61020160048036038101906101fc9190611b79565b61099b565b005b61021d60048036038101906102189190611bb9565b6109bc565b60405161022a9190611a49565b60405180910390f35b61024d6004803603810190610248919061197c565b6109d2565b60405161025e959493929190611c76565b60405180910390f35b610281600480360381019061027c9190611b79565b610ba0565b005b61028b610c23565b6040516102989190611a49565b60405180910390f35b6102a9610e3b565b6040516102b69190611a49565b60405180910390f35b6102d960048036038101906102d49190611b79565b610e52565b6040516102e69190611a49565b60405180910390f35b6102f7610ebc565b6040516103049190611ad6565b60405180910390f35b610315610ec3565b604051610326959493929190611c76565b60405180910390f35b61034960048036038101906103449190611bb9565b61107f565b6040516103569190611a49565b60405180910390f35b61037960048036038101906103749190611e13565b61109f565b005b61039560048036038101906103909190611bb9565b6111d3565b6040516103a29190611eba565b60405180910390f35b6103b3611273565b6040516103c09190611a49565b60405180910390f35b6103e360048036038101906103de9190611b79565b61136c565b005b6103ed61138d565b6040516103fa9190611a49565b60405180910390f35b600560009054906101000a900460ff16610452576040517f08c379a000000000000000000000000000000000000000000000000000000000815260040161044990611f28565b60405180910390fd5b600160003373ffffffffffffffffffffffffffffffffffffffff1673ffffffffffffffffffffffffffffffffffffffff16815260200190815260200160002060009054906101000a900460ff16156104df576040517f08c379a00000000000000000000000000000000000000000000000000000000081526004016104d690611f94565b60405180910390fd5b6000811180156104f157506004548111155b6104fa57600080fd5b60018060003373ffffffffffffffffffffffffffffffffffffffff1673ffffffffffffffffffffffffffffffffffffffff16815260200190815260200160002060006101000a81548160ff02191690831515021790555060026000828152602001908152602001600020600201600081548092919061057890611fe3565b919050555060026000828152602001908152602001600020600101600360003373ffffffffffffffffffffffffffffffffffffffff1673ffffffffffffffffffffffffffffffffffffffff16815260200190815260200160002090816105de9190612262565b50807f979840814b99e27d10388b0f146721af580825d27335aaf4e683f78f56be49c26002600084815260200190815260200160002060010160405161062491906123ce565b60405180910390a250565b60007f7965db0b000000000000000000000000000000000000000000000000000000007bffffffffffffffffffffffffffffffffffffffffffffffffffffffff1916827bffffffffffffffffffffffffffffffffffffffffffffffffffffffff191614806106a257506106a1826113a0565b5b9050919050565b7f97cb40d38f4c4db2fe8d633d82729d64ea9d66937b525f8be969cc8b9c0c5d38336040516106d891906123ff565b60405180910390a16106e9336109bc565b610728576040517f08c379a000000000000000000000000000000000000000000000000000000000815260040161071f90612466565b60405180910390fd5b600560009054906101000a900460ff1615610778576040517f08c379a000000000000000000000000000000000000000000000000000000000815260040161076f906124f8565b60405180910390fd5b60008111801561078a57506004548111155b6107c9576040517f08c379a00000000000000000000000000000000000000000000000000000000081526004016107c090612564565b60405180910390fd5b600260008281526020019081526020016000206000808201600090556001820160006107f591906118d5565b600282016000905560038201600061080d91906118d5565b60048201600061081d91906118d5565b50506004600081548092919061083290612584565b919050555060008190505b60045481116108e1576002600060018361085791906125ad565b815260200190815260200160002060026000838152602001908152602001600020600082015481600001556001820181600101908161089691906125f7565b5060028201548160020155600382018160030190816108b591906125f7565b50600482018160040190816108ca91906125f7565b5090505080806108d990611fe3565b91505061083d565b506002600060016004546108f591906125ad565b815260200190815260200160002060008082016000905560018201600061091c91906118d5565b600282016000905560038201600061093491906118d5565b60048201600061094491906118d5565b5050807f20d7243f0784acc9041a7a8e8935b200eb8c016d8f93944acf368b87bee6352460405160405180910390a250565b6000806000838152602001908152602001600020600101549050919050565b60045481565b6109a482610976565b6109ad8161140a565b6109b7838361141e565b505050565b60006109cb6000801b83610e52565b9050919050565b60026020528060005260406000206000915090508060000154908060010180546109fb9061205a565b80601f0160208091040260200160405190810160405280929190818152602001828054610a279061205a565b8015610a745780601f10610a4957610100808354040283529160200191610a74565b820191906000526020600020905b815481529060010190602001808311610a5757829003601f168201915b505050505090806002015490806003018054610a8f9061205a565b80601f0160208091040260200160405190810160405280929190818152602001828054610abb9061205a565b8015610b085780601f10610add57610100808354040283529160200191610b08565b820191906000526020600020905b815481529060010190602001808311610aeb57829003601f168201915b505050505090806004018054610b1d9061205a565b80601f0160208091040260200160405190810160405280929190818152602001828054610b499061205a565b8015610b965780601f10610b6b57610100808354040283529160200191610b96565b820191906000526020600020905b815481529060010190602001808311610b7957829003601f168201915b5050505050905085565b610ba86114fe565b73ffffffffffffffffffffffffffffffffffffffff168173ffffffffffffffffffffffffffffffffffffffff1614610c15576040517f08c379a0000000000000000000000000000000000000000000000000000000008152600401610c0c90612751565b60405180910390fd5b610c1f8282611506565b5050565b60007f97cb40d38f4c4db2fe8d633d82729d64ea9d66937b525f8be969cc8b9c0c5d3833604051610c5491906123ff565b60405180910390a1610c65336109bc565b610ca4576040517f08c379a0000000000000000000000000000000000000000000000000000000008152600401610c9b90612466565b60405180910390fd5b60011515600560009054906101000a900460ff16151514610cfa576040517f08c379a0000000000000000000000000000000000000000000000000000000008152600401610cf1906127bd565b60405180910390fd5b6000600560006101000a81548160ff021916908315150217905550600260006001815260200190815260200160002060066000820154816000015560018201816001019081610d4991906125f7565b506002820154816002015560038201816003019081610d6891906125f7565b5060048201816004019081610d7d91906125f7565b509050506000600290505b6004548111610e335760066002015460026000838152602001908152602001600020600201541115610e20576002600082815260200190815260200160002060066000820154816000015560018201816001019081610de791906125f7565b506002820154816002015560038201816003019081610e0691906125f7565b5060048201816004019081610e1b91906125f7565b509050505b8080610e2b90611fe3565b915050610d88565b506001905090565b6000600560009054906101000a900460ff16905090565b600080600084815260200190815260200160002060000160008373ffffffffffffffffffffffffffffffffffffffff1673ffffffffffffffffffffffffffffffffffffffff16815260200190815260200160002060009054906101000a900460ff16905092915050565b6000801b81565b6006806000015490806001018054610eda9061205a565b80601f0160208091040260200160405190810160405280929190818152602001828054610f069061205a565b8015610f535780601f10610f2857610100808354040283529160200191610f53565b820191906000526020600020905b815481529060010190602001808311610f3657829003601f168201915b505050505090806002015490806003018054610f6e9061205a565b80601f0160208091040260200160405190810160405280929190818152602001828054610f9a9061205a565b8015610fe75780601f10610fbc57610100808354040283529160200191610fe7565b820191906000526020600020905b815481529060010190602001808311610fca57829003601f168201915b505050505090806004018054610ffc9061205a565b80601f01602080910402602001604051908101604052809291908181526020018280546110289061205a565b80156110755780601f1061104a57610100808354040283529160200191611075565b820191906000526020600020905b81548152906001019060200180831161105857829003601f168201915b5050505050905085565b60016020528060005260406000206000915054906101000a900460ff1681565b7f97cb40d38f4c4db2fe8d633d82729d64ea9d66937b525f8be969cc8b9c0c5d38336040516110ce91906123ff565b60405180910390a16110df336109bc565b61111e576040517f08c379a000000000000000000000000000000000000000000000000000000000815260040161111590612466565b60405180910390fd5b6004600081548092919061113190611fe3565b91905055506040518060a001604052806004548152602001848152602001600081526020018381526020018281525060026000600454815260200190815260200160002060008201518160000155602082015181600101908161119491906127dd565b506040820151816002015560608201518160030190816111b491906127dd565b5060808201518160040190816111ca91906127dd565b50905050505050565b600360205280600052604060002060009150905080546111f29061205a565b80601f016020809104026020016040519081016040528092919081815260200182805461121e9061205a565b801561126b5780601f106112405761010080835404028352916020019161126b565b820191906000526020600020905b81548152906001019060200180831161124e57829003601f168201915b505050505081565b60007f97cb40d38f4c4db2fe8d633d82729d64ea9d66937b525f8be969cc8b9c0c5d38336040516112a491906123ff565b60405180910390a16112b5336109bc565b6112f4576040517f08c379a00000000000000000000000000000000000000000000000000000000081526004016112eb90612466565b60405180910390fd5b60001515600560009054906101000a900460ff1615151461134a576040517f08c379a0000000000000000000000000000000000000000000000000000000008152600401611341906128fb565b60405180910390fd5b6001600560006101000a81548160ff0219169083151502179055506001905090565b61137582610976565b61137e8161140a565b6113888383611506565b505050565b600560009054906101000a900460ff1681565b60007f01ffc9a7000000000000000000000000000000000000000000000000000000007bffffffffffffffffffffffffffffffffffffffffffffffffffffffff1916827bffffffffffffffffffffffffffffffffffffffffffffffffffffffff1916149050919050565b61141b816114166114fe565b6115e7565b50565b6114288282610e52565b6114fa57600160008084815260200190815260200160002060000160008373ffffffffffffffffffffffffffffffffffffffff1673ffffffffffffffffffffffffffffffffffffffff16815260200190815260200160002060006101000a81548160ff02191690831515021790555061149f6114fe565b73ffffffffffffffffffffffffffffffffffffffff168173ffffffffffffffffffffffffffffffffffffffff16837f2f8788117e7eff1d82e926ec794901d17c78024a50270940304540a733656f0d60405160405180910390a45b5050565b600033905090565b6115108282610e52565b156115e357600080600084815260200190815260200160002060000160008373ffffffffffffffffffffffffffffffffffffffff1673ffffffffffffffffffffffffffffffffffffffff16815260200190815260200160002060006101000a81548160ff0219169083151502179055506115886114fe565b73ffffffffffffffffffffffffffffffffffffffff168173ffffffffffffffffffffffffffffffffffffffff16837ff6391f5c32d9c69d2a47ea670b442974b53935d1edc7fd64eb21e047a839171b60405160405180910390a45b5050565b6115f18282610e52565b611668576115fe8161166c565b61160c8360001c6020611699565b60405160200161161d9291906129ef565b6040516020818303038152906040526040517f08c379a000000000000000000000000000000000000000000000000000000000815260040161165f9190611eba565b60405180910390fd5b5050565b60606116928273ffffffffffffffffffffffffffffffffffffffff16601460ff16611699565b9050919050565b6060600060028360026116ac9190612a29565b6116b691906125ad565b67ffffffffffffffff8111156116cf576116ce611ce8565b5b6040519080825280601f01601f1916602001820160405280156117015781602001600182028036833780820191505090505b5090507f30000000000000000000000000000000000000000000000000000000000000008160008151811061173957611738612a6b565b5b60200101907effffffffffffffffffffffffffffffffffffffffffffffffffffffffffffff1916908160001a9053507f78000000000000000000000000000000000000000000000000000000000000008160018151811061179d5761179c612a6b565b5b60200101907effffffffffffffffffffffffffffffffffffffffffffffffffffffffffffff1916908160001a905350600060018460026117dd9190612a29565b6117e791906125ad565b90505b6001811115611887577f3031323334353637383961626364656600000000000000000000000000000000600f86166010811061182957611828612a6b565b5b1a60f81b8282815181106118405761183f612a6b565b5b60200101907effffffffffffffffffffffffffffffffffffffffffffffffffffffffffffff1916908160001a905350600485901c94508061188090612584565b90506117ea565b50600084146118cb576040517f08c379a00000000000000000000000000000000000000000000000000000000081526004016118c290612ae6565b60405180910390fd5b8091505092915050565b5080546118e19061205a565b6000825580601f106118f35750611912565b601f0160209004906000526020600020908101906119119190611915565b5b50565b5b8082111561192e576000816000905550600101611916565b5090565b6000604051905090565b600080fd5b600080fd5b6000819050919050565b61195981611946565b811461196457600080fd5b50565b60008135905061197681611950565b92915050565b6000602082840312156119925761199161193c565b5b60006119a084828501611967565b91505092915050565b60007fffffffff0000000000000000000000000000000000000000000000000000000082169050919050565b6119de816119a9565b81146119e957600080fd5b50565b6000813590506119fb816119d5565b92915050565b600060208284031215611a1757611a1661193c565b5b6000611a25848285016119ec565b91505092915050565b60008115159050919050565b611a4381611a2e565b82525050565b6000602082019050611a5e6000830184611a3a565b92915050565b6000819050919050565b611a7781611a64565b8114611a8257600080fd5b50565b600081359050611a9481611a6e565b92915050565b600060208284031215611ab057611aaf61193c565b5b6000611abe84828501611a85565b91505092915050565b611ad081611a64565b82525050565b6000602082019050611aeb6000830184611ac7565b92915050565b611afa81611946565b82525050565b6000602082019050611b156000830184611af1565b92915050565b600073ffffffffffffffffffffffffffffffffffffffff82169050919050565b6000611b4682611b1b565b9050919050565b611b5681611b3b565b8114611b6157600080fd5b50565b600081359050611b7381611b4d565b92915050565b60008060408385031215611b9057611b8f61193c565b5b6000611b9e85828601611a85565b9250506020611baf85828601611b64565b9150509250929050565b600060208284031215611bcf57611bce61193c565b5b6000611bdd84828501611b64565b91505092915050565b600081519050919050565b600082825260208201905092915050565b60005b83811015611c20578082015181840152602081019050611c05565b60008484015250505050565b6000601f19601f8301169050919050565b6000611c4882611be6565b611c528185611bf1565b9350611c62818560208601611c02565b611c6b81611c2c565b840191505092915050565b600060a082019050611c8b6000830188611af1565b8181036020830152611c9d8187611c3d565b9050611cac6040830186611af1565b8181036060830152611cbe8185611c3d565b90508181036080830152611cd28184611c3d565b90509695505050505050565b600080fd5b600080fd5b7f4e487b7100000000000000000000000000000000000000000000000000000000600052604160045260246000fd5b611d2082611c2c565b810181811067ffffffffffffffff82111715611d3f57611d3e611ce8565b5b80604052505050565b6000611d52611932565b9050611d5e8282611d17565b919050565b600067ffffffffffffffff821115611d7e57611d7d611ce8565b5b611d8782611c2c565b9050602081019050919050565b82818337600083830152505050565b6000611db6611db184611d63565b611d48565b905082815260208101848484011115611dd257611dd1611ce3565b5b611ddd848285611d94565b509392505050565b600082601f830112611dfa57611df9611cde565b5b8135611e0a848260208601611da3565b91505092915050565b600080600060608486031215611e2c57611e2b61193c565b5b600084013567ffffffffffffffff811115611e4a57611e49611941565b5b611e5686828701611de5565b935050602084013567ffffffffffffffff811115611e7757611e76611941565b5b611e8386828701611de5565b925050604084013567ffffffffffffffff811115611ea457611ea3611941565b5b611eb086828701611de5565b9150509250925092565b60006020820190508181036000830152611ed48184611c3d565b905092915050565b7f456c657a696f6e69207465726d696e6174650000000000000000000000000000600082015250565b6000611f12601283611bf1565b9150611f1d82611edc565b602082019050919050565b60006020820190508181036000830152611f4181611f05565b9050919050565b7f4861692067696120766f7461746f000000000000000000000000000000000000600082015250565b6000611f7e600e83611bf1565b9150611f8982611f48565b602082019050919050565b60006020820190508181036000830152611fad81611f71565b9050919050565b7f4e487b7100000000000000000000000000000000000000000000000000000000600052601160045260246000fd5b6000611fee82611946565b91507fffffffffffffffffffffffffffffffffffffffffffffffffffffffffffffffff82036120205761201f611fb4565b5b600182019050919050565b7f4e487b7100000000000000000000000000000000000000000000000000000000600052602260045260246000fd5b6000600282049050600182168061207257607f821691505b6020821081036120855761208461202b565b5b50919050565b60008154905061209a8161205a565b9050919050565b60008190508160005260206000209050919050565b60008190508160005260206000209050919050565b60006020601f8301049050919050565b600082821b905092915050565b6000600883026121187fffffffffffffffffffffffffffffffffffffffffffffffffffffffffffffffff826120db565b61212286836120db565b95508019841693508086168417925050509392505050565b6000819050919050565b600061215f61215a61215584611946565b61213a565b611946565b9050919050565b6000819050919050565b61217983612144565b61218d61218582612166565b8484546120e8565b825550505050565b600090565b6121a2612195565b6121ad818484612170565b505050565b5b818110156121d1576121c660008261219a565b6001810190506121b3565b5050565b601f821115612216576121e7816120a1565b6121f0846120cb565b810160208510156121ff578190505b61221361220b856120cb565b8301826121b2565b50505b505050565b600082821c905092915050565b60006122396000198460080261221b565b1980831691505092915050565b60006122528383612228565b9150826002028217905092915050565b818103612270575050612348565b6122798261208b565b67ffffffffffffffff81111561229257612291611ce8565b5b61229c825461205a565b6122a78282856121d5565b6000601f8311600181146122d657600084156122c4578287015490505b6122ce8582612246565b865550612341565b601f1984166122e4876120b6565b96506122ef866120a1565b60005b82811015612317578489015482556001820191506001850194506020810190506122f2565b868310156123345784890154612330601f891682612228565b8355505b6001600288020188555050505b5050505050505b565b600081546123578161205a565b6123618186611bf1565b9450600182166000811461237c5760018114612392576123c5565b60ff1983168652811515602002860193506123c5565b61239b856120a1565b60005b838110156123bd5781548189015260018201915060208101905061239e565b808801955050505b50505092915050565b600060208201905081810360008301526123e8818461234a565b905092915050565b6123f981611b3b565b82525050565b600060208201905061241460008301846123f0565b92915050565b7f46756e7a696f6e6520736f6c6f2070657220696c2070726f706965746172696f600082015250565b6000612450602083611bf1565b915061245b8261241a565b602082019050919050565b6000602082019050818103600083015261247f81612443565b9050919050565b7f456c657a696f6e69206170657274652c20696d706f73736962696c652072696d60008201527f756f7665726520756e2063616e64696461746f00000000000000000000000000602082015250565b60006124e2603383611bf1565b91506124ed82612486565b604082019050919050565b60006020820190508181036000830152612511816124d5565b9050919050565b7f49642063616e64696461746f206e6f6e2076616c69646f210000000000000000600082015250565b600061254e601883611bf1565b915061255982612518565b602082019050919050565b6000602082019050818103600083015261257d81612541565b9050919050565b600061258f82611946565b9150600082036125a2576125a1611fb4565b5b600182039050919050565b60006125b882611946565b91506125c383611946565b92508282019050808211156125db576125da611fb4565b5b92915050565b6000815490506125f08161205a565b9050919050565b8181036126055750506126dd565b61260e826125e1565b67ffffffffffffffff81111561262757612626611ce8565b5b612631825461205a565b61263c8282856121d5565b6000601f83116001811461266b5760008415612659578287015490505b6126638582612246565b8655506126d6565b601f198416612679876120a1565b9650612684866120a1565b60005b828110156126ac57848901548255600182019150600185019450602081019050612687565b868310156126c957848901546126c5601f891682612228565b8355505b6001600288020188555050505b5050505050505b565b7f416363657373436f6e74726f6c3a2063616e206f6e6c792072656e6f756e636560008201527f20726f6c657320666f722073656c660000000000000000000000000000000000602082015250565b600061273b602f83611bf1565b9150612746826126df565b604082019050919050565b6000602082019050818103600083015261276a8161272e565b9050919050565b7f456c657a696f6e65206769612063686975736521000000000000000000000000600082015250565b60006127a7601483611bf1565b91506127b282612771565b602082019050919050565b600060208201905081810360008301526127d68161279a565b9050919050565b6127e682611be6565b67ffffffffffffffff8111156127ff576127fe611ce8565b5b612809825461205a565b6128148282856121d5565b600060209050601f8311600181146128475760008415612835578287015190505b61283f8582612246565b8655506128a7565b601f198416612855866120a1565b60005b8281101561287d57848901518255600182019150602085019450602081019050612858565b8683101561289a5784890151612896601f891682612228565b8355505b6001600288020188555050505b505050505050565b7f456c657a696f6e65206769612061706572746121000000000000000000000000600082015250565b60006128e5601483611bf1565b91506128f0826128af565b602082019050919050565b60006020820190508181036000830152612914816128d8565b9050919050565b600081905092915050565b7f416363657373436f6e74726f6c3a206163636f756e7420000000000000000000600082015250565b600061295c60178361291b565b915061296782612926565b601782019050919050565b600061297d82611be6565b612987818561291b565b9350612997818560208601611c02565b80840191505092915050565b7f206973206d697373696e6720726f6c6520000000000000000000000000000000600082015250565b60006129d960118361291b565b91506129e4826129a3565b601182019050919050565b60006129fa8261294f565b9150612a068285612972565b9150612a11826129cc565b9150612a1d8284612972565b91508190509392505050565b6000612a3482611946565b9150612a3f83611946565b9250828202612a4d81611946565b91508282048414831517612a6457612a63611fb4565b5b5092915050565b7f4e487b7100000000000000000000000000000000000000000000000000000000600052603260045260246000fd5b7f537472696e67733a20686578206c656e67746820696e73756666696369656e74600082015250565b6000612ad0602083611bf1565b9150612adb82612a9a565b602082019050919050565b60006020820190508181036000830152612aff81612ac3565b905091905056fea2646970667358221220652cb7fb856ea3dc1ee18999e37257252fb19ad23fd2cdee26b5bc71874ca03f64736f6c6343000811003368747470733a2f2f7777772e6d6574726f706f6c69737765622e69742f6d6574726f706f6c69737765622f6e6577732f77702d636f6e74656e742f75706c6f6164732f73697465732f322f323032332f30312f6d657373696e612d2e6a706768747470733a2f2f692e706f7374696d672e63632f6a354e38763634512f7669676e657474652d646976657274656e74692d656c657a696f6e692d67696f726769612d6d656c6f6e692e6a706768747470733a2f2f7777772e766973746f73756c7765622e636f6d2f77702d636f6e74656e742f75706c6f6164732f323032312f30322f736166655f696d6167652e6a706768747470733a2f2f7777772e706e676d6172742e636f6d2f66696c65732f31362f446f6e616c642d5472756d702d504e472d46696c652e706e67",
  "immutableReferences": {},
  "source": "pragma solidity ^0.8.0;\r\n\r\nimport \"@openzeppelin/contracts/access/AccessControl.sol\";\r\n\r\n\r\ncontract Election is AccessControl {\r\n    // Model a Candidate\r\n    struct Candidate {\r\n        uint id;\r\n        string name;\r\n        uint voteCount;\r\n        string partyShortcut;\r\n        string partyFlag;\r\n    }\r\n\r\n\r\n    event votedEvent (\r\n        uint indexed _candidateId,  string candidateName\r\n    );\r\n    event checksoloOwner(address user);\r\n    event removedCandidateEvent (uint indexed _candidateId);\r\n\r\n\r\n    // Store accounts that have voted\r\n    mapping(address => bool) public voters;\r\n    // Read/write candidates\r\n    mapping(uint => Candidate) public candidates;\r\n    mapping(address => string) public candidateVoted;\r\n    // Store Candidates Count\r\n\r\n    uint public candidatesCount;\r\n    bool public open;\r\n    Candidate public canditatoVincitore;\r\n    \r\n    constructor () public {\r\n        _setupRole(DEFAULT_ADMIN_ROLE, msg.sender);\r\n        inizializzaDatabaseCandidati();\r\n         open = true; //Elezioni aperte\r\n    }\r\n\r\n\r\n    function addCandidate (string memory nome, string memory partito, string memory logo) public soloOwner {\r\n        candidatesCount ++;\r\n        candidates[candidatesCount] = Candidate(candidatesCount, nome, 0, partito, logo);\r\n    }\r\n\r\n    function removeCandidate(uint _candidateId) public soloOwner {\r\n        require(!open, \"Elezioni aperte, impossibile rimuovere un candidato\");\r\n        require(_candidateId > 0 && _candidateId <= candidatesCount, \"Id candidato non valido!\");\r\n        delete candidates[_candidateId];\r\n        candidatesCount--;\r\n        // Shift the candidates' ids down by one starting from the removed candidate's id\r\n        for (uint i = _candidateId; i <= candidatesCount; i++) {\r\n            candidates[i] = candidates[i+1];\r\n        }\r\n        delete candidates[candidatesCount+1];\r\n        emit removedCandidateEvent(_candidateId);\r\n\r\n    }\r\n\r\n    function openElection() public soloOwner returns (bool){\r\n        require(open == false, \"Elezione gia aperta!\"); //Se l'elezione  chiusa..\r\n        open = true;\r\n\r\n        return true; //Operazione riuscita!\r\n    }\r\n\r\n    function closeElection() public soloOwner returns (bool){\r\n        require(open == true, \"Elezione gia chiuse!\"); //Se l'elezione  aperta..\r\n        open = false;\r\n\r\n        canditatoVincitore = candidates[1];\r\n\r\n        for (uint i = 2; i <= candidatesCount; i++) {\r\n            if(candidates[i].voteCount > canditatoVincitore.voteCount){\r\n                canditatoVincitore = candidates[i];\r\n            }\r\n        }\r\n        return true; //Operazione riuscita! \r\n    }\r\n\r\n    function isElectionOpen() public returns (bool){\r\n        return open;\r\n    }\r\n\r\n    modifier soloOwner() {\r\n      emit checksoloOwner(msg.sender);\r\n      require(isOwner(msg.sender), \"Funzione solo per il propietario\");\r\n      _;\r\n    }\r\n\r\n    function isOwner(address account) public virtual view returns (bool) {\r\n      return hasRole(DEFAULT_ADMIN_ROLE, account);\r\n    }\r\n\r\n    function vote (uint _candidateId) public {\r\n\r\n        require(open, \"Elezioni terminate\");\r\n        // Requisiti per il votante\r\n        require(!voters[msg.sender], \"Hai gia votato\");\r\n\r\n        // Requisiti per un candidato\r\n        require(_candidateId > 0 && _candidateId <= candidatesCount);\r\n\r\n        // Ricordo che chi vota non pu pi votare\r\n        voters[msg.sender] = true;\r\n\r\n        // Aggiorno il voto del candidato\r\n        candidates[_candidateId].voteCount++;\r\n\r\n        // Aggiornamente del candidato votato!\r\n        candidateVoted[msg.sender] = candidates[_candidateId].name;\r\n        \r\n        // trigger voted event\r\n        emit votedEvent(_candidateId,  candidates[_candidateId].name);\r\n    }\r\n\r\n    /**\r\n     * Inizializza i candidati\r\n     */\r\n    function inizializzaDatabaseCandidati() internal {\r\n        Candidate memory candidate_1= Candidate({\r\n            id: 1,\r\n            name: \"Giorgia Meloni\",\r\n            voteCount: 0,\r\n            partyShortcut: \"FDI\",\r\n            partyFlag: \"https://i.postimg.cc/j5N8v64Q/vignette-divertenti-elezioni-giorgia-meloni.jpg\"\r\n            \r\n        });\r\n        Candidate memory candidate_2 = Candidate({\r\n            id: 2,\r\n            name: \"Matteo Renzi\",\r\n            voteCount: 0,\r\n            partyShortcut: \"IV\",\r\n            partyFlag: \"https://www.vistosulweb.com/wp-content/uploads/2021/02/safe_image.jpg\"\r\n            \r\n        });\r\n        Candidate memory candidate_3 = Candidate({\r\n            id: 3,\r\n            name: \"Donald Trump\",\r\n            voteCount: 0,\r\n            partyShortcut: \"RPB\",\r\n            partyFlag: \"https://www.pngmart.com/files/16/Donald-Trump-PNG-File.png\"\r\n        });\r\n        Candidate memory candidate_4 = Candidate({\r\n            id: 4,\r\n            name: \"Matteo Messina Denaro\",\r\n            voteCount: 0,\r\n            partyShortcut: \"MAFIA\",\r\n            partyFlag: \"https://www.metropolisweb.it/metropolisweb/news/wp-content/uploads/sites/2/2023/01/messina-.jpg\"\r\n        });\r\n\r\n        addCandidate(candidate_1.name,candidate_1.partyShortcut, candidate_1.partyFlag);\r\n        addCandidate(candidate_2.name,candidate_2.partyShortcut, candidate_2.partyFlag);\r\n        addCandidate(candidate_3.name,candidate_3.partyShortcut, candidate_3.partyFlag);\r\n        addCandidate(candidate_4.name,candidate_4.partyShortcut, candidate_4.partyFlag);\r\n\r\n   \r\n    }\r\n}\r\n\r\n    ",
  "sourcePath": "C:\\Users\\darnx\\Desktop\\SimpleE-VotingSystem\\contracts\\Election.sol",
  "compiler": {
    "name": "solc",
    "version": "0.8.17+commit.8df45f5f.Emscripten.clang"
  },
  "schemaVersion": "3.4.11",
  "updatedAt": "2023-01-19T13:46:08.984Z",
  "networkType": "ethereum",
  "devdoc": {
    "kind": "dev",
    "methods": {
      "getRoleAdmin(bytes32)": {
        "details": "Returns the admin role that controls `role`. See {grantRole} and {revokeRole}. To change a role's admin, use {_setRoleAdmin}."
      },
      "grantRole(bytes32,address)": {
        "details": "Grants `role` to `account`. If `account` had not been already granted `role`, emits a {RoleGranted} event. Requirements: - the caller must have ``role``'s admin role. May emit a {RoleGranted} event."
      },
      "hasRole(bytes32,address)": {
        "details": "Returns `true` if `account` has been granted `role`."
      },
      "renounceRole(bytes32,address)": {
        "details": "Revokes `role` from the calling account. Roles are often managed via {grantRole} and {revokeRole}: this function's purpose is to provide a mechanism for accounts to lose their privileges if they are compromised (such as when a trusted device is misplaced). If the calling account had been revoked `role`, emits a {RoleRevoked} event. Requirements: - the caller must be `account`. May emit a {RoleRevoked} event."
      },
      "revokeRole(bytes32,address)": {
        "details": "Revokes `role` from `account`. If `account` had been granted `role`, emits a {RoleRevoked} event. Requirements: - the caller must have ``role``'s admin role. May emit a {RoleRevoked} event."
      },
      "supportsInterface(bytes4)": {
        "details": "See {IERC165-supportsInterface}."
      }
    },
    "version": 1
  },
  "userdoc": {
    "kind": "user",
    "methods": {},
    "version": 1
  }
}