{
  "contractName": "Election",
  "abi": [
    {
      "inputs": [],
      "stateMutability": "nonpayable",
      "type": "constructor"
    },
    {
      "anonymous": false,
      "inputs": [
        {
          "indexed": true,
          "internalType": "bytes32",
          "name": "role",
          "type": "bytes32"
        },
        {
          "indexed": true,
          "internalType": "bytes32",
          "name": "previousAdminRole",
          "type": "bytes32"
        },
        {
          "indexed": true,
          "internalType": "bytes32",
          "name": "newAdminRole",
          "type": "bytes32"
        }
      ],
      "name": "RoleAdminChanged",
      "type": "event"
    },
    {
      "anonymous": false,
      "inputs": [
        {
          "indexed": true,
          "internalType": "bytes32",
          "name": "role",
          "type": "bytes32"
        },
        {
          "indexed": true,
          "internalType": "address",
          "name": "account",
          "type": "address"
        },
        {
          "indexed": true,
          "internalType": "address",
          "name": "sender",
          "type": "address"
        }
      ],
      "name": "RoleGranted",
      "type": "event"
    },
    {
      "anonymous": false,
      "inputs": [
        {
          "indexed": true,
          "internalType": "bytes32",
          "name": "role",
          "type": "bytes32"
        },
        {
          "indexed": true,
          "internalType": "address",
          "name": "account",
          "type": "address"
        },
        {
          "indexed": true,
          "internalType": "address",
          "name": "sender",
          "type": "address"
        }
      ],
      "name": "RoleRevoked",
      "type": "event"
    },
    {
      "anonymous": false,
      "inputs": [
        {
          "indexed": false,
          "internalType": "address",
          "name": "user",
          "type": "address"
        }
      ],
      "name": "checksoloOwner",
      "type": "event"
    },
    {
      "anonymous": false,
      "inputs": [
        {
          "indexed": true,
          "internalType": "uint256",
          "name": "_candidateId",
          "type": "uint256"
        }
      ],
      "name": "removedCandidateEvent",
      "type": "event"
    },
    {
      "anonymous": false,
      "inputs": [
        {
          "indexed": true,
          "internalType": "uint256",
          "name": "_candidateId",
          "type": "uint256"
        },
        {
          "indexed": false,
          "internalType": "string",
          "name": "candidateName",
          "type": "string"
        }
      ],
      "name": "votedEvent",
      "type": "event"
    },
    {
      "inputs": [],
      "name": "DEFAULT_ADMIN_ROLE",
      "outputs": [
        {
          "internalType": "bytes32",
          "name": "",
          "type": "bytes32"
        }
      ],
      "stateMutability": "view",
      "type": "function",
      "constant": true
    },
    {
      "inputs": [
        {
          "internalType": "address",
          "name": "",
          "type": "address"
        }
      ],
      "name": "candidateVoted",
      "outputs": [
        {
          "internalType": "string",
          "name": "",
          "type": "string"
        }
      ],
      "stateMutability": "view",
      "type": "function",
      "constant": true
    },
    {
      "inputs": [
        {
          "internalType": "uint256",
          "name": "",
          "type": "uint256"
        }
      ],
      "name": "candidates",
      "outputs": [
        {
          "internalType": "uint256",
          "name": "id",
          "type": "uint256"
        },
        {
          "internalType": "string",
          "name": "name",
          "type": "string"
        },
        {
          "internalType": "uint256",
          "name": "voteCount",
          "type": "uint256"
        },
        {
          "internalType": "string",
          "name": "partyShortcut",
          "type": "string"
        },
        {
          "internalType": "string",
          "name": "partyFlag",
          "type": "string"
        }
      ],
      "stateMutability": "view",
      "type": "function",
      "constant": true
    },
    {
      "inputs": [],
      "name": "candidatesCount",
      "outputs": [
        {
          "internalType": "uint256",
          "name": "",
          "type": "uint256"
        }
      ],
      "stateMutability": "view",
      "type": "function",
      "constant": true
    },
    {
      "inputs": [
        {
          "internalType": "bytes32",
          "name": "role",
          "type": "bytes32"
        }
      ],
      "name": "getRoleAdmin",
      "outputs": [
        {
          "internalType": "bytes32",
          "name": "",
          "type": "bytes32"
        }
      ],
      "stateMutability": "view",
      "type": "function",
      "constant": true
    },
    {
      "inputs": [
        {
          "internalType": "bytes32",
          "name": "role",
          "type": "bytes32"
        },
        {
          "internalType": "address",
          "name": "account",
          "type": "address"
        }
      ],
      "name": "grantRole",
      "outputs": [],
      "stateMutability": "nonpayable",
      "type": "function"
    },
    {
      "inputs": [
        {
          "internalType": "bytes32",
          "name": "role",
          "type": "bytes32"
        },
        {
          "internalType": "address",
          "name": "account",
          "type": "address"
        }
      ],
      "name": "hasRole",
      "outputs": [
        {
          "internalType": "bool",
          "name": "",
          "type": "bool"
        }
      ],
      "stateMutability": "view",
      "type": "function",
      "constant": true
    },
    {
      "inputs": [
        {
          "internalType": "uint256",
          "name": "",
          "type": "uint256"
        }
      ],
      "name": "listaVotanti",
      "outputs": [
        {
          "internalType": "address",
          "name": "",
          "type": "address"
        }
      ],
      "stateMutability": "view",
      "type": "function",
      "constant": true
    },
    {
      "inputs": [],
      "name": "open",
      "outputs": [
        {
          "internalType": "bool",
          "name": "",
          "type": "bool"
        }
      ],
      "stateMutability": "view",
      "type": "function",
      "constant": true
    },
    {
      "inputs": [
        {
          "internalType": "bytes32",
          "name": "role",
          "type": "bytes32"
        },
        {
          "internalType": "address",
          "name": "account",
          "type": "address"
        }
      ],
      "name": "renounceRole",
      "outputs": [],
      "stateMutability": "nonpayable",
      "type": "function"
    },
    {
      "inputs": [
        {
          "internalType": "bytes32",
          "name": "role",
          "type": "bytes32"
        },
        {
          "internalType": "address",
          "name": "account",
          "type": "address"
        }
      ],
      "name": "revokeRole",
      "outputs": [],
      "stateMutability": "nonpayable",
      "type": "function"
    },
    {
      "inputs": [],
      "name": "risultatoElezione",
      "outputs": [
        {
          "internalType": "string",
          "name": "",
          "type": "string"
        }
      ],
      "stateMutability": "view",
      "type": "function",
      "constant": true
    },
    {
      "inputs": [
        {
          "internalType": "bytes4",
          "name": "interfaceId",
          "type": "bytes4"
        }
      ],
      "name": "supportsInterface",
      "outputs": [
        {
          "internalType": "bool",
          "name": "",
          "type": "bool"
        }
      ],
      "stateMutability": "view",
      "type": "function",
      "constant": true
    },
    {
      "inputs": [
        {
          "internalType": "address",
          "name": "",
          "type": "address"
        }
      ],
      "name": "voters",
      "outputs": [
        {
          "internalType": "bool",
          "name": "",
          "type": "bool"
        }
      ],
      "stateMutability": "view",
      "type": "function",
      "constant": true
    },
    {
      "inputs": [
        {
          "internalType": "string",
          "name": "nome",
          "type": "string"
        },
        {
          "internalType": "string",
          "name": "partito",
          "type": "string"
        },
        {
          "internalType": "string",
          "name": "logo",
          "type": "string"
        }
      ],
      "name": "addCandidate",
      "outputs": [],
      "stateMutability": "nonpayable",
      "type": "function"
    },
    {
      "inputs": [
        {
          "internalType": "uint256",
          "name": "_candidateId",
          "type": "uint256"
        }
      ],
      "name": "removeCandidate",
      "outputs": [],
      "stateMutability": "nonpayable",
      "type": "function"
    },
    {
      "inputs": [],
      "name": "resetElection",
      "outputs": [],
      "stateMutability": "nonpayable",
      "type": "function"
    },
    {
      "inputs": [],
      "name": "openElection",
      "outputs": [
        {
          "internalType": "bool",
          "name": "",
          "type": "bool"
        }
      ],
      "stateMutability": "nonpayable",
      "type": "function"
    },
    {
      "inputs": [],
      "name": "closeElection",
      "outputs": [
        {
          "internalType": "bool",
          "name": "",
          "type": "bool"
        }
      ],
      "stateMutability": "nonpayable",
      "type": "function"
    },
    {
      "inputs": [],
      "name": "isElectionOpen",
      "outputs": [
        {
          "internalType": "bool",
          "name": "",
          "type": "bool"
        }
      ],
      "stateMutability": "nonpayable",
      "type": "function"
    },
    {
      "inputs": [
        {
          "internalType": "address",
          "name": "account",
          "type": "address"
        }
      ],
      "name": "isOwner",
      "outputs": [
        {
          "internalType": "bool",
          "name": "",
          "type": "bool"
        }
      ],
      "stateMutability": "view",
      "type": "function",
      "constant": true
    },
    {
      "inputs": [
        {
          "internalType": "uint256",
          "name": "_candidateId",
          "type": "uint256"
        }
      ],
      "name": "vote",
      "outputs": [],
      "stateMutability": "nonpayable",
      "type": "function"
    }
  ],
  "bytecode": "0x60806040523480156200001157600080fd5b50620000276000801b336200008160201b60201c565b600060048190555060405180602001604052806000815250600690816200004f919062000a72565b50620000606200009760201b60201c565b6001600560006101000a81548160ff02191690831515021790555062000bd5565b6200009382826200069560201b60201c565b5050565b60006040518060a00160405280600181526020016040518060400160405280600e81526020017f47696f72676961204d656c6f6e690000000000000000000000000000000000008152508152602001600081526020016040518060400160405280600381526020017f464449000000000000000000000000000000000000000000000000000000000081525081526020016040518060800160405280604d815260200162003e1c604d9139815250905060006040518060a00160405280600281526020016040518060400160405280601281526020017f4d617474656f2044656c6c6120526f63636100000000000000000000000000008152508152602001600081526020016040518060400160405280600781526020017f46726565646f6d0000000000000000000000000000000000000000000000000081525081526020016040518060400160405280601981526020017f2e2f696d616765732f6d64722d636f6c6f7261746f2e6a706700000000000000815250815250905060006040518060a00160405280600381526020016040518060400160405280601081526020017f4361726d696e65204427416e67656c6f000000000000000000000000000000008152508152602001600081526020016040518060400160405280600381526020017f4e434f0000000000000000000000000000000000000000000000000000000000815250815260200160405180608001604052806059815260200162003e6960599139815250905060006040518060a00160405280600481526020016040518060400160405280601581526020017f4d617474656f204d657373696e612044656e61726f00000000000000000000008152508152602001600081526020016040518060400160405280600581526020017f4d4146494100000000000000000000000000000000000000000000000000000081525081526020016040518060800160405280605f815260200162003dbd605f9139815250905060046000815480929190620003889062000b88565b91905055506040518060a0016040528060045481526020018560200151815260200185604001518152602001856060015181526020018560800151815250600260006004548152602001908152602001600020600082015181600001556020820151816001019081620003fc919062000a72565b506040820151816002015560608201518160030190816200041e919062000a72565b50608082015181600401908162000436919062000a72565b50905050600460008154809291906200044f9062000b88565b91905055506040518060a0016040528060045481526020018460200151815260200184604001518152602001846060015181526020018460800151815250600260006004548152602001908152602001600020600082015181600001556020820151816001019081620004c3919062000a72565b50604082015181600201556060820151816003019081620004e5919062000a72565b506080820151816004019081620004fd919062000a72565b5090505060046000815480929190620005169062000b88565b91905055506040518060a00160405280600454815260200183602001518152602001836040015181526020018360600151815260200183608001518152506002600060045481526020019081526020016000206000820151816000015560208201518160010190816200058a919062000a72565b50604082015181600201556060820151816003019081620005ac919062000a72565b506080820151816004019081620005c4919062000a72565b5090505060046000815480929190620005dd9062000b88565b91905055506040518060a001604052806004548152602001826020015181526020018260400151815260200182606001518152602001826080015181525060026000600454815260200190815260200160002060008201518160000155602082015181600101908162000651919062000a72565b5060408201518160020155606082015181600301908162000673919062000a72565b5060808201518160040190816200068b919062000a72565b5090505050505050565b620006a782826200078660201b60201c565b6200078257600160008084815260200190815260200160002060000160008373ffffffffffffffffffffffffffffffffffffffff1673ffffffffffffffffffffffffffffffffffffffff16815260200190815260200160002060006101000a81548160ff02191690831515021790555062000727620007f060201b60201c565b73ffffffffffffffffffffffffffffffffffffffff168173ffffffffffffffffffffffffffffffffffffffff16837f2f8788117e7eff1d82e926ec794901d17c78024a50270940304540a733656f0d60405160405180910390a45b5050565b600080600084815260200190815260200160002060000160008373ffffffffffffffffffffffffffffffffffffffff1673ffffffffffffffffffffffffffffffffffffffff16815260200190815260200160002060009054906101000a900460ff16905092915050565b600033905090565b600081519050919050565b7f4e487b7100000000000000000000000000000000000000000000000000000000600052604160045260246000fd5b7f4e487b7100000000000000000000000000000000000000000000000000000000600052602260045260246000fd5b600060028204905060018216806200087a57607f821691505b60208210810362000890576200088f62000832565b5b50919050565b60008190508160005260206000209050919050565b60006020601f8301049050919050565b600082821b905092915050565b600060088302620008fa7fffffffffffffffffffffffffffffffffffffffffffffffffffffffffffffffff82620008bb565b620009068683620008bb565b95508019841693508086168417925050509392505050565b6000819050919050565b6000819050919050565b6000620009536200094d62000947846200091e565b62000928565b6200091e565b9050919050565b6000819050919050565b6200096f8362000932565b620009876200097e826200095a565b848454620008c8565b825550505050565b600090565b6200099e6200098f565b620009ab81848462000964565b505050565b5b81811015620009d357620009c760008262000994565b600181019050620009b1565b5050565b601f82111562000a2257620009ec8162000896565b620009f784620008ab565b8101602085101562000a07578190505b62000a1f62000a1685620008ab565b830182620009b0565b50505b505050565b600082821c905092915050565b600062000a476000198460080262000a27565b1980831691505092915050565b600062000a62838362000a34565b9150826002028217905092915050565b62000a7d82620007f8565b67ffffffffffffffff81111562000a995762000a9862000803565b5b62000aa5825462000861565b62000ab2828285620009d7565b600060209050601f83116001811462000aea576000841562000ad5578287015190505b62000ae1858262000a54565b86555062000b51565b601f19841662000afa8662000896565b60005b8281101562000b245784890151825560018201915060208501945060208101905062000afd565b8683101562000b44578489015162000b40601f89168262000a34565b8355505b6001600288020188555050505b505050505050565b7f4e487b7100000000000000000000000000000000000000000000000000000000600052601160045260246000fd5b600062000b95826200091e565b91507fffffffffffffffffffffffffffffffffffffffffffffffffffffffffffffffff820362000bca5762000bc962000b59565b5b600182019050919050565b6131d88062000be56000396000f3fe608060405234801561001057600080fd5b50600436106101425760003560e01c80636c9d4e8c116100b8578063ad71f8dc1161007c578063ad71f8dc146103a1578063b33c8dfa146103bd578063c5d00f5d146103ed578063d547741f1461040b578063e8f3052314610427578063fcfff16f1461043157610142565b80636c9d4e8c146102d55780636f2cd40d1461030557806391d1485414610323578063a217fddf14610353578063a3ec138d1461037157610142565b80632d35a8a21161010a5780632d35a8a2146101fd5780632f2ff15d1461021b5780632f54bf6e146102375780633477ee2e1461026757806336568abe1461029b5780636c6c32d0146102b757610142565b80630121b93f1461014757806301ffc9a71461016357806309e9d7e214610193578063248a9ca3146101af57806324a897b9146101df575b600080fd5b610161600480360381019061015c9190611ef4565b61044f565b005b61017d60048036038101906101789190611f79565b6106de565b60405161018a9190611fc1565b60405180910390f35b6101ad60048036038101906101a89190611ef4565b610758565b005b6101c960048036038101906101c49190612012565b610a25565b6040516101d6919061204e565b60405180910390f35b6101e7610a44565b6040516101f491906120f9565b60405180910390f35b610205610ad2565b604051610212919061212a565b60405180910390f35b610235600480360381019061023091906121a3565b610ad8565b005b610251600480360381019061024c91906121e3565b610af9565b60405161025e9190611fc1565b60405180910390f35b610281600480360381019061027c9190611ef4565b610b0f565b604051610292959493929190612210565b60405180910390f35b6102b560048036038101906102b091906121a3565b610cdd565b005b6102bf610d60565b6040516102cc9190611fc1565b60405180910390f35b6102ef60048036038101906102ea9190611ef4565b61114a565b6040516102fc9190612287565b60405180910390f35b61030d611189565b60405161031a9190611fc1565b60405180910390f35b61033d600480360381019061033891906121a3565b6111a0565b60405161034a9190611fc1565b60405180910390f35b61035b61120a565b604051610368919061204e565b60405180910390f35b61038b600480360381019061038691906121e3565b611211565b6040516103989190611fc1565b60405180910390f35b6103bb60048036038101906103b691906123d7565b611231565b005b6103d760048036038101906103d291906121e3565b6113b5565b6040516103e491906120f9565b60405180910390f35b6103f5611455565b6040516104029190611fc1565b60405180910390f35b610425600480360381019061042091906121a3565b61154e565b005b61042f61156f565b005b61043961184c565b6040516104469190611fc1565b60405180910390f35b600560009054906101000a900460ff1661049e576040517f08c379a0000000000000000000000000000000000000000000000000000000008152600401610495906124ca565b60405180910390fd5b600160003373ffffffffffffffffffffffffffffffffffffffff1673ffffffffffffffffffffffffffffffffffffffff16815260200190815260200160002060009054906101000a900460ff161561052b576040517f08c379a000000000000000000000000000000000000000000000000000000000815260040161052290612536565b60405180910390fd5b60008111801561053d57506004548111155b61054657600080fd5b60018060003373ffffffffffffffffffffffffffffffffffffffff1673ffffffffffffffffffffffffffffffffffffffff16815260200190815260200160002060006101000a81548160ff0219169083151502179055506002600082815260200190815260200160002060020160008154809291906105c490612585565b919050555060026000828152602001908152602001600020600101600360003373ffffffffffffffffffffffffffffffffffffffff1673ffffffffffffffffffffffffffffffffffffffff168152602001908152602001600020908161062a9190612804565b506007339080600181540180825580915050600190039060005260206000200160009091909190916101000a81548173ffffffffffffffffffffffffffffffffffffffff021916908373ffffffffffffffffffffffffffffffffffffffff160217905550807f979840814b99e27d10388b0f146721af580825d27335aaf4e683f78f56be49c2600260008481526020019081526020016000206001016040516106d39190612970565b60405180910390a250565b60007f7965db0b000000000000000000000000000000000000000000000000000000007bffffffffffffffffffffffffffffffffffffffffffffffffffffffff1916827bffffffffffffffffffffffffffffffffffffffffffffffffffffffff1916148061075157506107508261185f565b5b9050919050565b7f97cb40d38f4c4db2fe8d633d82729d64ea9d66937b525f8be969cc8b9c0c5d38336040516107879190612287565b60405180910390a161079833610af9565b6107d7576040517f08c379a00000000000000000000000000000000000000000000000000000000081526004016107ce906129de565b60405180910390fd5b600560009054906101000a900460ff1615610827576040517f08c379a000000000000000000000000000000000000000000000000000000000815260040161081e90612a70565b60405180910390fd5b60008111801561083957506004548111155b610878576040517f08c379a000000000000000000000000000000000000000000000000000000000815260040161086f90612adc565b60405180910390fd5b600260008281526020019081526020016000206000808201600090556001820160006108a49190611d94565b60028201600090556003820160006108bc9190611d94565b6004820160006108cc9190611d94565b5050600460008154809291906108e190612afc565b919050555060008190505b600454811161099057600260006001836109069190612b25565b81526020019081526020016000206002600083815260200190815260200160002060008201548160000155600182018160010190816109459190612b6f565b5060028201548160020155600382018160030190816109649190612b6f565b50600482018160040190816109799190612b6f565b50905050808061098890612585565b9150506108ec565b506002600060016004546109a49190612b25565b81526020019081526020016000206000808201600090556001820160006109cb9190611d94565b60028201600090556003820160006109e39190611d94565b6004820160006109f39190611d94565b5050807f20d7243f0784acc9041a7a8e8935b200eb8c016d8f93944acf368b87bee6352460405160405180910390a250565b6000806000838152602001908152602001600020600101549050919050565b60068054610a51906125fc565b80601f0160208091040260200160405190810160405280929190818152602001828054610a7d906125fc565b8015610aca5780601f10610a9f57610100808354040283529160200191610aca565b820191906000526020600020905b815481529060010190602001808311610aad57829003601f168201915b505050505081565b60045481565b610ae182610a25565b610aea816118c9565b610af483836118dd565b505050565b6000610b086000801b836111a0565b9050919050565b6002602052806000526040600020600091509050806000015490806001018054610b38906125fc565b80601f0160208091040260200160405190810160405280929190818152602001828054610b64906125fc565b8015610bb15780601f10610b8657610100808354040283529160200191610bb1565b820191906000526020600020905b815481529060010190602001808311610b9457829003601f168201915b505050505090806002015490806003018054610bcc906125fc565b80601f0160208091040260200160405190810160405280929190818152602001828054610bf8906125fc565b8015610c455780601f10610c1a57610100808354040283529160200191610c45565b820191906000526020600020905b815481529060010190602001808311610c2857829003601f168201915b505050505090806004018054610c5a906125fc565b80601f0160208091040260200160405190810160405280929190818152602001828054610c86906125fc565b8015610cd35780601f10610ca857610100808354040283529160200191610cd3565b820191906000526020600020905b815481529060010190602001808311610cb657829003601f168201915b5050505050905085565b610ce56119bd565b73ffffffffffffffffffffffffffffffffffffffff168173ffffffffffffffffffffffffffffffffffffffff1614610d52576040517f08c379a0000000000000000000000000000000000000000000000000000000008152600401610d4990612cc9565b60405180910390fd5b610d5c82826119c5565b5050565b60007f97cb40d38f4c4db2fe8d633d82729d64ea9d66937b525f8be969cc8b9c0c5d3833604051610d919190612287565b60405180910390a1610da233610af9565b610de1576040517f08c379a0000000000000000000000000000000000000000000000000000000008152600401610dd8906129de565b60405180910390fd5b60011515600560009054906101000a900460ff16151514610e37576040517f08c379a0000000000000000000000000000000000000000000000000000000008152600401610e2e90612d35565b60405180910390fd5b6000600560006101000a81548160ff021916908315150217905550600080610e5d611dd4565b6000600190505b60045481116110d7578360026000838152602001908152602001600020600201541115611097576002600082815260200190815260200160002060020154935060019250600260008281526020019081526020016000206040518060a001604052908160008201548152602001600182018054610ee0906125fc565b80601f0160208091040260200160405190810160405280929190818152602001828054610f0c906125fc565b8015610f595780601f10610f2e57610100808354040283529160200191610f59565b820191906000526020600020905b815481529060010190602001808311610f3c57829003601f168201915b5050505050815260200160028201548152602001600382018054610f7c906125fc565b80601f0160208091040260200160405190810160405280929190818152602001828054610fa8906125fc565b8015610ff55780601f10610fca57610100808354040283529160200191610ff5565b820191906000526020600020905b815481529060010190602001808311610fd857829003601f168201915b5050505050815260200160048201805461100e906125fc565b80601f016020809104026020016040519081016040528092919081815260200182805461103a906125fc565b80156110875780601f1061105c57610100808354040283529160200191611087565b820191906000526020600020905b81548152906001019060200180831161106a57829003601f168201915b50505050508152505091506110c4565b836002600083815260200190815260200160002060020154036110c35782806110bf90612585565b9350505b5b80806110cf90612585565b915050610e64565b50600182111561112b576040518060400160405280600881526020017f506172656767696f000000000000000000000000000000000000000000000000815250600690816111259190612d55565b50611140565b80602001516006908161113e9190612d55565b505b6001935050505090565b6007818154811061115a57600080fd5b906000526020600020016000915054906101000a900473ffffffffffffffffffffffffffffffffffffffff1681565b6000600560009054906101000a900460ff16905090565b600080600084815260200190815260200160002060000160008373ffffffffffffffffffffffffffffffffffffffff1673ffffffffffffffffffffffffffffffffffffffff16815260200190815260200160002060009054906101000a900460ff16905092915050565b6000801b81565b60016020528060005260406000206000915054906101000a900460ff1681565b7f97cb40d38f4c4db2fe8d633d82729d64ea9d66937b525f8be969cc8b9c0c5d38336040516112609190612287565b60405180910390a161127133610af9565b6112b0576040517f08c379a00000000000000000000000000000000000000000000000000000000081526004016112a7906129de565b60405180910390fd5b600560009054906101000a900460ff1615611300576040517f08c379a00000000000000000000000000000000000000000000000000000000081526004016112f790612e99565b60405180910390fd5b6004600081548092919061131390612585565b91905055506040518060a00160405280600454815260200184815260200160008152602001838152602001828152506002600060045481526020019081526020016000206000820151816000015560208201518160010190816113769190612d55565b506040820151816002015560608201518160030190816113969190612d55565b5060808201518160040190816113ac9190612d55565b50905050505050565b600360205280600052604060002060009150905080546113d4906125fc565b80601f0160208091040260200160405190810160405280929190818152602001828054611400906125fc565b801561144d5780601f106114225761010080835404028352916020019161144d565b820191906000526020600020905b81548152906001019060200180831161143057829003601f168201915b505050505081565b60007f97cb40d38f4c4db2fe8d633d82729d64ea9d66937b525f8be969cc8b9c0c5d38336040516114869190612287565b60405180910390a161149733610af9565b6114d6576040517f08c379a00000000000000000000000000000000000000000000000000000000081526004016114cd906129de565b60405180910390fd5b60001515600560009054906101000a900460ff1615151461152c576040517f08c379a000000000000000000000000000000000000000000000000000000000815260040161152390612f05565b60405180910390fd5b6001600560006101000a81548160ff0219169083151502179055506001905090565b61155782610a25565b611560816118c9565b61156a83836119c5565b505050565b7f97cb40d38f4c4db2fe8d633d82729d64ea9d66937b525f8be969cc8b9c0c5d383360405161159e9190612287565b60405180910390a16115af33610af9565b6115ee576040517f08c379a00000000000000000000000000000000000000000000000000000000081526004016115e5906129de565b60405180910390fd5b600560009054906101000a900460ff161561163e576040517f08c379a000000000000000000000000000000000000000000000000000000000815260040161163590612f97565b60405180910390fd5b60005b6004548110156116b457600260008281526020019081526020016000206000808201600090556001820160006116779190611d94565b600282016000905560038201600061168f9190611d94565b60048201600061169f9190611d94565b505080806116ac90612585565b915050611641565b50600060048190555060405180602001604052806000815250600690816116db9190612d55565b5060005b60078054905081101561182f576000600160006007848154811061170657611705612fb7565b5b9060005260206000200160009054906101000a900473ffffffffffffffffffffffffffffffffffffffff1673ffffffffffffffffffffffffffffffffffffffff1673ffffffffffffffffffffffffffffffffffffffff16815260200190815260200160002060006101000a81548160ff0219169083151502179055506040518060200160405280600081525060036000600784815481106117aa576117a9612fb7565b5b9060005260206000200160009054906101000a900473ffffffffffffffffffffffffffffffffffffffff1673ffffffffffffffffffffffffffffffffffffffff1673ffffffffffffffffffffffffffffffffffffffff168152602001908152602001600020908161181b9190612d55565b50808061182790612585565b9150506116df565b5060608060079080519060200190611848929190611e03565b5050565b600560009054906101000a900460ff1681565b60007f01ffc9a7000000000000000000000000000000000000000000000000000000007bffffffffffffffffffffffffffffffffffffffffffffffffffffffff1916827bffffffffffffffffffffffffffffffffffffffffffffffffffffffff1916149050919050565b6118da816118d56119bd565b611aa6565b50565b6118e782826111a0565b6119b957600160008084815260200190815260200160002060000160008373ffffffffffffffffffffffffffffffffffffffff1673ffffffffffffffffffffffffffffffffffffffff16815260200190815260200160002060006101000a81548160ff02191690831515021790555061195e6119bd565b73ffffffffffffffffffffffffffffffffffffffff168173ffffffffffffffffffffffffffffffffffffffff16837f2f8788117e7eff1d82e926ec794901d17c78024a50270940304540a733656f0d60405160405180910390a45b5050565b600033905090565b6119cf82826111a0565b15611aa257600080600084815260200190815260200160002060000160008373ffffffffffffffffffffffffffffffffffffffff1673ffffffffffffffffffffffffffffffffffffffff16815260200190815260200160002060006101000a81548160ff021916908315150217905550611a476119bd565b73ffffffffffffffffffffffffffffffffffffffff168173ffffffffffffffffffffffffffffffffffffffff16837ff6391f5c32d9c69d2a47ea670b442974b53935d1edc7fd64eb21e047a839171b60405160405180910390a45b5050565b611ab082826111a0565b611b2757611abd81611b2b565b611acb8360001c6020611b58565b604051602001611adc9291906130ba565b6040516020818303038152906040526040517f08c379a0000000000000000000000000000000000000000000000000000000008152600401611b1e91906120f9565b60405180910390fd5b5050565b6060611b518273ffffffffffffffffffffffffffffffffffffffff16601460ff16611b58565b9050919050565b606060006002836002611b6b91906130f4565b611b759190612b25565b67ffffffffffffffff811115611b8e57611b8d6122ac565b5b6040519080825280601f01601f191660200182016040528015611bc05781602001600182028036833780820191505090505b5090507f300000000000000000000000000000000000000000000000000000000000000081600081518110611bf857611bf7612fb7565b5b60200101907effffffffffffffffffffffffffffffffffffffffffffffffffffffffffffff1916908160001a9053507f780000000000000000000000000000000000000000000000000000000000000081600181518110611c5c57611c5b612fb7565b5b60200101907effffffffffffffffffffffffffffffffffffffffffffffffffffffffffffff1916908160001a90535060006001846002611c9c91906130f4565b611ca69190612b25565b90505b6001811115611d46577f3031323334353637383961626364656600000000000000000000000000000000600f861660108110611ce857611ce7612fb7565b5b1a60f81b828281518110611cff57611cfe612fb7565b5b60200101907effffffffffffffffffffffffffffffffffffffffffffffffffffffffffffff1916908160001a905350600485901c945080611d3f90612afc565b9050611ca9565b5060008414611d8a576040517f08c379a0000000000000000000000000000000000000000000000000000000008152600401611d8190613182565b60405180910390fd5b8091505092915050565b508054611da0906125fc565b6000825580601f10611db25750611dd1565b601f016020900490600052602060002090810190611dd09190611e8d565b5b50565b6040518060a0016040528060008152602001606081526020016000815260200160608152602001606081525090565b828054828255906000526020600020908101928215611e7c579160200282015b82811115611e7b5782518260006101000a81548173ffffffffffffffffffffffffffffffffffffffff021916908373ffffffffffffffffffffffffffffffffffffffff16021790555091602001919060010190611e23565b5b509050611e899190611e8d565b5090565b5b80821115611ea6576000816000905550600101611e8e565b5090565b6000604051905090565b600080fd5b600080fd5b6000819050919050565b611ed181611ebe565b8114611edc57600080fd5b50565b600081359050611eee81611ec8565b92915050565b600060208284031215611f0a57611f09611eb4565b5b6000611f1884828501611edf565b91505092915050565b60007fffffffff0000000000000000000000000000000000000000000000000000000082169050919050565b611f5681611f21565b8114611f6157600080fd5b50565b600081359050611f7381611f4d565b92915050565b600060208284031215611f8f57611f8e611eb4565b5b6000611f9d84828501611f64565b91505092915050565b60008115159050919050565b611fbb81611fa6565b82525050565b6000602082019050611fd66000830184611fb2565b92915050565b6000819050919050565b611fef81611fdc565b8114611ffa57600080fd5b50565b60008135905061200c81611fe6565b92915050565b60006020828403121561202857612027611eb4565b5b600061203684828501611ffd565b91505092915050565b61204881611fdc565b82525050565b6000602082019050612063600083018461203f565b92915050565b600081519050919050565b600082825260208201905092915050565b60005b838110156120a3578082015181840152602081019050612088565b60008484015250505050565b6000601f19601f8301169050919050565b60006120cb82612069565b6120d58185612074565b93506120e5818560208601612085565b6120ee816120af565b840191505092915050565b6000602082019050818103600083015261211381846120c0565b905092915050565b61212481611ebe565b82525050565b600060208201905061213f600083018461211b565b92915050565b600073ffffffffffffffffffffffffffffffffffffffff82169050919050565b600061217082612145565b9050919050565b61218081612165565b811461218b57600080fd5b50565b60008135905061219d81612177565b92915050565b600080604083850312156121ba576121b9611eb4565b5b60006121c885828601611ffd565b92505060206121d98582860161218e565b9150509250929050565b6000602082840312156121f9576121f8611eb4565b5b60006122078482850161218e565b91505092915050565b600060a082019050612225600083018861211b565b818103602083015261223781876120c0565b9050612246604083018661211b565b818103606083015261225881856120c0565b9050818103608083015261226c81846120c0565b90509695505050505050565b61228181612165565b82525050565b600060208201905061229c6000830184612278565b92915050565b600080fd5b600080fd5b7f4e487b7100000000000000000000000000000000000000000000000000000000600052604160045260246000fd5b6122e4826120af565b810181811067ffffffffffffffff82111715612303576123026122ac565b5b80604052505050565b6000612316611eaa565b905061232282826122db565b919050565b600067ffffffffffffffff821115612342576123416122ac565b5b61234b826120af565b9050602081019050919050565b82818337600083830152505050565b600061237a61237584612327565b61230c565b905082815260208101848484011115612396576123956122a7565b5b6123a1848285612358565b509392505050565b600082601f8301126123be576123bd6122a2565b5b81356123ce848260208601612367565b91505092915050565b6000806000606084860312156123f0576123ef611eb4565b5b600084013567ffffffffffffffff81111561240e5761240d611eb9565b5b61241a868287016123a9565b935050602084013567ffffffffffffffff81111561243b5761243a611eb9565b5b612447868287016123a9565b925050604084013567ffffffffffffffff81111561246857612467611eb9565b5b612474868287016123a9565b9150509250925092565b7f456c657a696f6e69207465726d696e6174650000000000000000000000000000600082015250565b60006124b4601283612074565b91506124bf8261247e565b602082019050919050565b600060208201905081810360008301526124e3816124a7565b9050919050565b7f4861692067696120766f7461746f000000000000000000000000000000000000600082015250565b6000612520600e83612074565b915061252b826124ea565b602082019050919050565b6000602082019050818103600083015261254f81612513565b9050919050565b7f4e487b7100000000000000000000000000000000000000000000000000000000600052601160045260246000fd5b600061259082611ebe565b91507fffffffffffffffffffffffffffffffffffffffffffffffffffffffffffffffff82036125c2576125c1612556565b5b600182019050919050565b7f4e487b7100000000000000000000000000000000000000000000000000000000600052602260045260246000fd5b6000600282049050600182168061261457607f821691505b602082108103612627576126266125cd565b5b50919050565b60008154905061263c816125fc565b9050919050565b60008190508160005260206000209050919050565b60008190508160005260206000209050919050565b60006020601f8301049050919050565b600082821b905092915050565b6000600883026126ba7fffffffffffffffffffffffffffffffffffffffffffffffffffffffffffffffff8261267d565b6126c4868361267d565b95508019841693508086168417925050509392505050565b6000819050919050565b60006127016126fc6126f784611ebe565b6126dc565b611ebe565b9050919050565b6000819050919050565b61271b836126e6565b61272f61272782612708565b84845461268a565b825550505050565b600090565b612744612737565b61274f818484612712565b505050565b5b818110156127735761276860008261273c565b600181019050612755565b5050565b601f8211156127b85761278981612643565b6127928461266d565b810160208510156127a1578190505b6127b56127ad8561266d565b830182612754565b50505b505050565b600082821c905092915050565b60006127db600019846008026127bd565b1980831691505092915050565b60006127f483836127ca565b9150826002028217905092915050565b8181036128125750506128ea565b61281b8261262d565b67ffffffffffffffff811115612834576128336122ac565b5b61283e82546125fc565b612849828285612777565b6000601f8311600181146128785760008415612866578287015490505b61287085826127e8565b8655506128e3565b601f19841661288687612658565b965061289186612643565b60005b828110156128b957848901548255600182019150600185019450602081019050612894565b868310156128d657848901546128d2601f8916826127ca565b8355505b6001600288020188555050505b5050505050505b565b600081546128f9816125fc565b6129038186612074565b9450600182166000811461291e576001811461293457612967565b60ff198316865281151560200286019350612967565b61293d85612643565b60005b8381101561295f57815481890152600182019150602081019050612940565b808801955050505b50505092915050565b6000602082019050818103600083015261298a81846128ec565b905092915050565b7f46756e7a696f6e6520736f6c6f2070657220696c2070726f706965746172696f600082015250565b60006129c8602083612074565b91506129d382612992565b602082019050919050565b600060208201905081810360008301526129f7816129bb565b9050919050565b7f456c657a696f6e69206170657274652c20696d706f73736962696c652072696d60008201527f756f7665726520756e2063616e64696461746f00000000000000000000000000602082015250565b6000612a5a603383612074565b9150612a65826129fe565b604082019050919050565b60006020820190508181036000830152612a8981612a4d565b9050919050565b7f49642063616e64696461746f206e6f6e2076616c69646f210000000000000000600082015250565b6000612ac6601883612074565b9150612ad182612a90565b602082019050919050565b60006020820190508181036000830152612af581612ab9565b9050919050565b6000612b0782611ebe565b915060008203612b1a57612b19612556565b5b600182039050919050565b6000612b3082611ebe565b9150612b3b83611ebe565b9250828201905080821115612b5357612b52612556565b5b92915050565b600081549050612b68816125fc565b9050919050565b818103612b7d575050612c55565b612b8682612b59565b67ffffffffffffffff811115612b9f57612b9e6122ac565b5b612ba982546125fc565b612bb4828285612777565b6000601f831160018114612be35760008415612bd1578287015490505b612bdb85826127e8565b865550612c4e565b601f198416612bf187612643565b9650612bfc86612643565b60005b82811015612c2457848901548255600182019150600185019450602081019050612bff565b86831015612c415784890154612c3d601f8916826127ca565b8355505b6001600288020188555050505b5050505050505b565b7f416363657373436f6e74726f6c3a2063616e206f6e6c792072656e6f756e636560008201527f20726f6c657320666f722073656c660000000000000000000000000000000000602082015250565b6000612cb3602f83612074565b9150612cbe82612c57565b604082019050919050565b60006020820190508181036000830152612ce281612ca6565b9050919050565b7f456c657a696f6e65206769612063686975736521000000000000000000000000600082015250565b6000612d1f601483612074565b9150612d2a82612ce9565b602082019050919050565b60006020820190508181036000830152612d4e81612d12565b9050919050565b612d5e82612069565b67ffffffffffffffff811115612d7757612d766122ac565b5b612d8182546125fc565b612d8c828285612777565b600060209050601f831160018114612dbf5760008415612dad578287015190505b612db785826127e8565b865550612e1f565b601f198416612dcd86612643565b60005b82811015612df557848901518255600182019150602085019450602081019050612dd0565b86831015612e125784890151612e0e601f8916826127ca565b8355505b6001600288020188555050505b505050505050565b7f456c657a696f6e69206170657274652c20696d706f73736962696c652061676760008201527f69756e6765726520696c2063616e64696461746f210000000000000000000000602082015250565b6000612e83603583612074565b9150612e8e82612e27565b604082019050919050565b60006020820190508181036000830152612eb281612e76565b9050919050565b7f456c657a696f6e65206769612061706572746121000000000000000000000000600082015250565b6000612eef601483612074565b9150612efa82612eb9565b602082019050919050565b60006020820190508181036000830152612f1e81612ee2565b9050919050565b7f456c657a696f6e69206170657274652c20696d706f73736962696c652072696d60008201527f756f7665726520692063616e6469646174690000000000000000000000000000602082015250565b6000612f81603283612074565b9150612f8c82612f25565b604082019050919050565b60006020820190508181036000830152612fb081612f74565b9050919050565b7f4e487b7100000000000000000000000000000000000000000000000000000000600052603260045260246000fd5b600081905092915050565b7f416363657373436f6e74726f6c3a206163636f756e7420000000000000000000600082015250565b6000613027601783612fe6565b915061303282612ff1565b601782019050919050565b600061304882612069565b6130528185612fe6565b9350613062818560208601612085565b80840191505092915050565b7f206973206d697373696e6720726f6c6520000000000000000000000000000000600082015250565b60006130a4601183612fe6565b91506130af8261306e565b601182019050919050565b60006130c58261301a565b91506130d1828561303d565b91506130dc82613097565b91506130e8828461303d565b91508190509392505050565b60006130ff82611ebe565b915061310a83611ebe565b925082820261311881611ebe565b9150828204841483151761312f5761312e612556565b5b5092915050565b7f537472696e67733a20686578206c656e67746820696e73756666696369656e74600082015250565b600061316c602083612074565b915061317782613136565b602082019050919050565b6000602082019050818103600083015261319b8161315f565b905091905056fea2646970667358221220474f867269eb788eb5dff060c40d0eaca8dd4e698b334e621e95fbb91982b76964736f6c6343000811003368747470733a2f2f7777772e6d6574726f706f6c69737765622e69742f6d6574726f706f6c69737765622f6e6577732f77702d636f6e74656e742f75706c6f6164732f73697465732f322f323032332f30312f6d657373696e612d2e6a706768747470733a2f2f692e706f7374696d672e63632f6a354e38763634512f7669676e657474652d646976657274656e74692d656c657a696f6e692d67696f726769612d6d656c6f6e692e6a706768747470733a2f2f6769746875622e636f6d2f6d6174746472352f53696d706c65452d566f74696e6753797374656d2f626c6f622f6d61696e2f7372632f696d616765732f63617264616e6f2e6a70673f7261773d74727565",
  "immutableReferences": {},
  "source": "pragma solidity ^0.8.0;\r\n\r\nimport \"@openzeppelin/contracts/access/AccessControl.sol\";\r\n\r\n\r\ncontract Election is AccessControl {\r\n    \r\n    // Model a Candidate\r\n    struct Candidate {\r\n        uint id;\r\n        string name;\r\n        uint voteCount;\r\n        string partyShortcut;\r\n        string partyFlag;\r\n    }\r\n\r\n\r\n    event votedEvent (\r\n        uint indexed _candidateId,  string candidateName\r\n    );\r\n    event checksoloOwner(address user);\r\n    event removedCandidateEvent (uint indexed _candidateId);\r\n\r\n\r\n    // Store accounts that have voted\r\n    mapping(address => bool) public voters;\r\n    // Read/write candidates\r\n    mapping(uint => Candidate) public candidates;\r\n    mapping(address => string) public candidateVoted;\r\n\r\n    \r\n    // Store Candidates Count\r\n    uint public candidatesCount;\r\n    bool public open; //Mostra se un'elezione  aperta o chiusa\r\n    string public risultatoElezione; //Risultato elezione \"Pareggio\" o \"Nome candidato\"\r\n    address[] public listaVotanti;\r\n    \r\n    constructor () public {\r\n        _setupRole(DEFAULT_ADMIN_ROLE, msg.sender);\r\n        candidatesCount = 0;\r\n        risultatoElezione = \"\";\r\n        inizializzaDatabaseCandidati();\r\n        open = true; //Inizialmente elezione predefinita aperta\r\n    }\r\n\r\n\r\n    function addCandidate (string memory nome, string memory partito, string memory logo) public soloOwner {\r\n        require(!open, \"Elezioni aperte, impossibile aggiungere il candidato!\");\r\n        candidatesCount ++;\r\n        candidates[candidatesCount] = Candidate(candidatesCount, nome, 0, partito, logo);\r\n    }\r\n\r\n    function removeCandidate(uint _candidateId) public soloOwner {\r\n        require(!open, \"Elezioni aperte, impossibile rimuovere un candidato\");\r\n        require(_candidateId > 0 && _candidateId <= candidatesCount, \"Id candidato non valido!\");\r\n        delete candidates[_candidateId];\r\n        candidatesCount--;\r\n        // Shift the candidates' ids down by one starting from the removed candidate's id\r\n        for (uint i = _candidateId; i <= candidatesCount; i++) {\r\n            candidates[i] = candidates[i+1];\r\n        }\r\n        delete candidates[candidatesCount+1];\r\n        emit removedCandidateEvent(_candidateId);\r\n\r\n    }\r\n\r\n    function resetElection() public soloOwner {\r\n        require(!open, \"Elezioni aperte, impossibile rimuovere i candidati\");\r\n        //Rimuovo io\r\n        for (uint i = 0; i < candidatesCount; i++) {\r\n            delete candidates[i];\r\n        }\r\n        candidatesCount = 0;\r\n        risultatoElezione = \"\";\r\n        \r\n\r\n        for (uint i = 0; i < listaVotanti.length; i++ ){\r\n            voters[listaVotanti[i]] = false; //Reset voti\r\n            candidateVoted[listaVotanti[i]] = \"\"; //Reset canidati votati\r\n        }\r\n\r\n        //Reset lista votanti\r\n        address[] memory newListaVotanti;\r\n        listaVotanti = newListaVotanti;\r\n\r\n    }\r\n\r\n    function openElection() public soloOwner returns (bool){\r\n        require(open == false, \"Elezione gia aperta!\"); //Se l'elezione  chiusa..\r\n        open = true;\r\n        return true; //Operazione riuscita!\r\n    }\r\n\r\n    function closeElection() public soloOwner returns (bool){\r\n        require(open == true, \"Elezione gia chiuse!\"); //Se l'elezione  aperta..\r\n        open = false;\r\n\r\n        uint maxVotes = 0;\r\n        uint countMaxVotes = 0;\r\n        Candidate memory candidatoVincitore;\r\n        for (uint i = 1; i <= candidatesCount; i++) {\r\n            if(candidates[i].voteCount > maxVotes){\r\n                maxVotes = candidates[i].voteCount;\r\n                countMaxVotes = 1;\r\n                candidatoVincitore = candidates[i];\r\n            }else if(candidates[i].voteCount == maxVotes){\r\n                countMaxVotes++;\r\n            }\r\n        }\r\n        if(countMaxVotes > 1){\r\n            risultatoElezione = \"Pareggio\";\r\n        }\r\n        else{\r\n            risultatoElezione = candidatoVincitore.name;\r\n        }\r\n\r\n        return true; //Operazione riuscita! \r\n    }\r\n\r\n    function isElectionOpen() public returns (bool){\r\n        return open;\r\n    }\r\n\r\n    modifier soloOwner() {\r\n      emit checksoloOwner(msg.sender);\r\n      require(isOwner(msg.sender), \"Funzione solo per il propietario\");\r\n      _;\r\n    }\r\n\r\n    function isOwner(address account) public virtual view returns (bool) {\r\n      return hasRole(DEFAULT_ADMIN_ROLE, account);\r\n    }\r\n\r\n    function vote (uint _candidateId) public {\r\n\r\n        require(open, \"Elezioni terminate\");\r\n        // Requisiti per il votante\r\n        require(!voters[msg.sender], \"Hai gia votato\");\r\n\r\n        // Requisiti per un candidato\r\n        require(_candidateId > 0 && _candidateId <= candidatesCount);\r\n\r\n        // Ricordo che chi vota non pu pi votare\r\n        voters[msg.sender] = true;\r\n\r\n        // Aggiorno il voto del candidato\r\n        candidates[_candidateId].voteCount++;\r\n\r\n        // Aggiornamento del candidato votato!\r\n        candidateVoted[msg.sender] = candidates[_candidateId].name;\r\n\r\n        // Aggiornamento della lista dei votanti!\r\n        listaVotanti.push(msg.sender);\r\n        \r\n        // lancio evento voto\r\n        emit votedEvent(_candidateId,  candidates[_candidateId].name);\r\n    }\r\n\r\n    /**\r\n     * Inizializza i candidati\r\n     */\r\n    function inizializzaDatabaseCandidati() internal {\r\n        Candidate memory candidate_1= Candidate({\r\n            id: 1,\r\n            name: \"Giorgia Meloni\",\r\n            voteCount: 0,\r\n            partyShortcut: \"FDI\",\r\n            partyFlag: \"https://i.postimg.cc/j5N8v64Q/vignette-divertenti-elezioni-giorgia-meloni.jpg\"\r\n            \r\n        });\r\n        Candidate memory candidate_2 = Candidate({\r\n            id: 2,\r\n            name: \"Matteo Della Rocca\",\r\n            voteCount: 0,\r\n            partyShortcut: \"Freedom\",\r\n            partyFlag: \"./images/mdr-colorato.jpg\"\r\n            \r\n        });\r\n        Candidate memory candidate_3 = Candidate({\r\n            id: 3,\r\n            name: \"Carmine D'Angelo\",\r\n            voteCount: 0,\r\n            partyShortcut: \"NCO\",\r\n            partyFlag: \"https://github.com/mattdr5/SimpleE-VotingSystem/blob/main/src/images/cardano.jpg?raw=true\"\r\n        });\r\n        Candidate memory candidate_4 = Candidate({\r\n            id: 4,\r\n            name: \"Matteo Messina Denaro\",\r\n            voteCount: 0,\r\n            partyShortcut: \"MAFIA\",\r\n            partyFlag: \"https://www.metropolisweb.it/metropolisweb/news/wp-content/uploads/sites/2/2023/01/messina-.jpg\"\r\n        });\r\n\r\n        candidatesCount ++;\r\n        candidates[candidatesCount] = Candidate(candidatesCount, candidate_1.name, candidate_1.voteCount, candidate_1.partyShortcut, candidate_1.partyFlag);\r\n        candidatesCount ++;\r\n        candidates[candidatesCount] = Candidate(candidatesCount, candidate_2.name,  candidate_2.voteCount, candidate_2.partyShortcut, candidate_2.partyFlag);\r\n        candidatesCount ++;\r\n        candidates[candidatesCount] = Candidate(candidatesCount, candidate_3.name, candidate_3.voteCount, candidate_3.partyShortcut, candidate_3.partyFlag);\r\n        candidatesCount ++;\r\n        candidates[candidatesCount] = Candidate(candidatesCount ,candidate_4.name, candidate_4.voteCount, candidate_4.partyShortcut, candidate_4.partyFlag);\r\n\r\n   \r\n    }\r\n}\r\n\r\n    ",
  "sourcePath": "C:\\Users\\della\\OneDrive\\Desktop\\SimpleE-VotingSystem\\SimpleE-VotingSystem\\contracts\\Election.sol",
  "compiler": {
    "name": "solc",
    "version": "0.8.17+commit.8df45f5f.Emscripten.clang"
  },
  "schemaVersion": "3.4.11",
  "updatedAt": "2023-01-23T16:10:11.336Z",
  "networkType": "ethereum",
  "devdoc": {
    "kind": "dev",
    "methods": {
      "getRoleAdmin(bytes32)": {
        "details": "Returns the admin role that controls `role`. See {grantRole} and {revokeRole}. To change a role's admin, use {_setRoleAdmin}."
      },
      "grantRole(bytes32,address)": {
        "details": "Grants `role` to `account`. If `account` had not been already granted `role`, emits a {RoleGranted} event. Requirements: - the caller must have ``role``'s admin role. May emit a {RoleGranted} event."
      },
      "hasRole(bytes32,address)": {
        "details": "Returns `true` if `account` has been granted `role`."
      },
      "renounceRole(bytes32,address)": {
        "details": "Revokes `role` from the calling account. Roles are often managed via {grantRole} and {revokeRole}: this function's purpose is to provide a mechanism for accounts to lose their privileges if they are compromised (such as when a trusted device is misplaced). If the calling account had been revoked `role`, emits a {RoleRevoked} event. Requirements: - the caller must be `account`. May emit a {RoleRevoked} event."
      },
      "revokeRole(bytes32,address)": {
        "details": "Revokes `role` from `account`. If `account` had been granted `role`, emits a {RoleRevoked} event. Requirements: - the caller must have ``role``'s admin role. May emit a {RoleRevoked} event."
      },
      "supportsInterface(bytes4)": {
        "details": "See {IERC165-supportsInterface}."
      }
    },
    "version": 1
  },
  "userdoc": {
    "kind": "user",
    "methods": {},
    "version": 1
  }
}