{
  "contractName": "Election",
  "abi": [
    {
      "inputs": [],
      "stateMutability": "nonpayable",
      "type": "constructor"
    },
    {
      "anonymous": false,
      "inputs": [
        {
          "indexed": true,
          "internalType": "uint256",
          "name": "_candidateId",
          "type": "uint256"
        },
        {
          "indexed": false,
          "internalType": "string",
          "name": "candidateName",
          "type": "string"
        }
      ],
      "name": "votedEvent",
      "type": "event"
    },
    {
      "inputs": [
        {
          "internalType": "address",
          "name": "",
          "type": "address"
        }
      ],
      "name": "candidateVoted",
      "outputs": [
        {
          "internalType": "string",
          "name": "",
          "type": "string"
        }
      ],
      "stateMutability": "view",
      "type": "function",
      "constant": true
    },
    {
      "inputs": [
        {
          "internalType": "uint256",
          "name": "",
          "type": "uint256"
        }
      ],
      "name": "candidates",
      "outputs": [
        {
          "internalType": "uint256",
          "name": "id",
          "type": "uint256"
        },
        {
          "internalType": "string",
          "name": "name",
          "type": "string"
        },
        {
          "internalType": "uint256",
          "name": "voteCount",
          "type": "uint256"
        },
        {
          "internalType": "string",
          "name": "partyShortcut",
          "type": "string"
        },
        {
          "internalType": "string",
          "name": "partyFlag",
          "type": "string"
        }
      ],
      "stateMutability": "view",
      "type": "function",
      "constant": true
    },
    {
      "inputs": [],
      "name": "candidatesCount",
      "outputs": [
        {
          "internalType": "uint256",
          "name": "",
          "type": "uint256"
        }
      ],
      "stateMutability": "view",
      "type": "function",
      "constant": true
    },
    {
      "inputs": [
        {
          "internalType": "address",
          "name": "",
          "type": "address"
        }
      ],
      "name": "voters",
      "outputs": [
        {
          "internalType": "bool",
          "name": "",
          "type": "bool"
        }
      ],
      "stateMutability": "view",
      "type": "function",
      "constant": true
    },
    {
      "inputs": [
        {
          "internalType": "uint256",
          "name": "_candidateId",
          "type": "uint256"
        },
        {
          "internalType": "uint256",
          "name": "_balance",
          "type": "uint256"
        }
      ],
      "name": "vote",
      "outputs": [],
      "stateMutability": "nonpayable",
      "type": "function"
    }
  ],
  "bytecode": "0x60806040523480156200001157600080fd5b50620000226200002860201b60201c565b620007d6565b60006040518060a00160405280600181526020016040518060400160405280600e81526020017f47696f72676961204d656c6f6e690000000000000000000000000000000000008152508152602001600081526020016040518060400160405280600381526020017f464449000000000000000000000000000000000000000000000000000000000081525081526020016040518060800160405280604d815260200162001649604d9139815250905060006040518060a00160405280600281526020016040518060400160405280600c81526020017f4d617474656f2052656e7a6900000000000000000000000000000000000000008152508152602001600081526020016040518060400160405280600281526020017f495600000000000000000000000000000000000000000000000000000000000081525081526020016040518060800160405280604581526020016200169660459139815250905060006040518060a00160405280600381526020016040518060400160405280600c81526020017f446f6e616c64205472756d7000000000000000000000000000000000000000008152508152602001600081526020016040518060400160405280600381526020017f525042000000000000000000000000000000000000000000000000000000000081525081526020016040518060600160405280603a8152602001620016db603a9139815250905060006040518060a00160405280600481526020016040518060400160405280601581526020017f4d617474656f204d657373696e612044656e61726f00000000000000000000008152508152602001600081526020016040518060400160405280600581526020017f4d4146494100000000000000000000000000000000000000000000000000000081525081526020016040518060800160405280605f8152602001620015ea605f91398152509050620002f9846200033260201b60201c565b6200030a836200033260201b60201c565b6200031b826200033260201b60201c565b6200032c816200033260201b60201c565b50505050565b60036000815480929190620003479062000432565b91905055506040518060a0016040528060035481526020018260200151815260200160008152602001826060015181526020018260800151815250600160006003548152602001908152602001600020600082015181600001556020820151816001019081620003b89190620006ef565b50604082015181600201556060820151816003019081620003da9190620006ef565b506080820151816004019081620003f29190620006ef565b5090505050565b7f4e487b7100000000000000000000000000000000000000000000000000000000600052601160045260246000fd5b6000819050919050565b60006200043f8262000428565b91507fffffffffffffffffffffffffffffffffffffffffffffffffffffffffffffffff8203620004745762000473620003f9565b5b600182019050919050565b600081519050919050565b7f4e487b7100000000000000000000000000000000000000000000000000000000600052604160045260246000fd5b7f4e487b7100000000000000000000000000000000000000000000000000000000600052602260045260246000fd5b600060028204905060018216806200050157607f821691505b602082108103620005175762000516620004b9565b5b50919050565b60008190508160005260206000209050919050565b60006020601f8301049050919050565b600082821b905092915050565b600060088302620005817fffffffffffffffffffffffffffffffffffffffffffffffffffffffffffffffff8262000542565b6200058d868362000542565b95508019841693508086168417925050509392505050565b6000819050919050565b6000620005d0620005ca620005c48462000428565b620005a5565b62000428565b9050919050565b6000819050919050565b620005ec83620005af565b62000604620005fb82620005d7565b8484546200054f565b825550505050565b600090565b6200061b6200060c565b62000628818484620005e1565b505050565b5b8181101562000650576200064460008262000611565b6001810190506200062e565b5050565b601f8211156200069f5762000669816200051d565b620006748462000532565b8101602085101562000684578190505b6200069c620006938562000532565b8301826200062d565b50505b505050565b600082821c905092915050565b6000620006c460001984600802620006a4565b1980831691505092915050565b6000620006df8383620006b1565b9150826002028217905092915050565b620006fa826200047f565b67ffffffffffffffff8111156200071657620007156200048a565b5b620007228254620004e8565b6200072f82828562000654565b600060209050601f83116001811462000767576000841562000752578287015190505b6200075e8582620006d1565b865550620007ce565b601f19841662000777866200051d565b60005b82811015620007a1578489015182556001820191506020850194506020810190506200077a565b86831015620007c15784890151620007bd601f891682620006b1565b8355505b6001600288020188555050505b505050505050565b610e0480620007e66000396000f3fe608060405234801561001057600080fd5b50600436106100575760003560e01c80632d35a8a21461005c5780633477ee2e1461007a578063a3ec138d146100ae578063b33c8dfa146100de578063b384abef1461010e575b600080fd5b61006461012a565b60405161007191906105f7565b60405180910390f35b610094600480360381019061008f9190610643565b610130565b6040516100a5959493929190610700565b60405180910390f35b6100c860048036038101906100c391906107c6565b6102fe565b6040516100d5919061080e565b60405180910390f35b6100f860048036038101906100f391906107c6565b61031e565b6040516101059190610829565b60405180910390f35b6101286004803603810190610123919061084b565b6103be565b005b60035481565b6001602052806000526040600020600091509050806000015490806001018054610159906108ba565b80601f0160208091040260200160405190810160405280929190818152602001828054610185906108ba565b80156101d25780601f106101a7576101008083540402835291602001916101d2565b820191906000526020600020905b8154815290600101906020018083116101b557829003601f168201915b5050505050908060020154908060030180546101ed906108ba565b80601f0160208091040260200160405190810160405280929190818152602001828054610219906108ba565b80156102665780601f1061023b57610100808354040283529160200191610266565b820191906000526020600020905b81548152906001019060200180831161024957829003601f168201915b50505050509080600401805461027b906108ba565b80601f01602080910402602001604051908101604052809291908181526020018280546102a7906108ba565b80156102f45780601f106102c9576101008083540402835291602001916102f4565b820191906000526020600020905b8154815290600101906020018083116102d757829003601f168201915b5050505050905085565b60006020528060005260406000206000915054906101000a900460ff1681565b6002602052806000526040600020600091509050805461033d906108ba565b80601f0160208091040260200160405190810160405280929190818152602001828054610369906108ba565b80156103b65780601f1061038b576101008083540402835291602001916103b6565b820191906000526020600020905b81548152906001019060200180831161039957829003601f168201915b505050505081565b6000803373ffffffffffffffffffffffffffffffffffffffff1673ffffffffffffffffffffffffffffffffffffffff16815260200190815260200160002060009054906101000a900460ff161561044a576040517f08c379a000000000000000000000000000000000000000000000000000000000815260040161044190610937565b60405180910390fd5b6000811161048d576040517f08c379a0000000000000000000000000000000000000000000000000000000008152600401610484906109a3565b60405180910390fd5b60008211801561049f57506003548211155b6104a857600080fd5b60016000803373ffffffffffffffffffffffffffffffffffffffff1673ffffffffffffffffffffffffffffffffffffffff16815260200190815260200160002060006101000a81548160ff021916908315150217905550600160008381526020019081526020016000206002016000815480929190610526906109f2565b919050555060016000838152602001908152602001600020600101600260003373ffffffffffffffffffffffffffffffffffffffff1673ffffffffffffffffffffffffffffffffffffffff168152602001908152602001600020908161058c9190610c40565b50817f979840814b99e27d10388b0f146721af580825d27335aaf4e683f78f56be49c2600160008581526020019081526020016000206001016040516105d29190610dac565b60405180910390a25050565b6000819050919050565b6105f1816105de565b82525050565b600060208201905061060c60008301846105e8565b92915050565b600080fd5b610620816105de565b811461062b57600080fd5b50565b60008135905061063d81610617565b92915050565b60006020828403121561065957610658610612565b5b60006106678482850161062e565b91505092915050565b600081519050919050565b600082825260208201905092915050565b60005b838110156106aa57808201518184015260208101905061068f565b60008484015250505050565b6000601f19601f8301169050919050565b60006106d282610670565b6106dc818561067b565b93506106ec81856020860161068c565b6106f5816106b6565b840191505092915050565b600060a08201905061071560008301886105e8565b818103602083015261072781876106c7565b905061073660408301866105e8565b818103606083015261074881856106c7565b9050818103608083015261075c81846106c7565b90509695505050505050565b600073ffffffffffffffffffffffffffffffffffffffff82169050919050565b600061079382610768565b9050919050565b6107a381610788565b81146107ae57600080fd5b50565b6000813590506107c08161079a565b92915050565b6000602082840312156107dc576107db610612565b5b60006107ea848285016107b1565b91505092915050565b60008115159050919050565b610808816107f3565b82525050565b600060208201905061082360008301846107ff565b92915050565b6000602082019050818103600083015261084381846106c7565b905092915050565b6000806040838503121561086257610861610612565b5b60006108708582860161062e565b92505060206108818582860161062e565b9150509250929050565b7f4e487b7100000000000000000000000000000000000000000000000000000000600052602260045260246000fd5b600060028204905060018216806108d257607f821691505b6020821081036108e5576108e461088b565b5b50919050565b7f4861692067696120766f7461746f000000000000000000000000000000000000600082015250565b6000610921600e8361067b565b915061092c826108eb565b602082019050919050565b6000602082019050818103600083015261095081610914565b9050919050565b7f466f6e646920696e73756666696369656e746900000000000000000000000000600082015250565b600061098d60138361067b565b915061099882610957565b602082019050919050565b600060208201905081810360008301526109bc81610980565b9050919050565b7f4e487b7100000000000000000000000000000000000000000000000000000000600052601160045260246000fd5b60006109fd826105de565b91507fffffffffffffffffffffffffffffffffffffffffffffffffffffffffffffffff8203610a2f57610a2e6109c3565b5b600182019050919050565b600081549050610a49816108ba565b9050919050565b7f4e487b7100000000000000000000000000000000000000000000000000000000600052604160045260246000fd5b60008190508160005260206000209050919050565b60008190508160005260206000209050919050565b60006020601f8301049050919050565b600082821b905092915050565b600060088302610af67fffffffffffffffffffffffffffffffffffffffffffffffffffffffffffffffff82610ab9565b610b008683610ab9565b95508019841693508086168417925050509392505050565b6000819050919050565b6000610b3d610b38610b33846105de565b610b18565b6105de565b9050919050565b6000819050919050565b610b5783610b22565b610b6b610b6382610b44565b848454610ac6565b825550505050565b600090565b610b80610b73565b610b8b818484610b4e565b505050565b5b81811015610baf57610ba4600082610b78565b600181019050610b91565b5050565b601f821115610bf457610bc581610a7f565b610bce84610aa9565b81016020851015610bdd578190505b610bf1610be985610aa9565b830182610b90565b50505b505050565b600082821c905092915050565b6000610c1760001984600802610bf9565b1980831691505092915050565b6000610c308383610c06565b9150826002028217905092915050565b818103610c4e575050610d26565b610c5782610a3a565b67ffffffffffffffff811115610c7057610c6f610a50565b5b610c7a82546108ba565b610c85828285610bb3565b6000601f831160018114610cb45760008415610ca2578287015490505b610cac8582610c24565b865550610d1f565b601f198416610cc287610a94565b9650610ccd86610a7f565b60005b82811015610cf557848901548255600182019150600185019450602081019050610cd0565b86831015610d125784890154610d0e601f891682610c06565b8355505b6001600288020188555050505b5050505050505b565b60008154610d35816108ba565b610d3f818661067b565b94506001821660008114610d5a5760018114610d7057610da3565b60ff198316865281151560200286019350610da3565b610d7985610a7f565b60005b83811015610d9b57815481890152600182019150602081019050610d7c565b808801955050505b50505092915050565b60006020820190508181036000830152610dc68184610d28565b90509291505056fea26469706673582212207b49bda85b9bc1df9eccb5bd45a12d682ce6d05f12d21c8b0068c3400e8822d364736f6c6343000811003368747470733a2f2f7777772e6d6574726f706f6c69737765622e69742f6d6574726f706f6c69737765622f6e6577732f77702d636f6e74656e742f75706c6f6164732f73697465732f322f323032332f30312f6d657373696e612d2e6a706768747470733a2f2f692e706f7374696d672e63632f6a354e38763634512f7669676e657474652d646976657274656e74692d656c657a696f6e692d67696f726769612d6d656c6f6e692e6a706768747470733a2f2f7777772e766973746f73756c7765622e636f6d2f77702d636f6e74656e742f75706c6f6164732f323032312f30322f736166655f696d6167652e6a706768747470733a2f2f7777772e706e676d6172742e636f6d2f66696c65732f31362f446f6e616c642d5472756d702d504e472d46696c652e706e67",
  "immutableReferences": {},
  "source": "pragma solidity ^0.8.0;\r\n\r\nimport \"@openzeppelin/contracts/token/ERC20/ERC20.sol\";\r\n\r\ncontract Election {\r\n    // Model a Candidate\r\n    struct Candidate {\r\n        uint id;\r\n        string name;\r\n        uint voteCount;\r\n        string partyShortcut;\r\n        string partyFlag;\r\n        \r\n    }\r\n\r\n    event votedEvent (\r\n        uint indexed _candidateId,  string candidateName\r\n    );\r\n\r\n    // Store accounts that have voted\r\n    mapping(address => bool) public voters;\r\n    // Read/write candidates\r\n    mapping(uint => Candidate) public candidates;\r\n    mapping(address => string) public candidateVoted;\r\n    // Store Candidates Count\r\n\r\n    uint public candidatesCount;\r\n\r\n    constructor () public {\r\n        inizializzaDatabaseCandidati();\r\n    }\r\n\r\n    function addCandidate (Candidate memory candidate) private {\r\n        candidatesCount ++;\r\n        candidates[candidatesCount] = Candidate(candidatesCount, candidate.name, 0, candidate.partyShortcut, candidate.partyFlag);\r\n    }\r\n\r\n\r\n    function vote (uint _candidateId, uint _balance) public {\r\n\r\n        // Requisiti per il votante\r\n        require(!voters[msg.sender], \"Hai gia votato\");\r\n        \r\n        require(_balance > 0, \"Fondi insufficienti\");\r\n\r\n        // Requisiti per un candidato\r\n        require(_candidateId > 0 && _candidateId <= candidatesCount);\r\n\r\n        // Ricordo che chi vota non pu pi votare\r\n        voters[msg.sender] = true;\r\n\r\n        // Aggiorno il voto del candidato\r\n        candidates[_candidateId].voteCount++;\r\n\r\n        // Aggiornamente del candidato votato!\r\n        candidateVoted[msg.sender] = candidates[_candidateId].name;\r\n        \r\n        // trigger voted event\r\n        emit votedEvent(_candidateId,  candidates[_candidateId].name);\r\n    }\r\n\r\n    /**\r\n     * Inizializza i candidati\r\n     */\r\n    function inizializzaDatabaseCandidati() internal {\r\n        Candidate memory candidate_1= Candidate({\r\n            id: 1,\r\n            name: \"Giorgia Meloni\",\r\n            voteCount: 0,\r\n            partyShortcut: \"FDI\",\r\n            partyFlag: \"https://i.postimg.cc/j5N8v64Q/vignette-divertenti-elezioni-giorgia-meloni.jpg\"\r\n            \r\n        });\r\n        Candidate memory candidate_2 = Candidate({\r\n            id: 2,\r\n            name: \"Matteo Renzi\",\r\n            voteCount: 0,\r\n            partyShortcut: \"IV\",\r\n            partyFlag: \"https://www.vistosulweb.com/wp-content/uploads/2021/02/safe_image.jpg\"\r\n            \r\n        });\r\n        Candidate memory candidate_3 = Candidate({\r\n            id: 3,\r\n            name: \"Donald Trump\",\r\n            voteCount: 0,\r\n            partyShortcut: \"RPB\",\r\n            partyFlag: \"https://www.pngmart.com/files/16/Donald-Trump-PNG-File.png\"\r\n        });\r\n        Candidate memory candidate_4 = Candidate({\r\n            id: 4,\r\n            name: \"Matteo Messina Denaro\",\r\n            voteCount: 0,\r\n            partyShortcut: \"MAFIA\",\r\n            partyFlag: \"https://www.metropolisweb.it/metropolisweb/news/wp-content/uploads/sites/2/2023/01/messina-.jpg\"\r\n        });\r\n\r\n        addCandidate(candidate_1);\r\n        addCandidate(candidate_2);\r\n        addCandidate(candidate_3);\r\n        addCandidate(candidate_4);\r\n\r\n   \r\n    }\r\n}\r\n\r\n    ",
  "sourcePath": "C:\\Users\\della\\OneDrive\\Desktop\\SimpleE-VotingSystem\\SimpleE-VotingSystem\\contracts\\Election.sol",
  "compiler": {
    "name": "solc",
    "version": "0.8.17+commit.8df45f5f.Emscripten.clang"
  },
  "schemaVersion": "3.4.11",
  "updatedAt": "2023-01-18T11:28:43.634Z",
  "networkType": "ethereum",
  "devdoc": {
    "kind": "dev",
    "methods": {},
    "version": 1
  },
  "userdoc": {
    "kind": "user",
    "methods": {},
    "version": 1
  }
}